{"abi":[{"type":"constructor","inputs":[{"name":"flagsAddress","type":"address","internalType":"address"},{"name":"l1SenderAddress","type":"address","internalType":"address"}],"stateMutability":"nonpayable"},{"type":"function","name":"FLAGS","inputs":[],"outputs":[{"name":"","type":"address","internalType":"contract FlagsInterface"}],"stateMutability":"view"},{"type":"function","name":"FLAG_L2_SEQ_OFFLINE","inputs":[],"outputs":[{"name":"","type":"address","internalType":"address"}],"stateMutability":"view"},{"type":"function","name":"acceptOwnership","inputs":[],"outputs":[],"stateMutability":"nonpayable"},{"type":"function","name":"addAccess","inputs":[{"name":"_user","type":"address","internalType":"address"}],"outputs":[],"stateMutability":"nonpayable"},{"type":"function","name":"aliasedL1MessageSender","inputs":[],"outputs":[{"name":"","type":"address","internalType":"address"}],"stateMutability":"view"},{"type":"function","name":"checkEnabled","inputs":[],"outputs":[{"name":"","type":"bool","internalType":"bool"}],"stateMutability":"view"},{"type":"function","name":"decimals","inputs":[],"outputs":[{"name":"","type":"uint8","internalType":"uint8"}],"stateMutability":"view"},{"type":"function","name":"description","inputs":[],"outputs":[{"name":"","type":"string","internalType":"string"}],"stateMutability":"view"},{"type":"function","name":"disableAccessCheck","inputs":[],"outputs":[],"stateMutability":"nonpayable"},{"type":"function","name":"enableAccessCheck","inputs":[],"outputs":[],"stateMutability":"nonpayable"},{"type":"function","name":"getAnswer","inputs":[{"name":"roundId","type":"uint256","internalType":"uint256"}],"outputs":[{"name":"","type":"int256","internalType":"int256"}],"stateMutability":"view"},{"type":"function","name":"getRoundData","inputs":[{"name":"_roundId","type":"uint80","internalType":"uint80"}],"outputs":[{"name":"roundId","type":"uint80","internalType":"uint80"},{"name":"answer","type":"int256","internalType":"int256"},{"name":"startedAt","type":"uint256","internalType":"uint256"},{"name":"updatedAt","type":"uint256","internalType":"uint256"},{"name":"answeredInRound","type":"uint80","internalType":"uint80"}],"stateMutability":"view"},{"type":"function","name":"getTimestamp","inputs":[{"name":"roundId","type":"uint256","internalType":"uint256"}],"outputs":[{"name":"","type":"uint256","internalType":"uint256"}],"stateMutability":"view"},{"type":"function","name":"hasAccess","inputs":[{"name":"_user","type":"address","internalType":"address"},{"name":"_calldata","type":"bytes","internalType":"bytes"}],"outputs":[{"name":"","type":"bool","internalType":"bool"}],"stateMutability":"view"},{"type":"function","name":"initialize","inputs":[],"outputs":[],"stateMutability":"nonpayable"},{"type":"function","name":"l1Sender","inputs":[],"outputs":[{"name":"","type":"address","internalType":"address"}],"stateMutability":"view"},{"type":"function","name":"latestAnswer","inputs":[],"outputs":[{"name":"","type":"int256","internalType":"int256"}],"stateMutability":"view"},{"type":"function","name":"latestRound","inputs":[],"outputs":[{"name":"","type":"uint256","internalType":"uint256"}],"stateMutability":"view"},{"type":"function","name":"latestRoundData","inputs":[],"outputs":[{"name":"roundId","type":"uint80","internalType":"uint80"},{"name":"answer","type":"int256","internalType":"int256"},{"name":"startedAt","type":"uint256","internalType":"uint256"},{"name":"updatedAt","type":"uint256","internalType":"uint256"},{"name":"answeredInRound","type":"uint80","internalType":"uint80"}],"stateMutability":"view"},{"type":"function","name":"latestTimestamp","inputs":[],"outputs":[{"name":"","type":"uint256","internalType":"uint256"}],"stateMutability":"view"},{"type":"function","name":"owner","inputs":[],"outputs":[{"name":"","type":"address","internalType":"address"}],"stateMutability":"view"},{"type":"function","name":"removeAccess","inputs":[{"name":"_user","type":"address","internalType":"address"}],"outputs":[],"stateMutability":"nonpayable"},{"type":"function","name":"transferL1Sender","inputs":[{"name":"to","type":"address","internalType":"address"}],"outputs":[],"stateMutability":"nonpayable"},{"type":"function","name":"transferOwnership","inputs":[{"name":"to","type":"address","internalType":"address"}],"outputs":[],"stateMutability":"nonpayable"},{"type":"function","name":"typeAndVersion","inputs":[],"outputs":[{"name":"","type":"string","internalType":"string"}],"stateMutability":"pure"},{"type":"function","name":"updateStatus","inputs":[{"name":"status","type":"bool","internalType":"bool"},{"name":"timestamp","type":"uint64","internalType":"uint64"}],"outputs":[],"stateMutability":"nonpayable"},{"type":"function","name":"version","inputs":[],"outputs":[{"name":"","type":"uint256","internalType":"uint256"}],"stateMutability":"view"},{"type":"event","name":"AddedAccess","inputs":[{"name":"user","type":"address","indexed":false,"internalType":"address"}],"anonymous":false},{"type":"event","name":"AnswerUpdated","inputs":[{"name":"current","type":"int256","indexed":true,"internalType":"int256"},{"name":"roundId","type":"uint256","indexed":true,"internalType":"uint256"},{"name":"updatedAt","type":"uint256","indexed":false,"internalType":"uint256"}],"anonymous":false},{"type":"event","name":"CheckAccessDisabled","inputs":[],"anonymous":false},{"type":"event","name":"CheckAccessEnabled","inputs":[],"anonymous":false},{"type":"event","name":"Initialized","inputs":[],"anonymous":false},{"type":"event","name":"L1SenderTransferred","inputs":[{"name":"from","type":"address","indexed":true,"internalType":"address"},{"name":"to","type":"address","indexed":true,"internalType":"address"}],"anonymous":false},{"type":"event","name":"NewRound","inputs":[{"name":"roundId","type":"uint256","indexed":true,"internalType":"uint256"},{"name":"startedBy","type":"address","indexed":true,"internalType":"address"},{"name":"startedAt","type":"uint256","indexed":false,"internalType":"uint256"}],"anonymous":false},{"type":"event","name":"OwnershipTransferRequested","inputs":[{"name":"from","type":"address","indexed":true,"internalType":"address"},{"name":"to","type":"address","indexed":true,"internalType":"address"}],"anonymous":false},{"type":"event","name":"OwnershipTransferred","inputs":[{"name":"from","type":"address","indexed":true,"internalType":"address"},{"name":"to","type":"address","indexed":true,"internalType":"address"}],"anonymous":false},{"type":"event","name":"RemovedAccess","inputs":[{"name":"user","type":"address","indexed":false,"internalType":"address"}],"anonymous":false},{"type":"event","name":"UpdateIgnored","inputs":[{"name":"latestStatus","type":"bool","indexed":false,"internalType":"bool"},{"name":"latestTimestamp","type":"uint64","indexed":false,"internalType":"uint64"},{"name":"incomingStatus","type":"bool","indexed":false,"internalType":"bool"},{"name":"incomingTimestamp","type":"uint64","indexed":false,"internalType":"uint64"}],"anonymous":false},{"type":"error","name":"AlreadyInitialized","inputs":[]},{"type":"error","name":"InvalidSender","inputs":[]},{"type":"error","name":"NoDataPresent","inputs":[]},{"type":"error","name":"Uninitialized","inputs":[]}],"bytecode":{"object":"0x6101006040525f60a081905260c081905260e052600480546001600160981b03191690553480156200002f575f80fd5b50604051620018d1380380620018d183398101604081905262000052916200023d565b33805f81620000a85760405162461bcd60e51b815260206004820152601860248201527f43616e6e6f7420736574206f776e657220746f207a65726f000000000000000060448201526064015b60405180910390fd5b5f80546001600160a01b0319166001600160a01b0384811691909117909155811615620000da57620000da816200010e565b50506001805460ff60a01b1916600160a01b17905550620000fb81620001b8565b506001600160a01b031660805262000273565b336001600160a01b03821603620001685760405162461bcd60e51b815260206004820152601760248201527f43616e6e6f74207472616e7366657220746f2073656c6600000000000000000060448201526064016200009f565b600180546001600160a01b0319166001600160a01b038381169182179092555f8054604051929316917fed8889f560326eb138920d842192f0eb3dd22b4f139c87a2c57538e05bae12789190a350565b6003546001600160a01b0390811690821681146200021d57600380546001600160a01b0319166001600160a01b0384811691821790925560405190918316907f8e6da65f164d652f378f48652c0e1ca58d7c9cc52ceaa40c1dad055cd7681d18905f90a35b5050565b80516001600160a01b038116811462000238575f80fd5b919050565b5f80604083850312156200024f575f80fd5b6200025a8362000221565b91506200026a6020840162000221565b90509250929050565b608051611630620002a15f395f81816102ee0152818161079f015281816111d2015261126b01526116305ff3fe608060405234801561000f575f80fd5b50600436106101a1575f3560e01c80638205bf6a116100f3578063b5ab58dc11610093578063dc7f01241161006e578063dc7f0124146103a1578063ed8378f5146103b5578063f2fde38b146103c8578063feaf968c146103db575f80fd5b8063b5ab58dc1461036a578063b633620c1461037d578063b7558b7a14610390575f80fd5b8063926aa9f6116100ce578063926aa9f6146102e15780639728538f146102e95780639a6fc8f514610310578063a118f24914610357575f80fd5b80638205bf6a146102b65780638823da6c146102be5780638da5cb5b146102d1575f80fd5b806354fd4d501161015e5780637284e416116101395780637284e4161461026257806379ba50971461029e5780638038e4a1146102a65780638129fc1c146102ae575f80fd5b806354fd4d501461022f578063668a0f02146102375780636b14daf81461023f575f80fd5b80630a756983146101a5578063181f5a77146101af5780631e8d27dd146101cd578063284afc08146101ed578063313ce5671461020057806350d25bcd14610219575b5f80fd5b6101ad6103e3565b005b6101b7610435565b6040516101c49190611350565b60405180910390f35b6101d5610455565b6040516001600160a01b0390911681526020016101c4565b6101ad6101fb3660046113b2565b610473565b6102075f81565b60405160ff90911681526020016101c4565b610221610487565b6040519081526020016101c4565b610221600181565b61022161054c565b61025261024d3660046113df565b610604565b60405190151581526020016101c4565b6101b76040518060400160405280601f81526020017f4c322053657175656e63657220557074696d652053746174757320466565640081525081565b6101ad61062b565b6101ad6106d4565b6101ad61072a565b610221610878565b6101ad6102cc3660046113b2565b610933565b5f546001600160a01b03166101d5565b6101d56109b2565b6101d57f000000000000000000000000000000000000000000000000000000000000000081565b61032361031e36600461149a565b6109e6565b604080516001600160501b03968716815260208101959095528401929092526060830152909116608082015260a0016101c4565b6101ad6103653660046113b2565b610aeb565b6102216103783660046114c7565b610b65565b61022161038b3660046114c7565b610c10565b6003546001600160a01b03166101d5565b60015461025290600160a01b900460ff1681565b6101ad6103c33660046114eb565b610cb8565b6101ad6103d63660046113b2565b610e15565b610323610e26565b6103eb610f05565b600154600160a01b900460ff1615610433576001805460ff60a01b191690556040517f3be8a977a014527b50ae38adda80b56911c267328965c98ddc385d248f539638905f90a15b565b60606040518060600160405280602181526020016115da60219139905090565b61046d60015f805160206115ba833981519152611541565b60601c81565b61047b610f05565b61048481610f57565b50565b5f6104c7335f368080601f0160208091040260200160405190810160405280939291908181526020018383808284375f9201919091525061060492505050565b6104ec5760405162461bcd60e51b81526004016104e390611554565b60405180910390fd5b604080516060810182526004546001600160501b038116808352600160501b820460ff1615156020840152600160581b9091046001600160401b0316928201929092529061053990610fbf565b6105468160200151610fe8565b91505090565b5f61058c335f368080601f0160208091040260200160405190810160405280939291908181526020018383808284375f9201919091525061060492505050565b6105a85760405162461bcd60e51b81526004016104e390611554565b604080516060810182526004546001600160501b038116808352600160501b820460ff1615156020840152600160581b9091046001600160401b031692820192909252906105f590610fbf565b516001600160501b0316905090565b5f61060f8383610ffc565b8061062257506001600160a01b03831632145b90505b92915050565b6001546001600160a01b0316331461067e5760405162461bcd60e51b815260206004820152601660248201527526bab9ba10313290383937b837b9b2b21037bbb732b960511b60448201526064016104e3565b5f8054336001600160a01b0319808316821784556001805490911690556040516001600160a01b0390921692909183917f8be0079c531659141344cd1fd0a4f28419497f9722a3daafe3b4186f6b6457e091a350565b6106dc610f05565b600154600160a01b900460ff16610433576001805460ff60a01b1916600160a01b1790556040517faebf329500988c6488a0074e5a0a9ff304561fc5c6fc877aeb1d59c8282c3480905f90a1565b610732610f05565b604080516060810182526004546001600160501b038116808352600160501b820460ff1615156020840152600160581b9091046001600160401b03169282019290925290156107935760405162dc149f60e41b815260040160405180910390fd5b425f6001600160a01b037f00000000000000000000000000000000000000000000000000000000000000001663357e47fe6107dc60015f805160206115ba833981519152611541565b60405160e083901b6001600160e01b031916815260609190911c6004820152602401602060405180830381865afa158015610819573d5f803e3d5ffd5b505050506040513d601f19601f8201168201806040525081019061083d9190611577565b905061084b60018284611032565b6040517f5daa87a0e9463431830481fd4b6e3403442dfb9a12b9c07597e9f61d50b633c8905f90a1505050565b5f6108b8335f368080601f0160208091040260200160405190810160405280939291908181526020018383808284375f9201919091525061060492505050565b6108d45760405162461bcd60e51b81526004016104e390611554565b604080516060810182526004546001600160501b038116808352600160501b820460ff1615156020840152600160581b9091046001600160401b0316928201929092529061092190610fbf565b604001516001600160401b0316905090565b61093b610f05565b6001600160a01b0381165f9081526002602052604090205460ff1615610484576001600160a01b0381165f81815260026020908152604091829020805460ff1916905590519182527f3d68a6fce901d20453d1a7aa06bf3950302a735948037deb182a8db66df2a0d191015b60405180910390a150565b5f6109e16109c86003546001600160a01b031690565b7311110000000000000000000000000000000011110190565b905090565b5f805f805f610a2a335f368080601f0160208091040260200160405190810160405280939291908181526020018383808284375f9201919091525061060492505050565b610a465760405162461bcd60e51b81526004016104e390611554565b600454610a5b906001600160501b0316610fbf565b610a6d866001600160501b0316611192565b15610ad6576001600160501b0386165f9081526005602090815260409182902082518084019093525460ff811615158084526101009091046001600160401b031691830191909152610abe90610fe8565b945080602001516001600160401b0316935050610add565b5f93505f92505b509394919350915081908490565b610af3610f05565b6001600160a01b0381165f9081526002602052604090205460ff16610484576001600160a01b0381165f81815260026020908152604091829020805460ff1916600117905590519182527f87286ad1f399c8e82bf0c4ef4fcdc570ea2e1e92176e5c848b6413545b885db491016109a7565b5f610ba5335f368080601f0160208091040260200160405190810160405280939291908181526020018383808284375f9201919091525061060492505050565b610bc15760405162461bcd60e51b81526004016104e390611554565b600454610bd6906001600160501b0316610fbf565b610bdf82611192565b15610c08576001600160501b0382165f908152600560205260409020546106259060ff16610fe8565b505f5b919050565b5f610c50335f368080601f0160208091040260200160405190810160405280939291908181526020018383808284375f9201919091525061060492505050565b610c6c5760405162461bcd60e51b81526004016104e390611554565b600454610c81906001600160501b0316610fbf565b610c8a82611192565b15610c0857506001600160501b03165f9081526005602052604090205461010090046001600160401b031690565b604080516060810182526004546001600160501b038116808352600160501b820460ff1615156020840152600160581b9091046001600160401b03169282019290925290610d0590610fbf565b610d0d6109b2565b6001600160a01b0316336001600160a01b031614610d3e57604051636edaef2f60e11b815260040160405180910390fd5b821515816020015115151480610d695750816001600160401b031681604001516001600160401b0316115b15610ddc577fe4a6e16301740042c17431042adb8f60454c18fb5934dd4c456269c0dc388fdf816020015182604001518585604051610dcf949392919093151584526001600160401b039283166020850152901515604084015216606082015260800190565b60405180910390a1505050565b6001815f01818151610dee9190611592565b6001600160501b03169052508051610e07908484611032565b610e10836111c2565b505050565b610e1d610f05565b610484816112a8565b5f805f805f610e6a335f368080601f0160208091040260200160405190810160405280939291908181526020018383808284375f9201919091525061060492505050565b610e865760405162461bcd60e51b81526004016104e390611554565b604080516060810182526004546001600160501b038116808352600160501b820460ff1615156020840152600160581b9091046001600160401b03169282019290925290610ed390610fbf565b805f01519550610ee68160200151610fe8565b604090910151959690956001600160401b031694508493508692509050565b5f546001600160a01b031633146104335760405162461bcd60e51b815260206004820152601660248201527527b7363c9031b0b63630b1363290313c9037bbb732b960511b60448201526064016104e3565b6003546001600160a01b039081169082168114610fbb57600380546001600160a01b0319166001600160a01b0384811691821790925560405190918316907f8e6da65f164d652f378f48652c0e1ca58d7c9cc52ceaa40c1dad055cd7681d18905f90a35b5050565b806001600160501b03165f036104845760405163071cbeb560e21b815260040160405180910390fd5b5f81610ff4575f610625565b600192915050565b6001600160a01b0382165f9081526002602052604081205460ff1680610622575050600154600160a01b900460ff161592915050565b6040805180820182528315158082526001600160401b03848116602080850182815286516060810188526001600160501b038b8116808352828501978852828a018681525f828152600587528b90208a51815496518a166101000268ffffffffffffffff00199115159190911668ffffffffffffffffff19909716969096179590951790945582516004805499519551909816600160581b0267ffffffffffffffff60581b19951515600160501b026affffffffffffffffffffff19909a1691909316179790971792909216919091179093559451908152929390923392917f0109fc6f55cf40689f02fbaad7af7fe7bbac8a3d2186600afc7d3e10cac60271910160405180910390a3846001600160501b031661114f85610fe8565b6040516001600160401b03861681527f0559884fd3a460db3073b7fc896cc77986f16e378210ded43186175bf646fc5f9060200160405180910390a35050505050565b5f80821180156111a957506001600160501b038211155b80156106255750506004546001600160501b0316101590565b8015611261576001600160a01b037f00000000000000000000000000000000000000000000000000000000000000001663d74af26361120f60015f805160206115ba833981519152611541565b60405160e083901b6001600160e01b031916815260609190911c60048201526024015f604051808303815f87803b158015611248575f80fd5b505af115801561125a573d5f803e3d5ffd5b5050505050565b6001600160a01b037f00000000000000000000000000000000000000000000000000000000000000001663e37a836661120f60015f805160206115ba833981519152611541565b336001600160a01b038216036113005760405162461bcd60e51b815260206004820152601760248201527f43616e6e6f74207472616e7366657220746f2073656c6600000000000000000060448201526064016104e3565b600180546001600160a01b0319166001600160a01b038381169182179092555f8054604051929316917fed8889f560326eb138920d842192f0eb3dd22b4f139c87a2c57538e05bae12789190a350565b5f602080835283518060208501525f5b8181101561137c57858101830151858201604001528201611360565b505f604082860101526040601f19601f8301168501019250505092915050565b80356001600160a01b0381168114610c0b575f80fd5b5f602082840312156113c2575f80fd5b6106228261139c565b634e487b7160e01b5f52604160045260245ffd5b5f80604083850312156113f0575f80fd5b6113f98361139c565b915060208301356001600160401b0380821115611414575f80fd5b818501915085601f830112611427575f80fd5b813581811115611439576114396113cb565b604051601f8201601f19908116603f01168101908382118183101715611461576114616113cb565b81604052828152886020848701011115611479575f80fd5b826020860160208301375f6020848301015280955050505050509250929050565b5f602082840312156114aa575f80fd5b81356001600160501b03811681146114c0575f80fd5b9392505050565b5f602082840312156114d7575f80fd5b5035919050565b8015158114610484575f80fd5b5f80604083850312156114fc575f80fd5b8235611507816114de565b915060208301356001600160401b0381168114611522575f80fd5b809150509250929050565b634e487b7160e01b5f52601160045260245ffd5b818103818111156106255761062561152d565b6020808252600990820152684e6f2061636365737360b81b604082015260600190565b5f60208284031215611587575f80fd5b81516114c0816114de565b6001600160501b038181168382160190808211156115b2576115b261152d565b509291505056fea438451d6458044c3c8cd2f6f31c91ac882a6d917fa1d50c2bc3074c4524952d417262697472756d53657175656e636572557074696d654665656420312e302e30a2646970667358221220acee4206e9d9e017300810569a5baa96e5219e06ae92da0002ef8ce25117e47e64736f6c63430008180033","linkReferences":{}},"methodIdentifiers":{"FLAGS()":"9728538f","FLAG_L2_SEQ_OFFLINE()":"1e8d27dd","acceptOwnership()":"79ba5097","addAccess(address)":"a118f249","aliasedL1MessageSender()":"926aa9f6","checkEnabled()":"dc7f0124","decimals()":"313ce567","description()":"7284e416","disableAccessCheck()":"0a756983","enableAccessCheck()":"8038e4a1","getAnswer(uint256)":"b5ab58dc","getRoundData(uint80)":"9a6fc8f5","getTimestamp(uint256)":"b633620c","hasAccess(address,bytes)":"6b14daf8","initialize()":"8129fc1c","l1Sender()":"b7558b7a","latestAnswer()":"50d25bcd","latestRound()":"668a0f02","latestRoundData()":"feaf968c","latestTimestamp()":"8205bf6a","owner()":"8da5cb5b","removeAccess(address)":"8823da6c","transferL1Sender(address)":"284afc08","transferOwnership(address)":"f2fde38b","typeAndVersion()":"181f5a77","updateStatus(bool,uint64)":"ed8378f5","version()":"54fd4d50"},"id":2}