{"abi":[{"type":"constructor","inputs":[{"name":"proposalNames","type":"bytes32[]","internalType":"bytes32[]"}],"stateMutability":"nonpayable"},{"type":"function","name":"chairperson","inputs":[],"outputs":[{"name":"","type":"address","internalType":"address"}],"stateMutability":"view"},{"type":"function","name":"delegate","inputs":[{"name":"to","type":"address","internalType":"address"}],"outputs":[],"stateMutability":"nonpayable"},{"type":"function","name":"giveRightToVote","inputs":[{"name":"voter","type":"address","internalType":"address"}],"outputs":[],"stateMutability":"nonpayable"},{"type":"function","name":"proposals","inputs":[{"name":"","type":"uint256","internalType":"uint256"}],"outputs":[{"name":"name","type":"bytes32","internalType":"bytes32"},{"name":"voteCount","type":"uint256","internalType":"uint256"}],"stateMutability":"view"},{"type":"function","name":"vote","inputs":[{"name":"proposal","type":"uint256","internalType":"uint256"}],"outputs":[],"stateMutability":"nonpayable"},{"type":"function","name":"voters","inputs":[{"name":"","type":"address","internalType":"address"}],"outputs":[{"name":"weight","type":"uint256","internalType":"uint256"},{"name":"voted","type":"bool","internalType":"bool"},{"name":"delegate","type":"address","internalType":"address"},{"name":"vote","type":"uint256","internalType":"uint256"}],"stateMutability":"view"},{"type":"function","name":"winningProposal","inputs":[],"outputs":[{"name":"winningProposal_","type":"uint256","internalType":"uint256"}],"stateMutability":"view"}],"bytecode":{"object":"0x608060405234801561000f575f80fd5b5060405161088a38038061088a83398101604081905261002e916100d2565b5f80546001600160a01b03191633908117825581526001602081905260408220555b81518110156100b757600260405180604001604052808484815181106100785761007861018a565b60209081029190910181015182525f91810182905283546001818101865594835291819020835160029093020191825591909101519082015501610050565b505061019e565b634e487b7160e01b5f52604160045260245ffd5b5f60208083850312156100e3575f80fd5b82516001600160401b03808211156100f9575f80fd5b818501915085601f83011261010c575f80fd5b81518181111561011e5761011e6100be565b8060051b604051601f19603f83011681018181108582111715610143576101436100be565b604052918252848201925083810185019188831115610160575f80fd5b938501935b8285101561017e57845184529385019392850192610165565b98975050505050505050565b634e487b7160e01b5f52603260045260245ffd5b6106df806101ab5f395ff3fe608060405234801561000f575f80fd5b506004361061007a575f3560e01c80635c19a95c116100585780635c19a95c146100ea578063609ff1bd146100fd5780639e7b8d6114610113578063a3ec138d14610126575f80fd5b80630121b93f1461007e578063013cf08b146100935780632e4176cf146100c0575b5f80fd5b61009161008c36600461062c565b610196565b005b6100a66100a136600461062c565b61028c565b604080519283526020830191909152015b60405180910390f35b5f546100d2906001600160a01b031681565b6040516001600160a01b0390911681526020016100b7565b6100916100f8366004610643565b6102b8565b6101056104ac565b6040519081526020016100b7565b610091610121366004610643565b61051a565b610167610134366004610643565b600160208190525f918252604090912080549181015460029091015460ff82169161010090046001600160a01b03169084565b6040516100b7949392919093845291151560208401526001600160a01b03166040830152606082015260800190565b335f90815260016020526040812080549091036101f15760405162461bcd60e51b8152602060048201526014602482015273486173206e6f20726967687420746f20766f746560601b60448201526064015b60405180910390fd5b600181015460ff16156102375760405162461bcd60e51b815260206004820152600e60248201526d20b63932b0b23c903b37ba32b21760911b60448201526064016101e8565b6001818101805460ff191690911790556002808201839055815481549091908490811061026657610266610670565b905f5260205f2090600202016001015f8282546102839190610684565b90915550505050565b6002818154811061029b575f80fd5b5f9182526020909120600290910201805460019091015490915082565b335f9081526001602081905260409091209081015460ff16156103115760405162461bcd60e51b81526020600482015260116024820152701e5bdd48185b1c9958591e481d9bdd1959607a1b60448201526064016101e8565b336001600160a01b038316036103695760405162461bcd60e51b815260206004820152601d60248201527f53656c662d64656c65676174696f6e20697320646973616c6c6f77656400000060448201526064016101e8565b6001600160a01b038281165f90815260016020819052604090912001546101009004161561040b576001600160a01b039182165f90815260016020819052604090912001546101009004909116903382036104065760405162461bcd60e51b815260206004820152601960248201527f466f756e64206c6f6f7020696e2064656c65676174696f6e2e0000000000000060448201526064016101e8565b610369565b600181810180546001600160a81b0319166101006001600160a01b0386169081029190911783179091555f9081526020829052604090209081015460ff161561048e5781546002828101548154811061046657610466610670565b905f5260205f2090600202016001015f8282546104839190610684565b909155506104a79050565b8154815482905f906104a1908490610684565b90915550505b505050565b5f80805b6002548110156105155781600282815481106104ce576104ce610670565b905f5260205f20906002020160010154111561050d57600281815481106104f7576104f7610670565b905f5260205f2090600202016001015491508092505b6001016104b0565b505090565b5f546001600160a01b031633146105835760405162461bcd60e51b815260206004820152602760248201527f4f6e6c79206368616972706572736f6e2063616e206769766520726967687420604482015266746f20766f746560c81b60648201526084016101e8565b6001600160a01b0381165f908152600160208190526040909120015460ff16156105ef5760405162461bcd60e51b815260206004820152601760248201527f54686520766f74657220616c726561647920766f74656400000000000000000060448201526064016101e8565b6001600160a01b0381165f9081526001602052604090205415610610575f80fd5b6001600160a01b03165f90815260016020819052604090912055565b5f6020828403121561063c575f80fd5b5035919050565b5f60208284031215610653575f80fd5b81356001600160a01b0381168114610669575f80fd5b9392505050565b634e487b7160e01b5f52603260045260245ffd5b808201808211156106a357634e487b7160e01b5f52601160045260245ffd5b9291505056fea264697066735822122010fa5df6d42cbaa9283e19f24d780d73d24b4b09f3226cdf4923e56d942df64764736f6c63430008180033","linkReferences":{}},"methodIdentifiers":{"chairperson()":"2e4176cf","delegate(address)":"5c19a95c","giveRightToVote(address)":"9e7b8d61","proposals(uint256)":"013cf08b","vote(uint256)":"0121b93f","voters(address)":"a3ec138d","winningProposal()":"609ff1bd"},"id":33}