{"abi":[{"type":"constructor","inputs":[],"stateMutability":"nonpayable"},{"type":"receive","stateMutability":"payable"},{"type":"function","name":"DOMAIN_SEPARATOR","inputs":[],"outputs":[{"name":"","type":"bytes32","internalType":"bytes32"}],"stateMutability":"view"},{"type":"function","name":"allowance","inputs":[{"name":"","type":"address","internalType":"address"},{"name":"","type":"address","internalType":"address"}],"outputs":[{"name":"","type":"uint256","internalType":"uint256"}],"stateMutability":"view"},{"type":"function","name":"approve","inputs":[{"name":"spender","type":"address","internalType":"address"},{"name":"amount","type":"uint256","internalType":"uint256"}],"outputs":[{"name":"","type":"bool","internalType":"bool"}],"stateMutability":"nonpayable"},{"type":"function","name":"balanceOf","inputs":[{"name":"","type":"address","internalType":"address"}],"outputs":[{"name":"","type":"uint256","internalType":"uint256"}],"stateMutability":"view"},{"type":"function","name":"beginDate","inputs":[],"outputs":[{"name":"","type":"uint256","internalType":"uint256"}],"stateMutability":"view"},{"type":"function","name":"dates","inputs":[{"name":"","type":"address","internalType":"address"}],"outputs":[{"name":"","type":"uint256","internalType":"uint256"}],"stateMutability":"view"},{"type":"function","name":"decimals","inputs":[],"outputs":[{"name":"","type":"uint8","internalType":"uint8"}],"stateMutability":"view"},{"type":"function","name":"mint","inputs":[{"name":"to","type":"address","internalType":"address"},{"name":"amount","type":"uint256","internalType":"uint256"}],"outputs":[],"stateMutability":"nonpayable"},{"type":"function","name":"name","inputs":[],"outputs":[{"name":"","type":"string","internalType":"string"}],"stateMutability":"view"},{"type":"function","name":"nonces","inputs":[{"name":"","type":"address","internalType":"address"}],"outputs":[{"name":"","type":"uint256","internalType":"uint256"}],"stateMutability":"view"},{"type":"function","name":"owner","inputs":[],"outputs":[{"name":"","type":"address","internalType":"address"}],"stateMutability":"view"},{"type":"function","name":"permit","inputs":[{"name":"owner","type":"address","internalType":"address"},{"name":"spender","type":"address","internalType":"address"},{"name":"value","type":"uint256","internalType":"uint256"},{"name":"deadline","type":"uint256","internalType":"uint256"},{"name":"v","type":"uint8","internalType":"uint8"},{"name":"r","type":"bytes32","internalType":"bytes32"},{"name":"s","type":"bytes32","internalType":"bytes32"}],"outputs":[],"stateMutability":"nonpayable"},{"type":"function","name":"stakeing","inputs":[{"name":"value","type":"uint256","internalType":"uint256"}],"outputs":[],"stateMutability":"payable"},{"type":"function","name":"stakers","inputs":[{"name":"","type":"address","internalType":"address"}],"outputs":[{"name":"","type":"uint256","internalType":"uint256"}],"stateMutability":"view"},{"type":"function","name":"symbol","inputs":[],"outputs":[{"name":"","type":"string","internalType":"string"}],"stateMutability":"view"},{"type":"function","name":"token","inputs":[],"outputs":[{"name":"","type":"address","internalType":"contract ERC20"}],"stateMutability":"view"},{"type":"function","name":"totalReward","inputs":[],"outputs":[{"name":"","type":"uint256","internalType":"uint256"}],"stateMutability":"view"},{"type":"function","name":"totalStaking","inputs":[],"outputs":[{"name":"","type":"uint256","internalType":"uint256"}],"stateMutability":"view"},{"type":"function","name":"totalSupply","inputs":[],"outputs":[{"name":"","type":"uint256","internalType":"uint256"}],"stateMutability":"view"},{"type":"function","name":"transfer","inputs":[{"name":"to","type":"address","internalType":"address"},{"name":"amount","type":"uint256","internalType":"uint256"}],"outputs":[{"name":"","type":"bool","internalType":"bool"}],"stateMutability":"nonpayable"},{"type":"function","name":"transferFrom","inputs":[{"name":"from","type":"address","internalType":"address"},{"name":"to","type":"address","internalType":"address"},{"name":"amount","type":"uint256","internalType":"uint256"}],"outputs":[{"name":"","type":"bool","internalType":"bool"}],"stateMutability":"nonpayable"},{"type":"function","name":"unlock","inputs":[{"name":"amount","type":"uint256","internalType":"uint256"}],"outputs":[],"stateMutability":"payable"},{"type":"function","name":"unlockAll","inputs":[],"outputs":[],"stateMutability":"payable"},{"type":"event","name":"Approval","inputs":[{"name":"owner","type":"address","indexed":true,"internalType":"address"},{"name":"spender","type":"address","indexed":true,"internalType":"address"},{"name":"amount","type":"uint256","indexed":false,"internalType":"uint256"}],"anonymous":false},{"type":"event","name":"Transfer","inputs":[{"name":"from","type":"address","indexed":true,"internalType":"address"},{"name":"to","type":"address","indexed":true,"internalType":"address"},{"name":"amount","type":"uint256","indexed":false,"internalType":"uint256"}],"anonymous":false}],"bytecode":{"object":"0x60e0604052620f424060085534801562000017575f80fd5b506040518060400160405280600781526020016626bcaa37b5b2b760c91b815250604051806040016040528060038152602001624d544b60e81b8152506010825f90816200006691906200027a565b5060016200007583826200027a565b5060ff81166080524660a0526200008b620000d7565b60c05250620000bb9150309050620000a66010600a62000455565b600854620000b5919062000469565b62000171565b600780546001600160a01b031916331790555f60095562000513565b5f7f8b73c3c69bb8fe3d512ecc4cf759cc79239f7b179b0ffacaa9a75d522b39400f5f60405162000109919062000483565b6040805191829003822060208301939093528101919091527fc89efdaa54c0f20c7adf612882df0950f5a951637e0307cdcb4c672f298b8bc660608201524660808201523060a082015260c00160405160208183030381529060405280519060200120905090565b8060025f828254620001849190620004fd565b90915550506001600160a01b0382165f818152600360209081526040808320805486019055518481527fddf252ad1be2c89b69c2b068fc378daa952ba7f163c4a11628f55a4df523b3ef910160405180910390a35050565b634e487b7160e01b5f52604160045260245ffd5b600181811c908216806200020557607f821691505b6020821081036200022457634e487b7160e01b5f52602260045260245ffd5b50919050565b601f8211156200027557805f5260205f20601f840160051c81016020851015620002515750805b601f840160051c820191505b8181101562000272575f81556001016200025d565b50505b505050565b81516001600160401b03811115620002965762000296620001dc565b620002ae81620002a78454620001f0565b846200022a565b602080601f831160018114620002e4575f8415620002cc5750858301515b5f19600386901b1c1916600185901b1785556200033e565b5f85815260208120601f198616915b828110156200031457888601518255948401946001909101908401620002f3565b50858210156200033257878501515f19600388901b60f8161c191681555b505060018460011b0185555b505050505050565b634e487b7160e01b5f52601160045260245ffd5b600181815b808511156200039a57815f19048211156200037e576200037e62000346565b808516156200038c57918102915b93841c93908002906200035f565b509250929050565b5f82620003b2575060016200044f565b81620003c057505f6200044f565b8160018114620003d95760028114620003e45762000404565b60019150506200044f565b60ff841115620003f857620003f862000346565b50506001821b6200044f565b5060208310610133831016604e8410600b841016171562000429575081810a6200044f565b6200043583836200035a565b805f19048211156200044b576200044b62000346565b0290505b92915050565b5f620004628383620003a2565b9392505050565b80820281158282048414176200044f576200044f62000346565b5f8083546200049281620001f0565b60018281168015620004ad5760018114620004c357620004f1565b60ff1984168752821515830287019450620004f1565b875f526020805f205f5b85811015620004e85781548a820152908401908201620004cd565b50505082870194505b50929695505050505050565b808201808211156200044f576200044f62000346565b60805160a05160c0516110f36200053e5f395f6106d501525f6106a001525f61020b01526110f35ff3fe60806040526004361061013f575f3560e01c806370a08231116100b3578063a9059cbb1161006d578063a9059cbb14610390578063cd24b0a3146103af578063d505accf146103b7578063dd62ed3e146103d6578063f630319c1461040c578063fc0c546a14610437575f80fd5b806370a08231146102af578063750142e6146102da5780637ecebe00146102ef5780638da5cb5b1461031a5780639168ae721461035157806395d89b411461037c575f80fd5b8063313ce56711610104578063313ce567146101fa5780633296607f1461023f5780633455cf33146102545780633644e5151461026957806340c10f191461027d5780636198e3391461029c575f80fd5b806306fdde031461014a578063095ea7b314610174578063165defa4146101a357806318160ddd146101c657806323b872dd146101db575f80fd5b3661014657005b5f80fd5b348015610155575f80fd5b5061015e610456565b60405161016b9190610d95565b60405180910390f35b34801561017f575f80fd5b5061019361018e366004610dfc565b6104e1565b604051901515815260200161016b565b3480156101ae575f80fd5b506101b860095481565b60405190815260200161016b565b3480156101d1575f80fd5b506101b860025481565b3480156101e6575f80fd5b506101936101f5366004610e24565b61054d565b348015610205575f80fd5b5061022d7f000000000000000000000000000000000000000000000000000000000000000081565b60405160ff909116815260200161016b565b34801561024a575f80fd5b506101b8600a5481565b610267610262366004610e5d565b61063a565b005b348015610274575f80fd5b506101b861069d565b348015610288575f80fd5b50610267610297366004610dfc565b6106f7565b6102676102aa366004610e5d565b610701565b3480156102ba575f80fd5b506101b86102c9366004610e74565b60036020525f908152604090205481565b3480156102e5575f80fd5b506101b860085481565b3480156102fa575f80fd5b506101b8610309366004610e74565b60056020525f908152604090205481565b348015610325575f80fd5b50600754610339906001600160a01b031681565b6040516001600160a01b03909116815260200161016b565b34801561035c575f80fd5b506101b861036b366004610e74565b600b6020525f908152604090205481565b348015610387575f80fd5b5061015e61088c565b34801561039b575f80fd5b506101936103aa366004610dfc565b610899565b61026761090f565b3480156103c2575f80fd5b506102676103d1366004610e94565b610a56565b3480156103e1575f80fd5b506101b86103f0366004610f01565b600460209081525f928352604080842090915290825290205481565b348015610417575f80fd5b506101b8610426366004610e74565b600c6020525f908152604090205481565b348015610442575f80fd5b50600654610339906001600160a01b031681565b5f805461046290610f32565b80601f016020809104026020016040519081016040528092919081815260200182805461048e90610f32565b80156104d95780601f106104b0576101008083540402835291602001916104d9565b820191905f5260205f20905b8154815290600101906020018083116104bc57829003601f168201915b505050505081565b335f8181526004602090815260408083206001600160a01b038716808552925280832085905551919290917f8c5be1e5ebec7d5bd14f71427d1e84f3dd0314c0f7b2291e5b200ac8c7c3b9259061053b9086815260200190565b60405180910390a35060015b92915050565b6001600160a01b0383165f9081526004602090815260408083203384529091528120545f1981146105a6576105828382610f7e565b6001600160a01b0386165f9081526004602090815260408083203384529091529020555b6001600160a01b0385165f90815260036020526040812080548592906105cd908490610f7e565b90915550506001600160a01b038085165f81815260036020526040908190208054870190555190918716907fddf252ad1be2c89b69c2b068fc378daa952ba7f163c4a11628f55a4df523b3ef906106279087815260200190565b60405180910390a3506001949350505050565b5f8111610645575f80fd5b335f908152600c60209081526040808320429055600b90915281208054839290610670908490610f91565b925050819055508060095f8282546106889190610f91565b90915550610699905033308361054d565b5050565b5f7f000000000000000000000000000000000000000000000000000000000000000046146106d2576106cd610c94565b905090565b507f000000000000000000000000000000000000000000000000000000000000000090565b6106998282610d2c565b335f908152600b60205260409020546107615760405162461bcd60e51b815260206004820152601c60248201527f796f7520646f206e6f742068617665206c6f636b656420636f696e730000000060448201526064015b60405180910390fd5b335f908152600c6020526040902054429061077f9062093a80610f91565b111561079d5760405162461bcd60e51b815260040161075890610fa4565b335f908152600b602052604090205481106108055760405162461bcd60e51b815260206004820152602260248201527f796f7520646f206e6f74206861766520746865206375727265637420616d6f756044820152611b9d60f21b6064820152608401610758565b5f6064600854836009546108199190610fe9565b610824906064610fe9565b61082e9190611008565b6108389190610fe9565b90506108443382610d2c565b61084e3383610899565b508160095f8282546108609190610f7e565b9091555050335f908152600b602052604081208054849290610883908490610f7e565b90915550505050565b6001805461046290610f32565b335f908152600360205260408120805483919083906108b9908490610f7e565b90915550506001600160a01b0383165f81815260036020526040908190208054850190555133907fddf252ad1be2c89b69c2b068fc378daa952ba7f163c4a11628f55a4df523b3ef9061053b9086815260200190565b335f908152600b602052604090205461096a5760405162461bcd60e51b815260206004820152601c60248201527f796f7520646f206e6f742068617665206c6f636b656420636f696e73000000006044820152606401610758565b335f908152600c602052604090205442906109889062093a80610f91565b11156109a65760405162461bcd60e51b815260040161075890610fa4565b600854335f908152600b6020526040812054600954919260649290916109cb91610fe9565b6109d6906064610fe9565b6109e09190611008565b6109ea9190610fe9565b90506109f63382610d2c565b335f818152600b6020526040902054610a0f9190610899565b50335f908152600b60205260408120546009805491929091610a32908490610f7e565b9091555050335f908152600b60209081526040808320839055600c90915281205550565b42841015610aa65760405162461bcd60e51b815260206004820152601760248201527f5045524d49545f444541444c494e455f455850495245440000000000000000006044820152606401610758565b5f6001610ab161069d565b6001600160a01b038a81165f8181526005602090815260409182902080546001810190915582517f6e71edae12b1b97f4d1f60370fef10105fa2faae0126114a169c64845d6126c98184015280840194909452938d166060840152608083018c905260a083019390935260c08083018b90528151808403909101815260e08301909152805192019190912061190160f01b6101008301526101028201929092526101228101919091526101420160408051601f1981840301815282825280516020918201205f84529083018083525260ff871690820152606081018590526080810184905260a0016020604051602081039080840390855afa158015610bb9573d5f803e3d5ffd5b5050604051601f1901519150506001600160a01b03811615801590610bef5750876001600160a01b0316816001600160a01b0316145b610c2c5760405162461bcd60e51b815260206004820152600e60248201526d24a72b20a624a22fa9a4a3a722a960911b6044820152606401610758565b6001600160a01b039081165f9081526004602090815260408083208a8516808552908352928190208990555188815291928a16917f8c5be1e5ebec7d5bd14f71427d1e84f3dd0314c0f7b2291e5b200ac8c7c3b925910160405180910390a350505050505050565b5f7f8b73c3c69bb8fe3d512ecc4cf759cc79239f7b179b0ffacaa9a75d522b39400f5f604051610cc4919061101f565b6040805191829003822060208301939093528101919091527fc89efdaa54c0f20c7adf612882df0950f5a951637e0307cdcb4c672f298b8bc660608201524660808201523060a082015260c00160405160208183030381529060405280519060200120905090565b8060025f828254610d3d9190610f91565b90915550506001600160a01b0382165f818152600360209081526040808320805486019055518481527fddf252ad1be2c89b69c2b068fc378daa952ba7f163c4a11628f55a4df523b3ef910160405180910390a35050565b5f602080835283518060208501525f5b81811015610dc157858101830151858201604001528201610da5565b505f604082860101526040601f19601f8301168501019250505092915050565b80356001600160a01b0381168114610df7575f80fd5b919050565b5f8060408385031215610e0d575f80fd5b610e1683610de1565b946020939093013593505050565b5f805f60608486031215610e36575f80fd5b610e3f84610de1565b9250610e4d60208501610de1565b9150604084013590509250925092565b5f60208284031215610e6d575f80fd5b5035919050565b5f60208284031215610e84575f80fd5b610e8d82610de1565b9392505050565b5f805f805f805f60e0888a031215610eaa575f80fd5b610eb388610de1565b9650610ec160208901610de1565b95506040880135945060608801359350608088013560ff81168114610ee4575f80fd5b9699959850939692959460a0840135945060c09093013592915050565b5f8060408385031215610f12575f80fd5b610f1b83610de1565b9150610f2960208401610de1565b90509250929050565b600181811c90821680610f4657607f821691505b602082108103610f6457634e487b7160e01b5f52602260045260245ffd5b50919050565b634e487b7160e01b5f52601160045260245ffd5b8181038181111561054757610547610f6a565b8082018082111561054757610547610f6a565b60208082526025908201527f796f7520617265206e6f7420656e7469746c656420746f2067657420612072656040820152641dd85c995960da1b606082015260800190565b5f8261100357634e487b7160e01b5f52601260045260245ffd5b500490565b808202811582820484141761054757610547610f6a565b5f8083545f60018260011c9150600183168061103c57607f831692505b6020808410820361105b57634e487b7160e01b5f52602260045260245ffd5b81801561106f5760018114611084576110af565b60ff19861689528415158502890196506110af565b5f8a8152602090205f5b868110156110a75781548b82015290850190830161108e565b505084890196505b50949897505050505050505056fea2646970667358221220d11c0e2798e8d7f52f4116303d79021464892dac5732f88cf6a944b3158a5d8c64736f6c63430008180033","linkReferences":{}},"methodIdentifiers":{"DOMAIN_SEPARATOR()":"3644e515","allowance(address,address)":"dd62ed3e","approve(address,uint256)":"095ea7b3","balanceOf(address)":"70a08231","beginDate()":"3296607f","dates(address)":"f630319c","decimals()":"313ce567","mint(address,uint256)":"40c10f19","name()":"06fdde03","nonces(address)":"7ecebe00","owner()":"8da5cb5b","permit(address,address,uint256,uint256,uint8,bytes32,bytes32)":"d505accf","stakeing(uint256)":"3455cf33","stakers(address)":"9168ae72","symbol()":"95d89b41","token()":"fc0c546a","totalReward()":"750142e6","totalStaking()":"165defa4","totalSupply()":"18160ddd","transfer(address,uint256)":"a9059cbb","transferFrom(address,address,uint256)":"23b872dd","unlock(uint256)":"6198e339","unlockAll()":"cd24b0a3"},"id":82}