{"abi":[{"type":"constructor","inputs":[{"name":"tokenDai","type":"address","internalType":"address"}],"stateMutability":"nonpayable"},{"type":"receive","stateMutability":"payable"},{"type":"function","name":"addCollateral","inputs":[],"outputs":[],"stateMutability":"payable"},{"type":"function","name":"allowance","inputs":[{"name":"owner","type":"address","internalType":"address"},{"name":"spender","type":"address","internalType":"address"}],"outputs":[{"name":"","type":"uint256","internalType":"uint256"}],"stateMutability":"view"},{"type":"function","name":"approve","inputs":[{"name":"spender","type":"address","internalType":"address"},{"name":"value","type":"uint256","internalType":"uint256"}],"outputs":[{"name":"","type":"bool","internalType":"bool"}],"stateMutability":"nonpayable"},{"type":"function","name":"balanceOf","inputs":[{"name":"account","type":"address","internalType":"address"}],"outputs":[{"name":"","type":"uint256","internalType":"uint256"}],"stateMutability":"view"},{"type":"function","name":"baseRate","inputs":[],"outputs":[{"name":"","type":"uint256","internalType":"uint256"}],"stateMutability":"view"},{"type":"function","name":"bond","inputs":[{"name":"amount","type":"uint256","internalType":"uint256"}],"outputs":[],"stateMutability":"nonpayable"},{"type":"function","name":"bondt","inputs":[],"outputs":[{"name":"","type":"address","internalType":"contract IERC20"}],"stateMutability":"view"},{"type":"function","name":"borrowDai","inputs":[{"name":"amount","type":"uint256","internalType":"uint256"}],"outputs":[],"stateMutability":"nonpayable"},{"type":"function","name":"borrowRate","inputs":[],"outputs":[{"name":"","type":"uint256","internalType":"uint256"}],"stateMutability":"view"},{"type":"function","name":"convert","inputs":[],"outputs":[],"stateMutability":"nonpayable"},{"type":"function","name":"dai","inputs":[],"outputs":[{"name":"","type":"address","internalType":"contract IERC20"}],"stateMutability":"view"},{"type":"function","name":"decimals","inputs":[],"outputs":[{"name":"","type":"uint8","internalType":"uint8"}],"stateMutability":"view"},{"type":"function","name":"getExchangeRate","inputs":[],"outputs":[{"name":"","type":"uint256","internalType":"uint256"}],"stateMutability":"view"},{"type":"function","name":"getLatestPrice","inputs":[],"outputs":[{"name":"","type":"int256","internalType":"int256"}],"stateMutability":"view"},{"type":"function","name":"harvest","inputs":[],"outputs":[],"stateMutability":"nonpayable"},{"type":"function","name":"maxLTV","inputs":[],"outputs":[{"name":"","type":"uint256","internalType":"uint256"}],"stateMutability":"view"},{"type":"function","name":"name","inputs":[],"outputs":[{"name":"","type":"string","internalType":"string"}],"stateMutability":"view"},{"type":"function","name":"removeCollateral","inputs":[{"name":"amount","type":"uint256","internalType":"uint256"}],"outputs":[],"stateMutability":"nonpayable"},{"type":"function","name":"repay","inputs":[{"name":"amount","type":"uint256","internalType":"uint256"}],"outputs":[],"stateMutability":"nonpayable"},{"type":"function","name":"symbol","inputs":[],"outputs":[{"name":"","type":"string","internalType":"string"}],"stateMutability":"view"},{"type":"function","name":"totalBorrowed","inputs":[],"outputs":[{"name":"","type":"uint256","internalType":"uint256"}],"stateMutability":"view"},{"type":"function","name":"totalCollateral","inputs":[],"outputs":[{"name":"","type":"uint256","internalType":"uint256"}],"stateMutability":"view"},{"type":"function","name":"totalDeposit","inputs":[],"outputs":[{"name":"","type":"uint256","internalType":"uint256"}],"stateMutability":"view"},{"type":"function","name":"totalReserve","inputs":[],"outputs":[{"name":"","type":"uint256","internalType":"uint256"}],"stateMutability":"view"},{"type":"function","name":"totalSupply","inputs":[],"outputs":[{"name":"","type":"uint256","internalType":"uint256"}],"stateMutability":"view"},{"type":"function","name":"transfer","inputs":[{"name":"to","type":"address","internalType":"address"},{"name":"value","type":"uint256","internalType":"uint256"}],"outputs":[{"name":"","type":"bool","internalType":"bool"}],"stateMutability":"nonpayable"},{"type":"function","name":"transferFrom","inputs":[{"name":"from","type":"address","internalType":"address"},{"name":"to","type":"address","internalType":"address"},{"name":"value","type":"uint256","internalType":"uint256"}],"outputs":[{"name":"","type":"bool","internalType":"bool"}],"stateMutability":"nonpayable"},{"type":"function","name":"triggerLiquidation","inputs":[{"name":"user","type":"address","internalType":"address"}],"outputs":[],"stateMutability":"nonpayable"},{"type":"function","name":"unbond","inputs":[{"name":"amount","type":"uint256","internalType":"uint256"}],"outputs":[],"stateMutability":"nonpayable"},{"type":"function","name":"uniswapRouter","inputs":[],"outputs":[{"name":"","type":"address","internalType":"contract IUniswapRouter"}],"stateMutability":"view"},{"type":"event","name":"Approval","inputs":[{"name":"owner","type":"address","indexed":true,"internalType":"address"},{"name":"spender","type":"address","indexed":true,"internalType":"address"},{"name":"value","type":"uint256","indexed":false,"internalType":"uint256"}],"anonymous":false},{"type":"event","name":"Transfer","inputs":[{"name":"from","type":"address","indexed":true,"internalType":"address"},{"name":"to","type":"address","indexed":true,"internalType":"address"},{"name":"value","type":"uint256","indexed":false,"internalType":"uint256"}],"anonymous":false},{"type":"error","name":"ERC20InsufficientAllowance","inputs":[{"name":"spender","type":"address","internalType":"address"},{"name":"allowance","type":"uint256","internalType":"uint256"},{"name":"needed","type":"uint256","internalType":"uint256"}]},{"type":"error","name":"ERC20InsufficientBalance","inputs":[{"name":"sender","type":"address","internalType":"address"},{"name":"balance","type":"uint256","internalType":"uint256"},{"name":"needed","type":"uint256","internalType":"uint256"}]},{"type":"error","name":"ERC20InvalidApprover","inputs":[{"name":"approver","type":"address","internalType":"address"}]},{"type":"error","name":"ERC20InvalidReceiver","inputs":[{"name":"receiver","type":"address","internalType":"address"}]},{"type":"error","name":"ERC20InvalidSender","inputs":[{"name":"sender","type":"address","internalType":"address"}]},{"type":"error","name":"ERC20InvalidSpender","inputs":[{"name":"spender","type":"address","internalType":"address"}]}],"bytecode":{"object":"0x6080604052600460065566470de4df820000600b55670429d069189e0000600c553480156200002c575f80fd5b506040516200189c3803806200189c8339810160408190526200004f91620000eb565b6040518060400160405280600a8152602001693137b732103a37b5b2b760b11b81525060405180604001604052806002815260200161189d60f21b81525081600390816200009e9190620001b8565b506004620000ad8282620001b8565b5050601080546001600160a01b039093166001600160a01b0319938416811790915560058054841682179055600d8054909316179091555062000284565b5f60208284031215620000fc575f80fd5b81516001600160a01b038116811462000113575f80fd5b9392505050565b634e487b7160e01b5f52604160045260245ffd5b600181811c908216806200014357607f821691505b6020821081036200016257634e487b7160e01b5f52602260045260245ffd5b50919050565b601f821115620001b357805f5260205f20601f840160051c810160208510156200018f5750805b601f840160051c820191505b81811015620001b0575f81556001016200019b565b50505b505050565b81516001600160401b03811115620001d457620001d46200011a565b620001ec81620001e584546200012e565b8462000168565b602080601f83116001811462000222575f84156200020a5750858301515b5f19600386901b1c1916600185901b1785556200027c565b5f85815260208120601f198616915b82811015620002525788860151825594840194600190910190840162000231565b50858210156200027057878501515f19600388901b60f8161c191681555b505060018460011b0185555b505050505050565b61160a80620002925f395ff3fe6080604052600436106101c8575f3560e01c8063735de9f7116100f2578063a9059cbb11610092578063e6aa216c11610062578063e6aa216c146104d1578063f384bd05146104e5578063f4b9fa75146104fa578063f6153ccd14610519575f80fd5b8063a9059cbb1461043a578063b350df5d14610459578063c914b43714610478578063dd62ed3e1461048d575f80fd5b806391bbdcc7116100cd57806391bbdcc7146102f857806395d89b41146103ff5780639940686e146104135780639e81699914610432575f80fd5b8063735de9f714610395578063843e4fef146103cc5780638e15f473146103eb575f80fd5b80633237c158116101685780634ac8eb5f116101385780634ac8eb5f146103225780634c19386c146103375780634c68df671461034c57806370a0823114610361575f80fd5b80633237c158146102ba578063371fd8e6146102d95780634641257d146102f857806346af1cc514610303575f80fd5b80631f68f20a116101a35780631f68f20a1461024a57806323b872dd1461025f57806327de9e321461027e578063313ce5671461029f575f80fd5b806306fdde03146101d3578063095ea7b3146101fd57806318160ddd1461022c575f80fd5b366101cf57005b5f80fd5b3480156101de575f80fd5b506101e761052e565b6040516101f4919061130a565b60405180910390f35b348015610208575f80fd5b5061021c610217366004611371565b6105be565b60405190151581526020016101f4565b348015610237575f80fd5b506002545b6040519081526020016101f4565b348015610255575f80fd5b5061023c600b5481565b34801561026a575f80fd5b5061021c610279366004611399565b6105d7565b348015610289575f80fd5b5061029d6102983660046113d2565b6105fa565b005b3480156102aa575f80fd5b50604051601281526020016101f4565b3480156102c5575f80fd5b5061029d6102d43660046113d2565b610719565b3480156102e4575f80fd5b5061029d6102f33660046113d2565b610878565b34801561029d575f80fd5b34801561030e575f80fd5b5061029d61031d3660046113d2565b61098d565b34801561032d575f80fd5b5061023c60095481565b348015610342575f80fd5b5061023c60085481565b348015610357575f80fd5b5061023c600a5481565b34801561036c575f80fd5b5061023c61037b3660046113e9565b6001600160a01b03165f9081526020819052604090205490565b3480156103a0575f80fd5b50600d546103b4906001600160a01b031681565b6040516001600160a01b0390911681526020016101f4565b3480156103d7575f80fd5b506011546103b4906001600160a01b031681565b3480156103f6575f80fd5b5061023c610b12565b34801561040a575f80fd5b506101e7610ba5565b34801561041e575f80fd5b5061029d61042d3660046113d2565b610bb4565b61029d610d29565b348015610445575f80fd5b5061021c610454366004611371565b610d71565b348015610464575f80fd5b5061029d6104733660046113e9565b610d7e565b348015610483575f80fd5b5061023c600c5481565b348015610498575f80fd5b5061023c6104a7366004611409565b6001600160a01b039182165f90815260016020908152604080832093909416825291909152205490565b3480156104dc575f80fd5b5061023c610dcf565b3480156104f0575f80fd5b5061023c60065481565b348015610505575f80fd5b506010546103b4906001600160a01b031681565b348015610524575f80fd5b5061023c60075481565b60606003805461053d9061143a565b80601f01602080910402602001604051908101604052809291908181526020018280546105699061143a565b80156105b45780601f1061058b576101008083540402835291602001916105b4565b820191905f5260205f20905b81548152906001019060200180831161059757829003601f168201915b5050505050905090565b5f336105cb818585610e31565b60019150505b92915050565b5f336105e4858285610e43565b6105ef858585610ebe565b506001949350505050565b5f8111610605575f80fd5b335f908152602081905260409020548111156106685760405162461bcd60e51b815260206004820152601d60248201527f796f7520646f206e6f74206861766520656e6f75676820746f6b656e7300000060448201526064015b60405180910390fd5b6010546040516323b872dd60e01b8152306004820152336024820152604481018390526001600160a01b03909116906323b872dd906064016020604051808303815f875af11580156106bc573d5f803e3d5ffd5b505050506040513d601f19601f820116820180604052508101906106e09190611472565b505f6106f3826106ee610dcf565b610f1b565b90506106ff3382610fa6565b8160075f82825461071091906114a5565b90915550505050565b5f8111610724575f80fd5b335f908152600e602052604090205461077f5760405162461bcd60e51b815260206004820152601f60248201527f796f7520646f206e6f74206861766520616e7920636f6c6c61746572616c7300604482015260640161065f565b335f908152600f6020908152604080832054600e9092528220549091826107a883610b54610f1b565b6107b291906114a5565b90505f6107c185610b54610f1b565b905081811061080b5760405162461bcd60e51b81526020600482015260166024820152750f2deea40c8de40dcdee840d0c2ecca40cadcdeeaced60531b604482015260640161065f565b335f908152600e6020526040812080548792906108299084906114a5565b925050819055508460095f82825461084191906114a5565b9091555050604051339086156108fc029087905f818181858888f19350505050158015610870573d5f803e3d5ffd5b505050505050565b335f908152600f60205260409020546108d35760405162461bcd60e51b815260206004820152601860248201527f796f7520646f206e6f74206861766520616e7920646570740000000000000000604482015260640161065f565b5f6108e2600854600754610fda565b90505f6108fe600b54600c546108f891906114a5565b83610fda565b90505f600b5461090e8484610f1b565b61091891906114b8565b90505f61092582866114cb565b90505f61093282876114a5565b905081600a5f82825461094591906114b8565b9091555050335f908152600f6020526040812080548392906109689084906114a5565b925050819055508060085f82825461098091906114a5565b9091555050505050505050565b335f908152600e60205260409020546109e85760405162461bcd60e51b815260206004820152601f60248201527f796f7520646f206e6f74206861766520616e7920636f6c6c61746572616c7300604482015260640161065f565b335f908152600f6020908152604080832054600e909252822054909182610a11836106ee610b12565b610a1b91906114a5565b90505f610a2a8260065461102d565b905084811015610a7c5760405162461bcd60e51b815260206004820152601960248201527f796f752063616e6e6f74207061737320746865206c696d697400000000000000604482015260640161065f565b6010546040516323b872dd60e01b8152306004820152336024820152604481018790526001600160a01b03909116906323b872dd906064016020604051808303815f875af1158015610ad0573d5f803e3d5ffd5b505050506040513d601f19601f82011682018060405250810190610af49190611472565b508460085f828254610b0691906114b8565b90915550505050505050565b5f8060055f9054906101000a90046001600160a01b03166001600160a01b031663feaf968c6040518163ffffffff1660e01b815260040160a060405180830381865afa158015610b64573d5f803e3d5ffd5b505050506040513d601f19601f82011682018060405250810190610b8891906114fb565b505050915050806402540be400610b9f9190611547565b91505090565b60606004805461053d9061143a565b5f8111610bbf575f80fd5b6010546040516370a0823160e01b815233600482015282916001600160a01b0316906370a0823190602401602060405180830381865afa158015610c05573d5f803e3d5ffd5b505050506040513d601f19601f82011682018060405250810190610c299190611576565b1015610c775760405162461bcd60e51b815260206004820152601f60248201527f796f7520646f206e6f74206861766520656e6f7567682062616c6c616e636500604482015260640161065f565b6010546040516323b872dd60e01b8152336004820152306024820152604481018390526001600160a01b03909116906323b872dd906064016020604051808303815f875af1158015610ccb573d5f803e3d5ffd5b505050506040513d601f19601f82011682018060405250810190610cef9190611472565b508060075f828254610d0191906114b8565b909155505f9050610d1982610d14610dcf565b610fda565b9050610d25338261104e565b5050565b5f3411610d34575f80fd5b335f908152600e602052604081208054349290610d529084906114b8565b925050819055503460095f828254610d6a91906114b8565b9091555050565b5f336105cb818585610ebe565b6001600160a01b0381165f908152600f6020908152604080832054600e909252822054909182610db083610b54610f1b565b610dba91906114a5565b9050610dc88160065461102d565b5050505050565b5f610dd960025490565b5f03610dec5750670de0b6b3a764000090565b5f600854600754610dfd91906114a5565b90505f600a5460085483610e1191906114b8565b610e1b91906114b8565b9050610e2a81610d1460025490565b9250505090565b610e3e8383836001611082565b505050565b6001600160a01b038381165f908152600160209081526040808320938616835292905220545f198114610eb85781811015610eaa57604051637dc7a0d960e11b81526001600160a01b0384166004820152602481018290526044810183905260640161065f565b610eb884848484035f611082565b50505050565b6001600160a01b038316610ee757604051634b637e8f60e11b81525f600482015260240161065f565b6001600160a01b038216610f105760405163ec442f0560e01b81525f600482015260240161065f565b610e3e838383611154565b5f8080610f28858561127a565b9150915081610f3b575f925050506105d1565b5f80610f5a83610f546002670de0b6b3a76400006115a1565b906112c1565b9150915081610f6f575f9450505050506105d1565b5f80610f8383670de0b6b3a76400006112da565b9092509050600182151514610f9a57610f9a6115c0565b98975050505050505050565b6001600160a01b038216610fcf57604051634b637e8f60e11b81525f600482015260240161065f565b610d25825f83611154565b5f8080610fef85670de0b6b3a764000061127a565b9150915081611002575f925050506105d1565b5f8061100e83876112da565b9150915081611023575f9450505050506105d1565b9695505050505050565b5f8061103a846005610fda565b90506110468184610f1b565b949350505050565b6001600160a01b0382166110775760405163ec442f0560e01b81525f600482015260240161065f565b610d255f8383611154565b6001600160a01b0384166110ab5760405163e602df0560e01b81525f600482015260240161065f565b6001600160a01b0383166110d457604051634a1406b160e11b81525f600482015260240161065f565b6001600160a01b038085165f9081526001602090815260408083209387168352929052208290558015610eb857826001600160a01b0316846001600160a01b03167f8c5be1e5ebec7d5bd14f71427d1e84f3dd0314c0f7b2291e5b200ac8c7c3b9258460405161114691815260200190565b60405180910390a350505050565b6001600160a01b03831661117e578060025f82825461117391906114b8565b909155506111ee9050565b6001600160a01b0383165f90815260208190526040902054818110156111d05760405163391434e360e21b81526001600160a01b0385166004820152602481018290526044810183905260640161065f565b6001600160a01b0384165f9081526020819052604090209082900390555b6001600160a01b03821661120a57600280548290039055611228565b6001600160a01b0382165f9081526020819052604090208054820190555b816001600160a01b0316836001600160a01b03167fddf252ad1be2c89b69c2b068fc378daa952ba7f163c4a11628f55a4df523b3ef8360405161126d91815260200190565b60405180910390a3505050565b5f80835f0361128e5750600190505f6112ba565b838302838582816112a1576112a161158d565b04146112b3575f8092509250506112ba565b6001925090505b9250929050565b5f80838301848110156112b3575f8092509250506112ba565b5f80825f036112ed57505f9050806112ba565b60018385816112fe576112fe61158d565b04915091509250929050565b5f602080835283518060208501525f5b818110156113365785810183015185820160400152820161131a565b505f604082860101526040601f19601f8301168501019250505092915050565b80356001600160a01b038116811461136c575f80fd5b919050565b5f8060408385031215611382575f80fd5b61138b83611356565b946020939093013593505050565b5f805f606084860312156113ab575f80fd5b6113b484611356565b92506113c260208501611356565b9150604084013590509250925092565b5f602082840312156113e2575f80fd5b5035919050565b5f602082840312156113f9575f80fd5b61140282611356565b9392505050565b5f806040838503121561141a575f80fd5b61142383611356565b915061143160208401611356565b90509250929050565b600181811c9082168061144e57607f821691505b60208210810361146c57634e487b7160e01b5f52602260045260245ffd5b50919050565b5f60208284031215611482575f80fd5b81518015158114611402575f80fd5b634e487b7160e01b5f52601160045260245ffd5b818103818111156105d1576105d1611491565b808201808211156105d1576105d1611491565b80820281158282048414176105d1576105d1611491565b805169ffffffffffffffffffff8116811461136c575f80fd5b5f805f805f60a0868803121561150f575f80fd5b611518866114e2565b945060208601519350604086015192506060860151915061153b608087016114e2565b90509295509295909350565b8082025f8212600160ff1b8414161561156257611562611491565b81810583148215176105d1576105d1611491565b5f60208284031215611586575f80fd5b5051919050565b634e487b7160e01b5f52601260045260245ffd5b5f826115bb57634e487b7160e01b5f52601260045260245ffd5b500490565b634e487b7160e01b5f52600160045260245ffdfea26469706673582212202b289f0077eeb63b402d449ed1019ee35d6494464ff12dcfbf1a96b85b7a6a5664736f6c63430008180033","linkReferences":{}},"methodIdentifiers":{"addCollateral()":"9e816999","allowance(address,address)":"dd62ed3e","approve(address,uint256)":"095ea7b3","balanceOf(address)":"70a08231","baseRate()":"1f68f20a","bond(uint256)":"9940686e","bondt()":"843e4fef","borrowDai(uint256)":"46af1cc5","borrowRate()":"c914b437","convert()":"91bbdcc7","dai()":"f4b9fa75","decimals()":"313ce567","getExchangeRate()":"e6aa216c","getLatestPrice()":"8e15f473","harvest()":"4641257d","maxLTV()":"f384bd05","name()":"06fdde03","removeCollateral(uint256)":"3237c158","repay(uint256)":"371fd8e6","symbol()":"95d89b41","totalBorrowed()":"4c19386c","totalCollateral()":"4ac8eb5f","totalDeposit()":"f6153ccd","totalReserve()":"4c68df67","totalSupply()":"18160ddd","transfer(address,uint256)":"a9059cbb","transferFrom(address,address,uint256)":"23b872dd","triggerLiquidation(address)":"b350df5d","unbond(uint256)":"27de9e32","uniswapRouter()":"735de9f7"},"id":73}