{"abi":[{"type":"constructor","inputs":[{"name":"tokenDai","type":"address","internalType":"address"}],"stateMutability":"nonpayable"},{"type":"receive","stateMutability":"payable"},{"type":"function","name":"addCollateral","inputs":[],"outputs":[],"stateMutability":"payable"},{"type":"function","name":"allowance","inputs":[{"name":"owner","type":"address","internalType":"address"},{"name":"spender","type":"address","internalType":"address"}],"outputs":[{"name":"","type":"uint256","internalType":"uint256"}],"stateMutability":"view"},{"type":"function","name":"approve","inputs":[{"name":"spender","type":"address","internalType":"address"},{"name":"value","type":"uint256","internalType":"uint256"}],"outputs":[{"name":"","type":"bool","internalType":"bool"}],"stateMutability":"nonpayable"},{"type":"function","name":"balanceOf","inputs":[{"name":"account","type":"address","internalType":"address"}],"outputs":[{"name":"","type":"uint256","internalType":"uint256"}],"stateMutability":"view"},{"type":"function","name":"baseRate","inputs":[],"outputs":[{"name":"","type":"uint256","internalType":"uint256"}],"stateMutability":"view"},{"type":"function","name":"bond","inputs":[{"name":"amount","type":"uint256","internalType":"uint256"}],"outputs":[],"stateMutability":"nonpayable"},{"type":"function","name":"borrowDai","inputs":[{"name":"amount","type":"uint256","internalType":"uint256"}],"outputs":[],"stateMutability":"nonpayable"},{"type":"function","name":"borrowRate","inputs":[],"outputs":[{"name":"","type":"uint256","internalType":"uint256"}],"stateMutability":"view"},{"type":"function","name":"convert","inputs":[],"outputs":[],"stateMutability":"nonpayable"},{"type":"function","name":"dai","inputs":[],"outputs":[{"name":"","type":"address","internalType":"contract IERC20"}],"stateMutability":"view"},{"type":"function","name":"decimals","inputs":[],"outputs":[{"name":"","type":"uint8","internalType":"uint8"}],"stateMutability":"view"},{"type":"function","name":"getExchangeRate","inputs":[],"outputs":[{"name":"","type":"uint256","internalType":"uint256"}],"stateMutability":"view"},{"type":"function","name":"harvest","inputs":[],"outputs":[],"stateMutability":"nonpayable"},{"type":"function","name":"maxLTV","inputs":[],"outputs":[{"name":"","type":"uint256","internalType":"uint256"}],"stateMutability":"view"},{"type":"function","name":"name","inputs":[],"outputs":[{"name":"","type":"string","internalType":"string"}],"stateMutability":"view"},{"type":"function","name":"removeCollateral","inputs":[{"name":"amount","type":"uint256","internalType":"uint256"}],"outputs":[],"stateMutability":"nonpayable"},{"type":"function","name":"repay","inputs":[{"name":"amount","type":"uint256","internalType":"uint256"}],"outputs":[],"stateMutability":"nonpayable"},{"type":"function","name":"symbol","inputs":[],"outputs":[{"name":"","type":"string","internalType":"string"}],"stateMutability":"view"},{"type":"function","name":"totalBorrowed","inputs":[],"outputs":[{"name":"","type":"uint256","internalType":"uint256"}],"stateMutability":"view"},{"type":"function","name":"totalCollateral","inputs":[],"outputs":[{"name":"","type":"uint256","internalType":"uint256"}],"stateMutability":"view"},{"type":"function","name":"totalDeposit","inputs":[],"outputs":[{"name":"","type":"uint256","internalType":"uint256"}],"stateMutability":"view"},{"type":"function","name":"totalReserve","inputs":[],"outputs":[{"name":"","type":"uint256","internalType":"uint256"}],"stateMutability":"view"},{"type":"function","name":"totalSupply","inputs":[],"outputs":[{"name":"","type":"uint256","internalType":"uint256"}],"stateMutability":"view"},{"type":"function","name":"transfer","inputs":[{"name":"to","type":"address","internalType":"address"},{"name":"value","type":"uint256","internalType":"uint256"}],"outputs":[{"name":"","type":"bool","internalType":"bool"}],"stateMutability":"nonpayable"},{"type":"function","name":"transferFrom","inputs":[{"name":"from","type":"address","internalType":"address"},{"name":"to","type":"address","internalType":"address"},{"name":"value","type":"uint256","internalType":"uint256"}],"outputs":[{"name":"","type":"bool","internalType":"bool"}],"stateMutability":"nonpayable"},{"type":"function","name":"trigger","inputs":[{"name":"user","type":"address","internalType":"address"}],"outputs":[],"stateMutability":"nonpayable"},{"type":"function","name":"unbond","inputs":[{"name":"amount","type":"uint256","internalType":"uint256"}],"outputs":[],"stateMutability":"nonpayable"},{"type":"event","name":"Approval","inputs":[{"name":"owner","type":"address","indexed":true,"internalType":"address"},{"name":"spender","type":"address","indexed":true,"internalType":"address"},{"name":"value","type":"uint256","indexed":false,"internalType":"uint256"}],"anonymous":false},{"type":"event","name":"Transfer","inputs":[{"name":"from","type":"address","indexed":true,"internalType":"address"},{"name":"to","type":"address","indexed":true,"internalType":"address"},{"name":"value","type":"uint256","indexed":false,"internalType":"uint256"}],"anonymous":false},{"type":"error","name":"ERC20InsufficientAllowance","inputs":[{"name":"spender","type":"address","internalType":"address"},{"name":"allowance","type":"uint256","internalType":"uint256"},{"name":"needed","type":"uint256","internalType":"uint256"}]},{"type":"error","name":"ERC20InsufficientBalance","inputs":[{"name":"sender","type":"address","internalType":"address"},{"name":"balance","type":"uint256","internalType":"uint256"},{"name":"needed","type":"uint256","internalType":"uint256"}]},{"type":"error","name":"ERC20InvalidApprover","inputs":[{"name":"approver","type":"address","internalType":"address"}]},{"type":"error","name":"ERC20InvalidReceiver","inputs":[{"name":"receiver","type":"address","internalType":"address"}]},{"type":"error","name":"ERC20InvalidSender","inputs":[{"name":"sender","type":"address","internalType":"address"}]},{"type":"error","name":"ERC20InvalidSpender","inputs":[{"name":"spender","type":"address","internalType":"address"}]}],"bytecode":{"object":"0x6080604052600460055566470de4df820000600a55670429d069189e0000600b553480156200002c575f80fd5b506040516200168c3803806200168c8339810160408190526200004f91620000d7565b6040518060400160405280600a8152602001693137b732103a37b5b2b760b11b81525060405180604001604052806002815260200161189d60f21b81525081600390816200009e9190620001a4565b506004620000ad8282620001a4565b5050600e80546001600160a01b0319166001600160a01b0393909316929092179091555062000270565b5f60208284031215620000e8575f80fd5b81516001600160a01b0381168114620000ff575f80fd5b9392505050565b634e487b7160e01b5f52604160045260245ffd5b600181811c908216806200012f57607f821691505b6020821081036200014e57634e487b7160e01b5f52602260045260245ffd5b50919050565b601f8211156200019f57805f5260205f20601f840160051c810160208510156200017b5750805b601f840160051c820191505b818110156200019c575f815560010162000187565b50505b505050565b81516001600160401b03811115620001c057620001c062000106565b620001d881620001d184546200011a565b8462000154565b602080601f8311600181146200020e575f8415620001f65750858301515b5f19600386901b1c1916600185901b17855562000268565b5f85815260208120601f198616915b828110156200023e578886015182559484019460019091019084016200021d565b50858210156200025c57878501515f19600388901b60f8161c191681555b505060018460011b0185555b505050505050565b61140e806200027e5f395ff3fe608060405260043610610198575f3560e01c80634c68df67116100e7578063a9059cbb11610087578063e6aa216c11610062578063e6aa216c14610435578063f384bd0514610449578063f4b9fa751461045e578063f6153ccd14610495575f80fd5b8063a9059cbb146103bd578063c914b437146103dc578063dd62ed3e146103f1575f80fd5b806391bbdcc7116100c257806391bbdcc7146102c857806395d89b41146103825780639940686e146103965780639e816999146103b5575f80fd5b80634c68df671461031c5780636f6ff4051461033157806370a082311461034e575f80fd5b8063313ce567116101525780634641257d1161012d5780634641257d146102c857806346af1cc5146102d35780634ac8eb5f146102f25780634c19386c14610307575f80fd5b8063313ce5671461026f5780633237c1581461028a578063371fd8e6146102a9575f80fd5b806306fdde03146101a3578063095ea7b3146101cd57806318160ddd146101fc5780631f68f20a1461021a57806323b872dd1461022f57806327de9e321461024e575f80fd5b3661019f57005b5f80fd5b3480156101ae575f80fd5b506101b76104aa565b6040516101c491906111a2565b60405180910390f35b3480156101d8575f80fd5b506101ec6101e7366004611209565b61053a565b60405190151581526020016101c4565b348015610207575f80fd5b506002545b6040519081526020016101c4565b348015610225575f80fd5b5061020c600a5481565b34801561023a575f80fd5b506101ec610249366004611231565b610553565b348015610259575f80fd5b5061026d61026836600461126a565b610576565b005b34801561027a575f80fd5b50604051601281526020016101c4565b348015610295575f80fd5b5061026d6102a436600461126a565b610695565b3480156102b4575f80fd5b5061026d6102c336600461126a565b6107f4565b34801561026d575f80fd5b3480156102de575f80fd5b5061026d6102ed36600461126a565b610909565b3480156102fd575f80fd5b5061020c60085481565b348015610312575f80fd5b5061020c60075481565b348015610327575f80fd5b5061020c60095481565b34801561033c575f80fd5b5061026d61034b366004611281565b50565b348015610359575f80fd5b5061020c610368366004611281565b6001600160a01b03165f9081526020819052604090205490565b34801561038d575f80fd5b506101b7610a8e565b3480156103a1575f80fd5b5061026d6103b036600461126a565b610a9d565b61026d610c12565b3480156103c8575f80fd5b506101ec6103d7366004611209565b610c5a565b3480156103e7575f80fd5b5061020c600b5481565b3480156103fc575f80fd5b5061020c61040b3660046112a1565b6001600160a01b039182165f90815260016020908152604080832093909416825291909152205490565b348015610440575f80fd5b5061020c610c67565b348015610454575f80fd5b5061020c60055481565b348015610469575f80fd5b50600e5461047d906001600160a01b031681565b6040516001600160a01b0390911681526020016101c4565b3480156104a0575f80fd5b5061020c60065481565b6060600380546104b9906112d2565b80601f01602080910402602001604051908101604052809291908181526020018280546104e5906112d2565b80156105305780601f1061050757610100808354040283529160200191610530565b820191905f5260205f20905b81548152906001019060200180831161051357829003601f168201915b5050505050905090565b5f33610547818585610cc9565b60019150505b92915050565b5f33610560858285610cdb565b61056b858585610d56565b506001949350505050565b5f8111610581575f80fd5b335f908152602081905260409020548111156105e45760405162461bcd60e51b815260206004820152601d60248201527f796f7520646f206e6f74206861766520656e6f75676820746f6b656e7300000060448201526064015b60405180910390fd5b600e546040516323b872dd60e01b8152306004820152336024820152604481018390526001600160a01b03909116906323b872dd906064016020604051808303815f875af1158015610638573d5f803e3d5ffd5b505050506040513d601f19601f8201168201806040525081019061065c919061130a565b505f61066f8261066a610c67565b610db3565b905061067b3382610e3e565b8160065f82825461068c919061133d565b90915550505050565b5f81116106a0575f80fd5b335f908152600c60205260409020546106fb5760405162461bcd60e51b815260206004820152601f60248201527f796f7520646f206e6f74206861766520616e7920636f6c6c61746572616c730060448201526064016105db565b335f908152600d6020908152604080832054600c90925282205490918261072483610b54610db3565b61072e919061133d565b90505f61073d85610b54610db3565b90508181106107875760405162461bcd60e51b81526020600482015260166024820152750f2deea40c8de40dcdee840d0c2ecca40cadcdeeaced60531b60448201526064016105db565b335f908152600c6020526040812080548792906107a590849061133d565b925050819055508460085f8282546107bd919061133d565b9091555050604051339086156108fc029087905f818181858888f193505050501580156107ec573d5f803e3d5ffd5b505050505050565b335f908152600d602052604090205461084f5760405162461bcd60e51b815260206004820152601860248201527f796f7520646f206e6f74206861766520616e792064657074000000000000000060448201526064016105db565b5f61085e600754600654610e72565b90505f61087a600a54600b54610874919061133d565b83610e72565b90505f600a5461088a8484610db3565b6108949190611350565b90505f6108a18286611363565b90505f6108ae828761133d565b90508160095f8282546108c19190611350565b9091555050335f908152600d6020526040812080548392906108e490849061133d565b925050819055508060075f8282546108fc919061133d565b9091555050505050505050565b335f908152600c60205260409020546109645760405162461bcd60e51b815260206004820152601f60248201527f796f7520646f206e6f74206861766520616e7920636f6c6c61746572616c730060448201526064016105db565b335f908152600d6020908152604080832054600c90925282205490918261098d83610b54610db3565b610997919061133d565b90505f6109a682600554610ec5565b9050848110156109f85760405162461bcd60e51b815260206004820152601960248201527f796f752063616e6e6f74207061737320746865206c696d69740000000000000060448201526064016105db565b600e546040516323b872dd60e01b8152306004820152336024820152604481018790526001600160a01b03909116906323b872dd906064016020604051808303815f875af1158015610a4c573d5f803e3d5ffd5b505050506040513d601f19601f82011682018060405250810190610a70919061130a565b508460075f828254610a829190611350565b90915550505050505050565b6060600480546104b9906112d2565b5f8111610aa8575f80fd5b600e546040516370a0823160e01b815233600482015282916001600160a01b0316906370a0823190602401602060405180830381865afa158015610aee573d5f803e3d5ffd5b505050506040513d601f19601f82011682018060405250810190610b12919061137a565b1015610b605760405162461bcd60e51b815260206004820152601f60248201527f796f7520646f206e6f74206861766520656e6f7567682062616c6c616e63650060448201526064016105db565b600e546040516323b872dd60e01b8152336004820152306024820152604481018390526001600160a01b03909116906323b872dd906064016020604051808303815f875af1158015610bb4573d5f803e3d5ffd5b505050506040513d601f19601f82011682018060405250810190610bd8919061130a565b508060065f828254610bea9190611350565b909155505f9050610c0282610bfd610c67565b610e72565b9050610c0e3382610ee6565b5050565b5f3411610c1d575f80fd5b335f908152600c602052604081208054349290610c3b908490611350565b925050819055503460085f828254610c539190611350565b9091555050565b5f33610547818585610d56565b5f610c7160025490565b5f03610c845750670de0b6b3a764000090565b5f600754600654610c95919061133d565b90505f60095460075483610ca99190611350565b610cb39190611350565b9050610cc281610bfd60025490565b9250505090565b610cd68383836001610f1a565b505050565b6001600160a01b038381165f908152600160209081526040808320938616835292905220545f198114610d505781811015610d4257604051637dc7a0d960e11b81526001600160a01b038416600482015260248101829052604481018390526064016105db565b610d5084848484035f610f1a565b50505050565b6001600160a01b038316610d7f57604051634b637e8f60e11b81525f60048201526024016105db565b6001600160a01b038216610da85760405163ec442f0560e01b81525f60048201526024016105db565b610cd6838383610fec565b5f8080610dc08585611112565b9150915081610dd3575f9250505061054d565b5f80610df283610dec6002670de0b6b3a76400006113a5565b90611159565b9150915081610e07575f94505050505061054d565b5f80610e1b83670de0b6b3a7640000611172565b9092509050600182151514610e3257610e326113c4565b98975050505050505050565b6001600160a01b038216610e6757604051634b637e8f60e11b81525f60048201526024016105db565b610c0e825f83610fec565b5f8080610e8785670de0b6b3a7640000611112565b9150915081610e9a575f9250505061054d565b5f80610ea68387611172565b9150915081610ebb575f94505050505061054d565b9695505050505050565b5f80610ed2846005610e72565b9050610ede8184610db3565b949350505050565b6001600160a01b038216610f0f5760405163ec442f0560e01b81525f60048201526024016105db565b610c0e5f8383610fec565b6001600160a01b038416610f435760405163e602df0560e01b81525f60048201526024016105db565b6001600160a01b038316610f6c57604051634a1406b160e11b81525f60048201526024016105db565b6001600160a01b038085165f9081526001602090815260408083209387168352929052208290558015610d5057826001600160a01b0316846001600160a01b03167f8c5be1e5ebec7d5bd14f71427d1e84f3dd0314c0f7b2291e5b200ac8c7c3b92584604051610fde91815260200190565b60405180910390a350505050565b6001600160a01b038316611016578060025f82825461100b9190611350565b909155506110869050565b6001600160a01b0383165f90815260208190526040902054818110156110685760405163391434e360e21b81526001600160a01b038516600482015260248101829052604481018390526064016105db565b6001600160a01b0384165f9081526020819052604090209082900390555b6001600160a01b0382166110a2576002805482900390556110c0565b6001600160a01b0382165f9081526020819052604090208054820190555b816001600160a01b0316836001600160a01b03167fddf252ad1be2c89b69c2b068fc378daa952ba7f163c4a11628f55a4df523b3ef8360405161110591815260200190565b60405180910390a3505050565b5f80835f036111265750600190505f611152565b8383028385828161113957611139611391565b041461114b575f809250925050611152565b6001925090505b9250929050565b5f808383018481101561114b575f809250925050611152565b5f80825f0361118557505f905080611152565b600183858161119657611196611391565b04915091509250929050565b5f602080835283518060208501525f5b818110156111ce578581018301518582016040015282016111b2565b505f604082860101526040601f19601f8301168501019250505092915050565b80356001600160a01b0381168114611204575f80fd5b919050565b5f806040838503121561121a575f80fd5b611223836111ee565b946020939093013593505050565b5f805f60608486031215611243575f80fd5b61124c846111ee565b925061125a602085016111ee565b9150604084013590509250925092565b5f6020828403121561127a575f80fd5b5035919050565b5f60208284031215611291575f80fd5b61129a826111ee565b9392505050565b5f80604083850312156112b2575f80fd5b6112bb836111ee565b91506112c9602084016111ee565b90509250929050565b600181811c908216806112e657607f821691505b60208210810361130457634e487b7160e01b5f52602260045260245ffd5b50919050565b5f6020828403121561131a575f80fd5b8151801515811461129a575f80fd5b634e487b7160e01b5f52601160045260245ffd5b8181038181111561054d5761054d611329565b8082018082111561054d5761054d611329565b808202811582820484141761054d5761054d611329565b5f6020828403121561138a575f80fd5b5051919050565b634e487b7160e01b5f52601260045260245ffd5b5f826113bf57634e487b7160e01b5f52601260045260245ffd5b500490565b634e487b7160e01b5f52600160045260245ffdfea2646970667358221220e7695d6fd8f0ea248683f98f53d1626ece12db7d2e4b79b769c533ea1869386764736f6c63430008180033","linkReferences":{}},"methodIdentifiers":{"addCollateral()":"9e816999","allowance(address,address)":"dd62ed3e","approve(address,uint256)":"095ea7b3","balanceOf(address)":"70a08231","baseRate()":"1f68f20a","bond(uint256)":"9940686e","borrowDai(uint256)":"46af1cc5","borrowRate()":"c914b437","convert()":"91bbdcc7","dai()":"f4b9fa75","decimals()":"313ce567","getExchangeRate()":"e6aa216c","harvest()":"4641257d","maxLTV()":"f384bd05","name()":"06fdde03","removeCollateral(uint256)":"3237c158","repay(uint256)":"371fd8e6","symbol()":"95d89b41","totalBorrowed()":"4c19386c","totalCollateral()":"4ac8eb5f","totalDeposit()":"f6153ccd","totalReserve()":"4c68df67","totalSupply()":"18160ddd","transfer(address,uint256)":"a9059cbb","transferFrom(address,address,uint256)":"23b872dd","trigger(address)":"6f6ff405","unbond(uint256)":"27de9e32"},"id":7}