{"abi":[{"type":"constructor","inputs":[{"name":"tokenDai","type":"address","internalType":"address"}],"stateMutability":"nonpayable"},{"type":"receive","stateMutability":"payable"},{"type":"function","name":"aDai","inputs":[],"outputs":[{"name":"","type":"address","internalType":"contract IERC20"}],"stateMutability":"view"},{"type":"function","name":"aWeth","inputs":[],"outputs":[{"name":"","type":"address","internalType":"contract IERC20"}],"stateMutability":"view"},{"type":"function","name":"aave","inputs":[],"outputs":[{"name":"","type":"address","internalType":"contract ILendingPool"}],"stateMutability":"view"},{"type":"function","name":"addCollateral","inputs":[],"outputs":[],"stateMutability":"payable"},{"type":"function","name":"baseRate","inputs":[],"outputs":[{"name":"","type":"uint256","internalType":"uint256"}],"stateMutability":"view"},{"type":"function","name":"bnToken","inputs":[],"outputs":[{"name":"","type":"address","internalType":"contract Bond"}],"stateMutability":"view"},{"type":"function","name":"bond","inputs":[{"name":"amount","type":"uint256","internalType":"uint256"}],"outputs":[],"stateMutability":"nonpayable"},{"type":"function","name":"bondt","inputs":[],"outputs":[{"name":"","type":"address","internalType":"contract IERC20"}],"stateMutability":"view"},{"type":"function","name":"borrowDai","inputs":[{"name":"amount","type":"uint256","internalType":"uint256"}],"outputs":[],"stateMutability":"nonpayable"},{"type":"function","name":"borrowRate","inputs":[],"outputs":[{"name":"","type":"uint256","internalType":"uint256"}],"stateMutability":"view"},{"type":"function","name":"convert","inputs":[],"outputs":[],"stateMutability":"nonpayable"},{"type":"function","name":"dai","inputs":[],"outputs":[{"name":"","type":"address","internalType":"contract IERC20"}],"stateMutability":"view"},{"type":"function","name":"ethTreasury","inputs":[],"outputs":[{"name":"","type":"uint256","internalType":"uint256"}],"stateMutability":"view"},{"type":"function","name":"getExchangeRate","inputs":[],"outputs":[{"name":"","type":"uint256","internalType":"uint256"}],"stateMutability":"view"},{"type":"function","name":"getLatestPrice","inputs":[],"outputs":[{"name":"","type":"int256","internalType":"int256"}],"stateMutability":"view"},{"type":"function","name":"harvest","inputs":[],"outputs":[],"stateMutability":"nonpayable"},{"type":"function","name":"maxLTV","inputs":[],"outputs":[{"name":"","type":"uint256","internalType":"uint256"}],"stateMutability":"view"},{"type":"function","name":"removeCollateral","inputs":[{"name":"amount","type":"uint256","internalType":"uint256"}],"outputs":[],"stateMutability":"nonpayable"},{"type":"function","name":"repay","inputs":[{"name":"amount","type":"uint256","internalType":"uint256"}],"outputs":[],"stateMutability":"nonpayable"},{"type":"function","name":"totalBorrowed","inputs":[],"outputs":[{"name":"","type":"uint256","internalType":"uint256"}],"stateMutability":"view"},{"type":"function","name":"totalCollateral","inputs":[],"outputs":[{"name":"","type":"uint256","internalType":"uint256"}],"stateMutability":"view"},{"type":"function","name":"totalDeposit","inputs":[],"outputs":[{"name":"","type":"uint256","internalType":"uint256"}],"stateMutability":"view"},{"type":"function","name":"totalReserve","inputs":[],"outputs":[{"name":"","type":"uint256","internalType":"uint256"}],"stateMutability":"view"},{"type":"function","name":"triggerLiquidation","inputs":[{"name":"user","type":"address","internalType":"address"}],"outputs":[],"stateMutability":"nonpayable"},{"type":"function","name":"unbond","inputs":[{"name":"amount","type":"uint256","internalType":"uint256"}],"outputs":[],"stateMutability":"nonpayable"},{"type":"function","name":"uniswapRouter","inputs":[],"outputs":[{"name":"","type":"address","internalType":"contract IUniswapRouter"}],"stateMutability":"view"},{"type":"function","name":"weth","inputs":[],"outputs":[{"name":"","type":"address","internalType":"contract IERC20"}],"stateMutability":"view"},{"type":"function","name":"wethGateway","inputs":[],"outputs":[{"name":"","type":"address","internalType":"contract IWETHGateway"}],"stateMutability":"view"},{"type":"function","name":"wftm","inputs":[],"outputs":[{"name":"","type":"address","internalType":"contract IERC20"}],"stateMutability":"view"}],"bytecode":{"object":"0x6080604052600460015566470de4df820000600755670429d069189e0000600855600b80546001600160a01b03199081167377fde93fee5fe272dc17d799cb61447431e6eba217909155600c8054821673c8c0cf9436f4862a8f60ce680ca5a9f0f99b5ded179055600d80548216732fa2e7a6deb7bb51b625336dbe1da23511914a8a179055600e80548216732b101efbb4dff1fbb8f87f02c560fb8ac773afc517905560108054909116730e426e6e6b226d8bd566e417b90411dcf14df861179055348015620000ce575f80fd5b506040516200235038038062002350833981016040819052620000f19162000169565b5f80546001600160a01b0319166001600160a01b03831617905560405162000119906200015b565b604051809103905ff08015801562000133573d5f803e3d5ffd5b50601180546001600160a01b0319166001600160a01b03929092169190911790555062000198565b61098880620019c883390190565b5f602082840312156200017a575f80fd5b81516001600160a01b038116811462000191575f80fd5b9392505050565b61182280620001a65f395ff3fe6080604052600436106101bd575f3560e01c80638e15f473116100f2578063c5e10eef11610092578063f384bd0511610062578063f384bd0514610495578063f4b9fa75146104aa578063f4f45b46146104c9578063f6153ccd146104e8575f80fd5b8063c5e10eef14610430578063c914b43714610457578063cbeb84d61461046c578063e6aa216c14610481575f80fd5b80639e816999116100cd5780639e816999146103cb578063a34e8fa0146103d3578063b350df5d146103f2578063b9eaa0fa14610411575f80fd5b80638e15f4731461038457806391bbdcc7146103985780639940686e146103ac575f80fd5b80634ac8eb5f1161015d5780635cd9ce3e116101385780635cd9ce3e146102f8578063735de9f714610317578063819faf7b1461033e578063843e4fef14610365575f80fd5b80634ac8eb5f146102b95780634c19386c146102ce5780634c68df67146102e3575f80fd5b8063371fd8e611610198578063371fd8e6146102305780633fc8cef31461024f5780634641257d1461028657806346af1cc51461029a575f80fd5b80631f68f20a146101c857806327de9e32146101f05780633237c15814610211575f80fd5b366101c457005b5f80fd5b3480156101d3575f80fd5b506101dd60075481565b6040519081526020015b60405180910390f35b3480156101fb575f80fd5b5061020f61020a366004611641565b6104fd565b005b34801561021c575f80fd5b5061020f61022b366004611641565b6106ca565b34801561023b575f80fd5b5061020f61024a366004611641565b610829565b34801561025a575f80fd5b50600c5461026e906001600160a01b031681565b6040516001600160a01b0390911681526020016101e7565b348015610291575f80fd5b5061020f610940565b3480156102a5575f80fd5b5061020f6102b4366004611641565b6109e4565b3480156102c4575f80fd5b506101dd60045481565b3480156102d9575f80fd5b506101dd60035481565b3480156102ee575f80fd5b506101dd60055481565b348015610303575f80fd5b5060105461026e906001600160a01b031681565b348015610322575f80fd5b5061026e7390d4e9eb792602aa7a7506b477b878307c35e24a81565b348015610349575f80fd5b5061026e7356ab717d882f7a8d4a3c2b191707322c5cc70db881565b348015610370575f80fd5b50600f5461026e906001600160a01b031681565b34801561038f575f80fd5b506101dd610b73565b3480156103a3575f80fd5b5061020f610bfb565b3480156103b7575f80fd5b5061020f6103c6366004611641565b610c29565b61020f610df3565b3480156103de575f80fd5b50600e5461026e906001600160a01b031681565b3480156103fd575f80fd5b5061020f61040c366004611658565b610e3b565b34801561041c575f80fd5b5060115461026e906001600160a01b031681565b34801561043b575f80fd5b5061026e732fa2e7a6deb7bb51b625336dbe1da23511914a8a81565b348015610462575f80fd5b506101dd60085481565b348015610477575f80fd5b506101dd60065481565b34801561048c575f80fd5b506101dd610efd565b3480156104a0575f80fd5b506101dd60015481565b3480156104b5575f80fd5b50600b5461026e906001600160a01b031681565b3480156104d4575f80fd5b50600d5461026e906001600160a01b031681565b3480156104f3575f80fd5b506101dd60025481565b5f8111610508575f80fd5b6011546040516370a0823160e01b815233600482015282916001600160a01b0316906370a0823190602401602060405180830381865afa15801561054e573d5f803e3d5ffd5b505050506040513d601f19601f820116820180604052508101906105729190611685565b10156105c55760405162461bcd60e51b815260206004820152601d60248201527f796f7520646f206e6f74206861766520656e6f75676820746f6b656e7300000060448201526064015b60405180910390fd5b600b546040516323b872dd60e01b8152306004820152336024820152604481018390526001600160a01b03909116906323b872dd906064016020604051808303815f875af1158015610619573d5f803e3d5ffd5b505050506040513d601f19601f8201168201806040525081019061063d919061169c565b505f6106508261064b610efd565b61102b565b601154604051632770a7eb60e21b8152336004820152602481018390529192506001600160a01b031690639dc29fac906044015f604051808303815f87803b15801561069a575f80fd5b505af11580156106ac573d5f803e3d5ffd5b505050508160025f8282546106c191906116cf565b90915550505050565b5f81116106d5575f80fd5b335f908152600960205260409020546107305760405162461bcd60e51b815260206004820152601f60248201527f796f7520646f206e6f74206861766520616e7920636f6c6c61746572616c730060448201526064016105bc565b335f908152600a6020908152604080832054600990925282205490918261075983610b5461102b565b61076391906116cf565b90505f61077285610b5461102b565b90508181106107bc5760405162461bcd60e51b81526020600482015260166024820152750f2deea40c8de40dcdee840d0c2ecca40cadcdeeaced60531b60448201526064016105bc565b335f90815260096020526040812080548792906107da9084906116cf565b925050819055508460045f8282546107f291906116cf565b9091555050604051339086156108fc029087905f818181858888f19350505050158015610821573d5f803e3d5ffd5b505050505050565b335f908152600a60205260409020546108845760405162461bcd60e51b815260206004820152601860248201527f796f7520646f206e6f74206861766520616e792064657074000000000000000060448201526064016105bc565b5f6108936003546002546110b8565b90505f6108af6007546008546108a991906116cf565b836110b8565b90505f6007546108bf848461102b565b6108c991906116e2565b90505f6108d682866116f5565b90505f6108e382876116cf565b90508160055f8282546108f691906116e2565b9091555050335f908152600a6020526040812080548392906109199084906116cf565b925050819055508060035f82825461093191906116cf565b9091555061082190508661110b565b6010546040516370a0823160e01b81523060048201525f916001600160a01b0316906370a0823190602401602060405180830381865afa158015610986573d5f803e3d5ffd5b505050506040513d601f19601f820116820180604052508101906109aa9190611685565b90506004548111156109e1575f600454826109c591906116cf565b90506109d08161120e565b8060065f8282546106c191906116e2565b50565b335f90815260096020526040902054610a3f5760405162461bcd60e51b815260206004820152601f60248201527f796f7520646f206e6f74206861766520616e7920636f6c6c61746572616c730060448201526064016105bc565b335f908152600a60209081526040808320546009909252822054909182610a688361064b610b73565b610a7291906116cf565b90505f610a81826001546112ed565b905084811015610ad35760405162461bcd60e51b815260206004820152601960248201527f796f752063616e6e6f74207061737320746865206c696d69740000000000000060448201526064016105bc565b600b546040516323b872dd60e01b8152306004820152336024820152604481018790526001600160a01b03909116906323b872dd906064016020604051808303815f875af1158015610b27573d5f803e3d5ffd5b505050506040513d601f19601f82011682018060405250810190610b4b919061169c565b508460035f828254610b5d91906116e2565b90915550610b6c90508561130e565b5050505050565b5f805460408051633fabe5a360e21b8152905183926001600160a01b03169163feaf968c9160048083019260a09291908290030181865afa158015610bba573d5f803e3d5ffd5b505050506040513d601f19601f82011682018060405250810190610bde919061172a565b505050915050806402540be400610bf59190611776565b91505090565b5f610c0760065461139e565b90505f6006819055508060055f828254610c2191906116e2565b909155505050565b5f8111610c34575f80fd5b600b546040516370a0823160e01b815233600482015282916001600160a01b0316906370a0823190602401602060405180830381865afa158015610c7a573d5f803e3d5ffd5b505050506040513d601f19601f82011682018060405250810190610c9e9190611685565b1015610cec5760405162461bcd60e51b815260206004820152601f60248201527f796f7520646f206e6f74206861766520656e6f7567682062616c6c616e63650060448201526064016105bc565b600b546040516323b872dd60e01b8152336004820152306024820152604481018390526001600160a01b03909116906323b872dd906064016020604051808303815f875af1158015610d40573d5f803e3d5ffd5b505050506040513d601f19601f82011682018060405250810190610d64919061169c565b508060025f828254610d7691906116e2565b90915550610d8590508161110b565b5f610d9782610d92610efd565b6110b8565b6011546040516340c10f1960e01b8152336004820152602481018390529192506001600160a01b0316906340c10f19906044015f604051808303815f87803b158015610de1575f80fd5b505af1158015610821573d5f803e3d5ffd5b5f3411610dfe575f80fd5b335f9081526009602052604081208054349290610e1c9084906116e2565b925050819055503460045f828254610e3491906116e2565b9091555050565b6001600160a01b0381165f908152600a60209081526040808320546009909252822054909182610e6d83610b5461102b565b610e7791906116cf565b9050610e85816001546112ed565b831115610ef757610e958261120e565b5f610e9f8361139e565b90508060055f828254610eb291906116e2565b90915550506001600160a01b0385165f908152600a602090815260408083208390556009909152812081905560048054859290610ef09084906116cf565b9091555050505b50505050565b601154604080516318160ddd60e01b815290515f926001600160a01b0316916318160ddd9160048083019260209291908290030181865afa158015610f44573d5f803e3d5ffd5b505050506040513d601f19601f82011682018060405250810190610f689190611685565b5f03610f7b5750670de0b6b3a764000090565b5f600354600254610f8c91906116cf565b90505f60055460035483610fa091906116e2565b610faa91906116e2565b90506110248160115f9054906101000a90046001600160a01b03166001600160a01b03166318160ddd6040518163ffffffff1660e01b8152600401602060405180830381865afa158015611000573d5f803e3d5ffd5b505050506040513d601f19601f82011682018060405250810190610d929190611685565b9250505090565b5f808061103885856115b1565b915091508161104b575f925050506110b2565b5f8061106a836110646002670de0b6b3a76400006117b9565b906115f8565b915091508161107f575f9450505050506110b2565b5f8061109383670de0b6b3a7640000611611565b90925090506001821515146110aa576110aa6117d8565b955050505050505b92915050565b5f80806110cd85670de0b6b3a76400006115b1565b91509150816110e0575f925050506110b2565b5f806110ec8387611611565b9150915081611101575f9450505050506110b2565b9695505050505050565b600b5460405163095ea7b360e01b81527356ab717d882f7a8d4a3c2b191707322c5cc70db86004820152602481018390526001600160a01b039091169063095ea7b3906044016020604051808303815f875af115801561116d573d5f803e3d5ffd5b505050506040513d601f19601f82011682018060405250810190611191919061169c565b50600b5460405163e8eda9df60e01b81526001600160a01b039091166004820152602481018290523060448201525f60648201527356ab717d882f7a8d4a3c2b191707322c5cc70db89063e8eda9df906084015b5f604051808303815f87803b1580156111fc575f80fd5b505af1158015610b6c573d5f803e3d5ffd5b60105460405163095ea7b360e01b8152732fa2e7a6deb7bb51b625336dbe1da23511914a8a6004820152602481018390526001600160a01b039091169063095ea7b3906044016020604051808303815f875af1158015611270573d5f803e3d5ffd5b505050506040513d601f19601f82011682018060405250810190611294919061169c565b50604051630402806960e51b81527356ab717d882f7a8d4a3c2b191707322c5cc70db8600482015260248101829052306044820152732fa2e7a6deb7bb51b625336dbe1da23511914a8a906380500d20906064016111e5565b5f806112fa8460056110b8565b9050611306818461102b565b949350505050565b600b54604051631a4ca37b60e21b81526001600160a01b039091166004820152602481018290523360448201527356ab717d882f7a8d4a3c2b191707322c5cc70db8906369328dec906064016020604051808303815f875af1158015611376573d5f803e3d5ffd5b505050506040513d601f19601f8201168201806040525081019061139a9190611685565b5050565b5f8082116113e75760405162461bcd60e51b8152602060048201526016602482015275135d5cdd081c185cdcc81b9bdb880c08185b5bdd5b9d60521b60448201526064016105bc565b5f6113f342600f6116e2565b600c54600b5460408051610100810182526001600160a01b039384168082529290931660208401819052610bb884830181905230606086018190526080860187905260a086018a9052600160c087018190525f60e08801819052945163414bf38960e01b815297985094969295919490938a939192909182907390d4e9eb792602aa7a7506b477b878307c35e24a9063414bf3899087906114fc90869060040181516001600160a01b03908116825260208084015182169083015260408084015162ffffff16908301526060808401518216908301526080808401519083015260a0838101519083015260c0808401519083015260e09283015116918101919091526101000190565b60206040518083038185885af1158015611518573d5f803e3d5ffd5b50505050506040513d601f19601f8201168201806040525081019061153d9190611685565b90507390d4e9eb792602aa7a7506b477b878307c35e24a6001600160a01b03166312210e8a6040518163ffffffff1660e01b81526004015f604051808303815f87803b15801561158b575f80fd5b505af115801561159d573d5f803e3d5ffd5b50929e9d5050505050505050505050505050565b5f80835f036115c55750600190505f6115f1565b838302838582816115d8576115d86117a5565b04146115ea575f8092509250506115f1565b6001925090505b9250929050565b5f80838301848110156115ea575f8092509250506115f1565b5f80825f0361162457505f9050806115f1565b6001838581611635576116356117a5565b04915091509250929050565b5f60208284031215611651575f80fd5b5035919050565b5f60208284031215611668575f80fd5b81356001600160a01b038116811461167e575f80fd5b9392505050565b5f60208284031215611695575f80fd5b5051919050565b5f602082840312156116ac575f80fd5b8151801515811461167e575f80fd5b634e487b7160e01b5f52601160045260245ffd5b818103818111156110b2576110b26116bb565b808201808211156110b2576110b26116bb565b80820281158282048414176110b2576110b26116bb565b805169ffffffffffffffffffff81168114611725575f80fd5b919050565b5f805f805f60a0868803121561173e575f80fd5b6117478661170c565b945060208601519350604086015192506060860151915061176a6080870161170c565b90509295509295909350565b8082025f8212600160ff1b84141615611791576117916116bb565b81810583148215176110b2576110b26116bb565b634e487b7160e01b5f52601260045260245ffd5b5f826117d357634e487b7160e01b5f52601260045260245ffd5b500490565b634e487b7160e01b5f52600160045260245ffdfea2646970667358221220bf2862a18a85eb77ef43d618ef0e388b6f4057d011ee2937040d09ef0c45c4dd64736f6c63430008180033608060405234801561000f575f80fd5b5060405180604001604052806004815260200163109bdb9960e21b8152506040518060400160405280600381526020016210939160ea1b81525081600390816100589190610105565b5060046100658282610105565b5050506101c4565b634e487b7160e01b5f52604160045260245ffd5b600181811c9082168061009557607f821691505b6020821081036100b357634e487b7160e01b5f52602260045260245ffd5b50919050565b601f82111561010057805f5260205f20601f840160051c810160208510156100de5750805b601f840160051c820191505b818110156100fd575f81556001016100ea565b50505b505050565b81516001600160401b0381111561011e5761011e61006d565b6101328161012c8454610081565b846100b9565b602080601f831160018114610165575f841561014e5750858301515b5f19600386901b1c1916600185901b1785556101bc565b5f85815260208120601f198616915b8281101561019357888601518255948401946001909101908401610174565b50858210156101b057878501515f19600388901b60f8161c191681555b505060018460011b0185555b505050505050565b6107b7806101d15f395ff3fe608060405234801561000f575f80fd5b50600436106100a6575f3560e01c806340c10f191161006e57806340c10f191461011f57806370a082311461013457806395d89b411461015c5780639dc29fac14610164578063a9059cbb14610177578063dd62ed3e1461018a575f80fd5b806306fdde03146100aa578063095ea7b3146100c857806318160ddd146100eb57806323b872dd146100fd578063313ce56714610110575b5f80fd5b6100b26101c2565b6040516100bf9190610611565b60405180910390f35b6100db6100d6366004610678565b610252565b60405190151581526020016100bf565b6002545b6040519081526020016100bf565b6100db61010b3660046106a0565b61026b565b604051601281526020016100bf565b61013261012d366004610678565b61028e565b005b6100ef6101423660046106d9565b6001600160a01b03165f9081526020819052604090205490565b6100b261029c565b610132610172366004610678565b6102ab565b6100db610185366004610678565b6102b5565b6100ef6101983660046106f9565b6001600160a01b039182165f90815260016020908152604080832093909416825291909152205490565b6060600380546101d19061072a565b80601f01602080910402602001604051908101604052809291908181526020018280546101fd9061072a565b80156102485780601f1061021f57610100808354040283529160200191610248565b820191905f5260205f20905b81548152906001019060200180831161022b57829003601f168201915b5050505050905090565b5f3361025f8185856102c2565b60019150505b92915050565b5f336102788582856102d4565b610283858585610354565b506001949350505050565b61029882826103b1565b5050565b6060600480546101d19061072a565b61029882826103e5565b5f3361025f818585610354565b6102cf8383836001610419565b505050565b6001600160a01b038381165f908152600160209081526040808320938616835292905220545f19811461034e578181101561034057604051637dc7a0d960e11b81526001600160a01b038416600482015260248101829052604481018390526064015b60405180910390fd5b61034e84848484035f610419565b50505050565b6001600160a01b03831661037d57604051634b637e8f60e11b81525f6004820152602401610337565b6001600160a01b0382166103a65760405163ec442f0560e01b81525f6004820152602401610337565b6102cf8383836104eb565b6001600160a01b0382166103da5760405163ec442f0560e01b81525f6004820152602401610337565b6102985f83836104eb565b6001600160a01b03821661040e57604051634b637e8f60e11b81525f6004820152602401610337565b610298825f836104eb565b6001600160a01b0384166104425760405163e602df0560e01b81525f6004820152602401610337565b6001600160a01b03831661046b57604051634a1406b160e11b81525f6004820152602401610337565b6001600160a01b038085165f908152600160209081526040808320938716835292905220829055801561034e57826001600160a01b0316846001600160a01b03167f8c5be1e5ebec7d5bd14f71427d1e84f3dd0314c0f7b2291e5b200ac8c7c3b925846040516104dd91815260200190565b60405180910390a350505050565b6001600160a01b038316610515578060025f82825461050a9190610762565b909155506105859050565b6001600160a01b0383165f90815260208190526040902054818110156105675760405163391434e360e21b81526001600160a01b03851660048201526024810182905260448101839052606401610337565b6001600160a01b0384165f9081526020819052604090209082900390555b6001600160a01b0382166105a1576002805482900390556105bf565b6001600160a01b0382165f9081526020819052604090208054820190555b816001600160a01b0316836001600160a01b03167fddf252ad1be2c89b69c2b068fc378daa952ba7f163c4a11628f55a4df523b3ef8360405161060491815260200190565b60405180910390a3505050565b5f602080835283518060208501525f5b8181101561063d57858101830151858201604001528201610621565b505f604082860101526040601f19601f8301168501019250505092915050565b80356001600160a01b0381168114610673575f80fd5b919050565b5f8060408385031215610689575f80fd5b6106928361065d565b946020939093013593505050565b5f805f606084860312156106b2575f80fd5b6106bb8461065d565b92506106c96020850161065d565b9150604084013590509250925092565b5f602082840312156106e9575f80fd5b6106f28261065d565b9392505050565b5f806040838503121561070a575f80fd5b6107138361065d565b91506107216020840161065d565b90509250929050565b600181811c9082168061073e57607f821691505b60208210810361075c57634e487b7160e01b5f52602260045260245ffd5b50919050565b8082018082111561026557634e487b7160e01b5f52601160045260245ffdfea2646970667358221220cfc792ba61e11821130c2eed90283c88d4d8d46a7119479198d362368085e7e664736f6c63430008180033","linkReferences":{}},"methodIdentifiers":{"aDai()":"a34e8fa0","aWeth()":"5cd9ce3e","aave()":"819faf7b","addCollateral()":"9e816999","baseRate()":"1f68f20a","bnToken()":"b9eaa0fa","bond(uint256)":"9940686e","bondt()":"843e4fef","borrowDai(uint256)":"46af1cc5","borrowRate()":"c914b437","convert()":"91bbdcc7","dai()":"f4b9fa75","ethTreasury()":"cbeb84d6","getExchangeRate()":"e6aa216c","getLatestPrice()":"8e15f473","harvest()":"4641257d","maxLTV()":"f384bd05","removeCollateral(uint256)":"3237c158","repay(uint256)":"371fd8e6","totalBorrowed()":"4c19386c","totalCollateral()":"4ac8eb5f","totalDeposit()":"f6153ccd","totalReserve()":"4c68df67","triggerLiquidation(address)":"b350df5d","unbond(uint256)":"27de9e32","uniswapRouter()":"735de9f7","weth()":"3fc8cef3","wethGateway()":"c5e10eef","wftm()":"f4f45b46"},"id":69}