{"abi":[{"type":"constructor","inputs":[{"name":"tokenDai","type":"address","internalType":"address"}],"stateMutability":"nonpayable"},{"type":"receive","stateMutability":"payable"},{"type":"function","name":"addCollateral","inputs":[],"outputs":[],"stateMutability":"payable"},{"type":"function","name":"allowance","inputs":[{"name":"owner","type":"address","internalType":"address"},{"name":"spender","type":"address","internalType":"address"}],"outputs":[{"name":"","type":"uint256","internalType":"uint256"}],"stateMutability":"view"},{"type":"function","name":"approve","inputs":[{"name":"spender","type":"address","internalType":"address"},{"name":"value","type":"uint256","internalType":"uint256"}],"outputs":[{"name":"","type":"bool","internalType":"bool"}],"stateMutability":"nonpayable"},{"type":"function","name":"balanceOf","inputs":[{"name":"account","type":"address","internalType":"address"}],"outputs":[{"name":"","type":"uint256","internalType":"uint256"}],"stateMutability":"view"},{"type":"function","name":"baseRate","inputs":[],"outputs":[{"name":"","type":"uint256","internalType":"uint256"}],"stateMutability":"view"},{"type":"function","name":"bond","inputs":[{"name":"amount","type":"uint256","internalType":"uint256"}],"outputs":[],"stateMutability":"nonpayable"},{"type":"function","name":"borrowDai","inputs":[{"name":"amount","type":"uint256","internalType":"uint256"}],"outputs":[],"stateMutability":"nonpayable"},{"type":"function","name":"borrowRate","inputs":[],"outputs":[{"name":"","type":"uint256","internalType":"uint256"}],"stateMutability":"view"},{"type":"function","name":"convert","inputs":[],"outputs":[],"stateMutability":"nonpayable"},{"type":"function","name":"dai","inputs":[],"outputs":[{"name":"","type":"address","internalType":"contract IERC20"}],"stateMutability":"view"},{"type":"function","name":"decimals","inputs":[],"outputs":[{"name":"","type":"uint8","internalType":"uint8"}],"stateMutability":"view"},{"type":"function","name":"getExchangeRate","inputs":[],"outputs":[{"name":"","type":"uint256","internalType":"uint256"}],"stateMutability":"view"},{"type":"function","name":"getLatestPrice","inputs":[],"outputs":[{"name":"","type":"int256","internalType":"int256"}],"stateMutability":"view"},{"type":"function","name":"harvest","inputs":[],"outputs":[],"stateMutability":"nonpayable"},{"type":"function","name":"maxLTV","inputs":[],"outputs":[{"name":"","type":"uint256","internalType":"uint256"}],"stateMutability":"view"},{"type":"function","name":"name","inputs":[],"outputs":[{"name":"","type":"string","internalType":"string"}],"stateMutability":"view"},{"type":"function","name":"removeCollateral","inputs":[{"name":"amount","type":"uint256","internalType":"uint256"}],"outputs":[],"stateMutability":"nonpayable"},{"type":"function","name":"repay","inputs":[{"name":"amount","type":"uint256","internalType":"uint256"}],"outputs":[],"stateMutability":"nonpayable"},{"type":"function","name":"symbol","inputs":[],"outputs":[{"name":"","type":"string","internalType":"string"}],"stateMutability":"view"},{"type":"function","name":"totalBorrowed","inputs":[],"outputs":[{"name":"","type":"uint256","internalType":"uint256"}],"stateMutability":"view"},{"type":"function","name":"totalCollateral","inputs":[],"outputs":[{"name":"","type":"uint256","internalType":"uint256"}],"stateMutability":"view"},{"type":"function","name":"totalDeposit","inputs":[],"outputs":[{"name":"","type":"uint256","internalType":"uint256"}],"stateMutability":"view"},{"type":"function","name":"totalReserve","inputs":[],"outputs":[{"name":"","type":"uint256","internalType":"uint256"}],"stateMutability":"view"},{"type":"function","name":"totalSupply","inputs":[],"outputs":[{"name":"","type":"uint256","internalType":"uint256"}],"stateMutability":"view"},{"type":"function","name":"transfer","inputs":[{"name":"to","type":"address","internalType":"address"},{"name":"value","type":"uint256","internalType":"uint256"}],"outputs":[{"name":"","type":"bool","internalType":"bool"}],"stateMutability":"nonpayable"},{"type":"function","name":"transferFrom","inputs":[{"name":"from","type":"address","internalType":"address"},{"name":"to","type":"address","internalType":"address"},{"name":"value","type":"uint256","internalType":"uint256"}],"outputs":[{"name":"","type":"bool","internalType":"bool"}],"stateMutability":"nonpayable"},{"type":"function","name":"triggerLiquidation","inputs":[{"name":"_user","type":"address","internalType":"address"}],"outputs":[],"stateMutability":"nonpayable"},{"type":"function","name":"unbond","inputs":[{"name":"amount","type":"uint256","internalType":"uint256"}],"outputs":[],"stateMutability":"nonpayable"},{"type":"function","name":"uniswapRouter","inputs":[],"outputs":[{"name":"","type":"address","internalType":"contract IUniswapRouter"}],"stateMutability":"view"},{"type":"event","name":"Approval","inputs":[{"name":"owner","type":"address","indexed":true,"internalType":"address"},{"name":"spender","type":"address","indexed":true,"internalType":"address"},{"name":"value","type":"uint256","indexed":false,"internalType":"uint256"}],"anonymous":false},{"type":"event","name":"Transfer","inputs":[{"name":"from","type":"address","indexed":true,"internalType":"address"},{"name":"to","type":"address","indexed":true,"internalType":"address"},{"name":"value","type":"uint256","indexed":false,"internalType":"uint256"}],"anonymous":false},{"type":"error","name":"ERC20InsufficientAllowance","inputs":[{"name":"spender","type":"address","internalType":"address"},{"name":"allowance","type":"uint256","internalType":"uint256"},{"name":"needed","type":"uint256","internalType":"uint256"}]},{"type":"error","name":"ERC20InsufficientBalance","inputs":[{"name":"sender","type":"address","internalType":"address"},{"name":"balance","type":"uint256","internalType":"uint256"},{"name":"needed","type":"uint256","internalType":"uint256"}]},{"type":"error","name":"ERC20InvalidApprover","inputs":[{"name":"approver","type":"address","internalType":"address"}]},{"type":"error","name":"ERC20InvalidReceiver","inputs":[{"name":"receiver","type":"address","internalType":"address"}]},{"type":"error","name":"ERC20InvalidSender","inputs":[{"name":"sender","type":"address","internalType":"address"}]},{"type":"error","name":"ERC20InvalidSpender","inputs":[{"name":"spender","type":"address","internalType":"address"}]}],"bytecode":{"object":"0x6080604052600460065566470de4df820000600b55670429d069189e0000600c553480156200002c575f80fd5b5060405162001872380380620018728339810160408190526200004f91620000eb565b6040518060400160405280600a8152602001693137b732103a37b5b2b760b11b81525060405180604001604052806002815260200161189d60f21b81525081600390816200009e9190620001b8565b506004620000ad8282620001b8565b5050601080546001600160a01b039093166001600160a01b0319938416811790915560058054841682179055600d8054909316179091555062000284565b5f60208284031215620000fc575f80fd5b81516001600160a01b038116811462000113575f80fd5b9392505050565b634e487b7160e01b5f52604160045260245ffd5b600181811c908216806200014357607f821691505b6020821081036200016257634e487b7160e01b5f52602260045260245ffd5b50919050565b601f821115620001b357805f5260205f20601f840160051c810160208510156200018f5750805b601f840160051c820191505b81811015620001b0575f81556001016200019b565b50505b505050565b81516001600160401b03811115620001d457620001d46200011a565b620001ec81620001e584546200012e565b8462000168565b602080601f83116001811462000222575f84156200020a5750858301515b5f19600386901b1c1916600185901b1785556200027c565b5f85815260208120601f198616915b82811015620002525788860151825594840194600190910190840162000231565b50858210156200027057878501515f19600388901b60f8161c191681555b505060018460011b0185555b505050505050565b6115e080620002925f395ff3fe6080604052600436106101bd575f3560e01c806370a08231116100f2578063a9059cbb11610092578063e6aa216c11610062578063e6aa216c146104a7578063f384bd05146104bb578063f4b9fa75146104d0578063f6153ccd146104ef575f80fd5b8063a9059cbb14610410578063b350df5d1461042f578063c914b4371461044e578063dd62ed3e14610463575f80fd5b806391bbdcc7116100cd57806391bbdcc7146102ed57806395d89b41146103d55780639940686e146103e95780639e81699914610408575f80fd5b806370a0823114610356578063735de9f71461038a5780638e15f473146103c1575f80fd5b80633237c1581161015d57806346af1cc51161013857806346af1cc5146102f85780634ac8eb5f146103175780634c19386c1461032c5780634c68df6714610341575f80fd5b80633237c158146102af578063371fd8e6146102ce5780634641257d146102ed575f80fd5b80631f68f20a116101985780631f68f20a1461023f57806323b872dd1461025457806327de9e3214610273578063313ce56714610294575f80fd5b806306fdde03146101c8578063095ea7b3146101f257806318160ddd14610221575f80fd5b366101c457005b5f80fd5b3480156101d3575f80fd5b506101dc610504565b6040516101e991906112e0565b60405180910390f35b3480156101fd575f80fd5b5061021161020c366004611347565b610594565b60405190151581526020016101e9565b34801561022c575f80fd5b506002545b6040519081526020016101e9565b34801561024a575f80fd5b50610231600b5481565b34801561025f575f80fd5b5061021161026e36600461136f565b6105ad565b34801561027e575f80fd5b5061029261028d3660046113a8565b6105d0565b005b34801561029f575f80fd5b50604051601281526020016101e9565b3480156102ba575f80fd5b506102926102c93660046113a8565b6106ef565b3480156102d9575f80fd5b506102926102e83660046113a8565b61084e565b348015610292575f80fd5b348015610303575f80fd5b506102926103123660046113a8565b610963565b348015610322575f80fd5b5061023160095481565b348015610337575f80fd5b5061023160085481565b34801561034c575f80fd5b50610231600a5481565b348015610361575f80fd5b506102316103703660046113bf565b6001600160a01b03165f9081526020819052604090205490565b348015610395575f80fd5b50600d546103a9906001600160a01b031681565b6040516001600160a01b0390911681526020016101e9565b3480156103cc575f80fd5b50610231610ae8565b3480156103e0575f80fd5b506101dc610b7b565b3480156103f4575f80fd5b506102926104033660046113a8565b610b8a565b610292610cff565b34801561041b575f80fd5b5061021161042a366004611347565b610d47565b34801561043a575f80fd5b506102926104493660046113bf565b610d54565b348015610459575f80fd5b50610231600c5481565b34801561046e575f80fd5b5061023161047d3660046113df565b6001600160a01b039182165f90815260016020908152604080832093909416825291909152205490565b3480156104b2575f80fd5b50610231610da5565b3480156104c6575f80fd5b5061023160065481565b3480156104db575f80fd5b506010546103a9906001600160a01b031681565b3480156104fa575f80fd5b5061023160075481565b60606003805461051390611410565b80601f016020809104026020016040519081016040528092919081815260200182805461053f90611410565b801561058a5780601f106105615761010080835404028352916020019161058a565b820191905f5260205f20905b81548152906001019060200180831161056d57829003601f168201915b5050505050905090565b5f336105a1818585610e07565b60019150505b92915050565b5f336105ba858285610e19565b6105c5858585610e94565b506001949350505050565b5f81116105db575f80fd5b335f9081526020819052604090205481111561063e5760405162461bcd60e51b815260206004820152601d60248201527f796f7520646f206e6f74206861766520656e6f75676820746f6b656e7300000060448201526064015b60405180910390fd5b6010546040516323b872dd60e01b8152306004820152336024820152604481018390526001600160a01b03909116906323b872dd906064016020604051808303815f875af1158015610692573d5f803e3d5ffd5b505050506040513d601f19601f820116820180604052508101906106b69190611448565b505f6106c9826106c4610da5565b610ef1565b90506106d53382610f7c565b8160075f8282546106e6919061147b565b90915550505050565b5f81116106fa575f80fd5b335f908152600e60205260409020546107555760405162461bcd60e51b815260206004820152601f60248201527f796f7520646f206e6f74206861766520616e7920636f6c6c61746572616c73006044820152606401610635565b335f908152600f6020908152604080832054600e90925282205490918261077e83610b54610ef1565b610788919061147b565b90505f61079785610b54610ef1565b90508181106107e15760405162461bcd60e51b81526020600482015260166024820152750f2deea40c8de40dcdee840d0c2ecca40cadcdeeaced60531b6044820152606401610635565b335f908152600e6020526040812080548792906107ff90849061147b565b925050819055508460095f828254610817919061147b565b9091555050604051339086156108fc029087905f818181858888f19350505050158015610846573d5f803e3d5ffd5b505050505050565b335f908152600f60205260409020546108a95760405162461bcd60e51b815260206004820152601860248201527f796f7520646f206e6f74206861766520616e79206465707400000000000000006044820152606401610635565b5f6108b8600854600754610fb0565b90505f6108d4600b54600c546108ce919061147b565b83610fb0565b90505f600b546108e48484610ef1565b6108ee919061148e565b90505f6108fb82866114a1565b90505f610908828761147b565b905081600a5f82825461091b919061148e565b9091555050335f908152600f60205260408120805483929061093e90849061147b565b925050819055508060085f828254610956919061147b565b9091555050505050505050565b335f908152600e60205260409020546109be5760405162461bcd60e51b815260206004820152601f60248201527f796f7520646f206e6f74206861766520616e7920636f6c6c61746572616c73006044820152606401610635565b335f908152600f6020908152604080832054600e9092528220549091826109e7836106c4610ae8565b6109f1919061147b565b90505f610a0082600654611003565b905084811015610a525760405162461bcd60e51b815260206004820152601960248201527f796f752063616e6e6f74207061737320746865206c696d6974000000000000006044820152606401610635565b6010546040516323b872dd60e01b8152306004820152336024820152604481018790526001600160a01b03909116906323b872dd906064016020604051808303815f875af1158015610aa6573d5f803e3d5ffd5b505050506040513d601f19601f82011682018060405250810190610aca9190611448565b508460085f828254610adc919061148e565b90915550505050505050565b5f8060055f9054906101000a90046001600160a01b03166001600160a01b031663feaf968c6040518163ffffffff1660e01b815260040160a060405180830381865afa158015610b3a573d5f803e3d5ffd5b505050506040513d601f19601f82011682018060405250810190610b5e91906114d1565b505050915050806402540be400610b75919061151d565b91505090565b60606004805461051390611410565b5f8111610b95575f80fd5b6010546040516370a0823160e01b815233600482015282916001600160a01b0316906370a0823190602401602060405180830381865afa158015610bdb573d5f803e3d5ffd5b505050506040513d601f19601f82011682018060405250810190610bff919061154c565b1015610c4d5760405162461bcd60e51b815260206004820152601f60248201527f796f7520646f206e6f74206861766520656e6f7567682062616c6c616e6365006044820152606401610635565b6010546040516323b872dd60e01b8152336004820152306024820152604481018390526001600160a01b03909116906323b872dd906064016020604051808303815f875af1158015610ca1573d5f803e3d5ffd5b505050506040513d601f19601f82011682018060405250810190610cc59190611448565b508060075f828254610cd7919061148e565b909155505f9050610cef82610cea610da5565b610fb0565b9050610cfb3382611024565b5050565b5f3411610d0a575f80fd5b335f908152600e602052604081208054349290610d2890849061148e565b925050819055503460095f828254610d40919061148e565b9091555050565b5f336105a1818585610e94565b6001600160a01b0381165f908152600f6020908152604080832054600e909252822054909182610d8683610b54610ef1565b610d90919061147b565b9050610d9e81600654611003565b5050505050565b5f610daf60025490565b5f03610dc25750670de0b6b3a764000090565b5f600854600754610dd3919061147b565b90505f600a5460085483610de7919061148e565b610df1919061148e565b9050610e0081610cea60025490565b9250505090565b610e148383836001611058565b505050565b6001600160a01b038381165f908152600160209081526040808320938616835292905220545f198114610e8e5781811015610e8057604051637dc7a0d960e11b81526001600160a01b03841660048201526024810182905260448101839052606401610635565b610e8e84848484035f611058565b50505050565b6001600160a01b038316610ebd57604051634b637e8f60e11b81525f6004820152602401610635565b6001600160a01b038216610ee65760405163ec442f0560e01b81525f6004820152602401610635565b610e1483838361112a565b5f8080610efe8585611250565b9150915081610f11575f925050506105a7565b5f80610f3083610f2a6002670de0b6b3a7640000611577565b90611297565b9150915081610f45575f9450505050506105a7565b5f80610f5983670de0b6b3a76400006112b0565b9092509050600182151514610f7057610f70611596565b98975050505050505050565b6001600160a01b038216610fa557604051634b637e8f60e11b81525f6004820152602401610635565b610cfb825f8361112a565b5f8080610fc585670de0b6b3a7640000611250565b9150915081610fd8575f925050506105a7565b5f80610fe483876112b0565b9150915081610ff9575f9450505050506105a7565b9695505050505050565b5f80611010846005610fb0565b905061101c8184610ef1565b949350505050565b6001600160a01b03821661104d5760405163ec442f0560e01b81525f6004820152602401610635565b610cfb5f838361112a565b6001600160a01b0384166110815760405163e602df0560e01b81525f6004820152602401610635565b6001600160a01b0383166110aa57604051634a1406b160e11b81525f6004820152602401610635565b6001600160a01b038085165f9081526001602090815260408083209387168352929052208290558015610e8e57826001600160a01b0316846001600160a01b03167f8c5be1e5ebec7d5bd14f71427d1e84f3dd0314c0f7b2291e5b200ac8c7c3b9258460405161111c91815260200190565b60405180910390a350505050565b6001600160a01b038316611154578060025f828254611149919061148e565b909155506111c49050565b6001600160a01b0383165f90815260208190526040902054818110156111a65760405163391434e360e21b81526001600160a01b03851660048201526024810182905260448101839052606401610635565b6001600160a01b0384165f9081526020819052604090209082900390555b6001600160a01b0382166111e0576002805482900390556111fe565b6001600160a01b0382165f9081526020819052604090208054820190555b816001600160a01b0316836001600160a01b03167fddf252ad1be2c89b69c2b068fc378daa952ba7f163c4a11628f55a4df523b3ef8360405161124391815260200190565b60405180910390a3505050565b5f80835f036112645750600190505f611290565b8383028385828161127757611277611563565b0414611289575f809250925050611290565b6001925090505b9250929050565b5f8083830184811015611289575f809250925050611290565b5f80825f036112c357505f905080611290565b60018385816112d4576112d4611563565b04915091509250929050565b5f602080835283518060208501525f5b8181101561130c578581018301518582016040015282016112f0565b505f604082860101526040601f19601f8301168501019250505092915050565b80356001600160a01b0381168114611342575f80fd5b919050565b5f8060408385031215611358575f80fd5b6113618361132c565b946020939093013593505050565b5f805f60608486031215611381575f80fd5b61138a8461132c565b92506113986020850161132c565b9150604084013590509250925092565b5f602082840312156113b8575f80fd5b5035919050565b5f602082840312156113cf575f80fd5b6113d88261132c565b9392505050565b5f80604083850312156113f0575f80fd5b6113f98361132c565b91506114076020840161132c565b90509250929050565b600181811c9082168061142457607f821691505b60208210810361144257634e487b7160e01b5f52602260045260245ffd5b50919050565b5f60208284031215611458575f80fd5b815180151581146113d8575f80fd5b634e487b7160e01b5f52601160045260245ffd5b818103818111156105a7576105a7611467565b808201808211156105a7576105a7611467565b80820281158282048414176105a7576105a7611467565b805169ffffffffffffffffffff81168114611342575f80fd5b5f805f805f60a086880312156114e5575f80fd5b6114ee866114b8565b9450602086015193506040860151925060608601519150611511608087016114b8565b90509295509295909350565b8082025f8212600160ff1b8414161561153857611538611467565b81810583148215176105a7576105a7611467565b5f6020828403121561155c575f80fd5b5051919050565b634e487b7160e01b5f52601260045260245ffd5b5f8261159157634e487b7160e01b5f52601260045260245ffd5b500490565b634e487b7160e01b5f52600160045260245ffdfea2646970667358221220769c12fcd9c1ee958e1c7d0770432e681c515ab2828d62deba3a6e8f8633ca2e64736f6c63430008180033","linkReferences":{}},"methodIdentifiers":{"addCollateral()":"9e816999","allowance(address,address)":"dd62ed3e","approve(address,uint256)":"095ea7b3","balanceOf(address)":"70a08231","baseRate()":"1f68f20a","bond(uint256)":"9940686e","borrowDai(uint256)":"46af1cc5","borrowRate()":"c914b437","convert()":"91bbdcc7","dai()":"f4b9fa75","decimals()":"313ce567","getExchangeRate()":"e6aa216c","getLatestPrice()":"8e15f473","harvest()":"4641257d","maxLTV()":"f384bd05","name()":"06fdde03","removeCollateral(uint256)":"3237c158","repay(uint256)":"371fd8e6","symbol()":"95d89b41","totalBorrowed()":"4c19386c","totalCollateral()":"4ac8eb5f","totalDeposit()":"f6153ccd","totalReserve()":"4c68df67","totalSupply()":"18160ddd","transfer(address,uint256)":"a9059cbb","transferFrom(address,address,uint256)":"23b872dd","triggerLiquidation(address)":"b350df5d","unbond(uint256)":"27de9e32","uniswapRouter()":"735de9f7"},"id":56}