{"abi":[{"type":"constructor","inputs":[{"name":"tokenDai","type":"address","internalType":"address"}],"stateMutability":"nonpayable"},{"type":"receive","stateMutability":"payable"},{"type":"function","name":"aDai","inputs":[],"outputs":[{"name":"","type":"address","internalType":"contract IERC20"}],"stateMutability":"view"},{"type":"function","name":"aWeth","inputs":[],"outputs":[{"name":"","type":"address","internalType":"contract IERC20"}],"stateMutability":"view"},{"type":"function","name":"aave","inputs":[],"outputs":[{"name":"","type":"address","internalType":"contract ILendingPool"}],"stateMutability":"view"},{"type":"function","name":"addCollateral","inputs":[],"outputs":[],"stateMutability":"payable"},{"type":"function","name":"baseRate","inputs":[],"outputs":[{"name":"","type":"uint256","internalType":"uint256"}],"stateMutability":"view"},{"type":"function","name":"bnToken","inputs":[],"outputs":[{"name":"","type":"address","internalType":"contract Bond"}],"stateMutability":"view"},{"type":"function","name":"bond","inputs":[{"name":"amount","type":"uint256","internalType":"uint256"}],"outputs":[],"stateMutability":"nonpayable"},{"type":"function","name":"bondt","inputs":[],"outputs":[{"name":"","type":"address","internalType":"contract IERC20"}],"stateMutability":"view"},{"type":"function","name":"borrowDai","inputs":[{"name":"amount","type":"uint256","internalType":"uint256"}],"outputs":[],"stateMutability":"nonpayable"},{"type":"function","name":"borrowRate","inputs":[],"outputs":[{"name":"","type":"uint256","internalType":"uint256"}],"stateMutability":"view"},{"type":"function","name":"convert","inputs":[],"outputs":[],"stateMutability":"nonpayable"},{"type":"function","name":"dai","inputs":[],"outputs":[{"name":"","type":"address","internalType":"contract IERC20"}],"stateMutability":"view"},{"type":"function","name":"getExchangeRate","inputs":[],"outputs":[{"name":"","type":"uint256","internalType":"uint256"}],"stateMutability":"view"},{"type":"function","name":"getLatestPrice","inputs":[],"outputs":[{"name":"","type":"int256","internalType":"int256"}],"stateMutability":"view"},{"type":"function","name":"harvest","inputs":[],"outputs":[],"stateMutability":"nonpayable"},{"type":"function","name":"maxLTV","inputs":[],"outputs":[{"name":"","type":"uint256","internalType":"uint256"}],"stateMutability":"view"},{"type":"function","name":"removeCollateral","inputs":[{"name":"amount","type":"uint256","internalType":"uint256"}],"outputs":[],"stateMutability":"nonpayable"},{"type":"function","name":"repay","inputs":[{"name":"amount","type":"uint256","internalType":"uint256"}],"outputs":[],"stateMutability":"nonpayable"},{"type":"function","name":"totalBorrowed","inputs":[],"outputs":[{"name":"","type":"uint256","internalType":"uint256"}],"stateMutability":"view"},{"type":"function","name":"totalCollateral","inputs":[],"outputs":[{"name":"","type":"uint256","internalType":"uint256"}],"stateMutability":"view"},{"type":"function","name":"totalDeposit","inputs":[],"outputs":[{"name":"","type":"uint256","internalType":"uint256"}],"stateMutability":"view"},{"type":"function","name":"totalReserve","inputs":[],"outputs":[{"name":"","type":"uint256","internalType":"uint256"}],"stateMutability":"view"},{"type":"function","name":"triggerLiquidation","inputs":[{"name":"user","type":"address","internalType":"address"}],"outputs":[],"stateMutability":"nonpayable"},{"type":"function","name":"unbond","inputs":[{"name":"amount","type":"uint256","internalType":"uint256"}],"outputs":[],"stateMutability":"nonpayable"},{"type":"function","name":"uniswapRouter","inputs":[],"outputs":[{"name":"","type":"address","internalType":"contract IUniswapRouter"}],"stateMutability":"view"},{"type":"function","name":"weth","inputs":[],"outputs":[{"name":"","type":"address","internalType":"contract IERC20"}],"stateMutability":"view"},{"type":"function","name":"wethGateway","inputs":[],"outputs":[{"name":"","type":"address","internalType":"contract IWETHGateway"}],"stateMutability":"view"}],"bytecode":{"object":"0x6080604052600460015566470de4df820000600655670429d069189e0000600755600a80546001600160a01b03199081167377fde93fee5fe272dc17d799cb61447431e6eba217909155600b8054821673c8c0cf9436f4862a8f60ce680ca5a9f0f99b5ded179055600c80548216732b101efbb4dff1fbb8f87f02c560fb8ac773afc5179055600e8054909116730e426e6e6b226d8bd566e417b90411dcf14df8611790553480156100af575f80fd5b50604051611e72380380611e728339810160408190526100ce91610141565b5f80546001600160a01b0319166001600160a01b0383161790556040516100f490610134565b604051809103905ff08015801561010d573d5f803e3d5ffd5b50600f80546001600160a01b0319166001600160a01b03929092169190911790555061016e565b610988806114ea83390190565b5f60208284031215610151575f80fd5b81516001600160a01b0381168114610167575f80fd5b9392505050565b61136f8061017b5f395ff3fe608060405260043610610198575f3560e01c8063843e4fef116100e7578063b9eaa0fa11610087578063e6aa216c11610062578063e6aa216c1461042a578063f384bd051461043e578063f4b9fa7514610453578063f6153ccd14610472575f80fd5b8063b9eaa0fa146103cf578063c5e10eef146103ee578063c914b43714610415575f80fd5b80639940686e116100c25780639940686e1461036a5780639e81699914610389578063a34e8fa014610391578063b350df5d146103b0575f80fd5b8063843e4fef146103375780638e15f4731461035657806391bbdcc714610261575f80fd5b806346af1cc5116101525780634c68df671161012d5780634c68df67146102b55780635cd9ce3e146102ca578063735de9f7146102e9578063819faf7b14610310575f80fd5b806346af1cc51461026c5780634ac8eb5f1461028b5780634c19386c146102a0575f80fd5b80631f68f20a146101a357806327de9e32146101cb5780633237c158146101ec578063371fd8e61461020b5780633fc8cef31461022a5780634641257d14610261575f80fd5b3661019f57005b5f80fd5b3480156101ae575f80fd5b506101b860065481565b6040519081526020015b60405180910390f35b3480156101d6575f80fd5b506101ea6101e536600461118e565b610487565b005b3480156101f7575f80fd5b506101ea61020636600461118e565b610654565b348015610216575f80fd5b506101ea61022536600461118e565b6107b3565b348015610235575f80fd5b50600b54610249906001600160a01b031681565b6040516001600160a01b0390911681526020016101c2565b3480156101ea575f80fd5b348015610277575f80fd5b506101ea61028636600461118e565b6108ca565b348015610296575f80fd5b506101b860045481565b3480156102ab575f80fd5b506101b860035481565b3480156102c0575f80fd5b506101b860055481565b3480156102d5575f80fd5b50600e54610249906001600160a01b031681565b3480156102f4575f80fd5b506102497350443a7ce0f717f7ff5ddf6b13607269bfdc7e6581565b34801561031b575f80fd5b506102497356ab717d882f7a8d4a3c2b191707322c5cc70db881565b348015610342575f80fd5b50600d54610249906001600160a01b031681565b348015610361575f80fd5b506101b8610a59565b348015610375575f80fd5b506101ea61038436600461118e565b610ae1565b6101ea610cab565b34801561039c575f80fd5b50600c54610249906001600160a01b031681565b3480156103bb575f80fd5b506101ea6103ca3660046111a5565b610cf3565b3480156103da575f80fd5b50600f54610249906001600160a01b031681565b3480156103f9575f80fd5b50610249732fa2e7a6deb7bb51b625336dbe1da23511914a8a81565b348015610420575f80fd5b506101b860075481565b348015610435575f80fd5b506101b8610d3d565b348015610449575f80fd5b506101b860015481565b34801561045e575f80fd5b50600a54610249906001600160a01b031681565b34801561047d575f80fd5b506101b860025481565b5f8111610492575f80fd5b600f546040516370a0823160e01b815233600482015282916001600160a01b0316906370a0823190602401602060405180830381865afa1580156104d8573d5f803e3d5ffd5b505050506040513d601f19601f820116820180604052508101906104fc91906111d2565b101561054f5760405162461bcd60e51b815260206004820152601d60248201527f796f7520646f206e6f74206861766520656e6f75676820746f6b656e7300000060448201526064015b60405180910390fd5b600a546040516323b872dd60e01b8152306004820152336024820152604481018390526001600160a01b03909116906323b872dd906064016020604051808303815f875af11580156105a3573d5f803e3d5ffd5b505050506040513d601f19601f820116820180604052508101906105c791906111e9565b505f6105da826105d5610d3d565b610e6b565b600f54604051632770a7eb60e21b8152336004820152602481018390529192506001600160a01b031690639dc29fac906044015f604051808303815f87803b158015610624575f80fd5b505af1158015610636573d5f803e3d5ffd5b505050508160025f82825461064b919061121c565b90915550505050565b5f811161065f575f80fd5b335f908152600860205260409020546106ba5760405162461bcd60e51b815260206004820152601f60248201527f796f7520646f206e6f74206861766520616e7920636f6c6c61746572616c73006044820152606401610546565b335f9081526009602090815260408083205460089092528220549091826106e383610b54610e6b565b6106ed919061121c565b90505f6106fc85610b54610e6b565b90508181106107465760405162461bcd60e51b81526020600482015260166024820152750f2deea40c8de40dcdee840d0c2ecca40cadcdeeaced60531b6044820152606401610546565b335f908152600860205260408120805487929061076490849061121c565b925050819055508460045f82825461077c919061121c565b9091555050604051339086156108fc029087905f818181858888f193505050501580156107ab573d5f803e3d5ffd5b505050505050565b335f9081526009602052604090205461080e5760405162461bcd60e51b815260206004820152601860248201527f796f7520646f206e6f74206861766520616e79206465707400000000000000006044820152606401610546565b5f61081d600354600254610ef8565b90505f610839600654600754610833919061121c565b83610ef8565b90505f6006546108498484610e6b565b610853919061122f565b90505f6108608286611242565b90505f61086d828761121c565b90508160055f828254610880919061122f565b9091555050335f90815260096020526040812080548392906108a390849061121c565b925050819055508060035f8282546108bb919061121c565b909155506107ab905086610f4b565b335f908152600860205260409020546109255760405162461bcd60e51b815260206004820152601f60248201527f796f7520646f206e6f74206861766520616e7920636f6c6c61746572616c73006044820152606401610546565b335f90815260096020908152604080832054600890925282205490918261094e836105d5610a59565b610958919061121c565b90505f6109678260015461104d565b9050848110156109b95760405162461bcd60e51b815260206004820152601960248201527f796f752063616e6e6f74207061737320746865206c696d6974000000000000006044820152606401610546565b600a546040516323b872dd60e01b8152306004820152336024820152604481018790526001600160a01b03909116906323b872dd906064016020604051808303815f875af1158015610a0d573d5f803e3d5ffd5b505050506040513d601f19601f82011682018060405250810190610a3191906111e9565b508460035f828254610a43919061122f565b90915550610a5290508561106e565b5050505050565b5f805460408051633fabe5a360e21b8152905183926001600160a01b03169163feaf968c9160048083019260a09291908290030181865afa158015610aa0573d5f803e3d5ffd5b505050506040513d601f19601f82011682018060405250810190610ac49190611277565b505050915050806402540be400610adb91906112c3565b91505090565b5f8111610aec575f80fd5b600a546040516370a0823160e01b815233600482015282916001600160a01b0316906370a0823190602401602060405180830381865afa158015610b32573d5f803e3d5ffd5b505050506040513d601f19601f82011682018060405250810190610b5691906111d2565b1015610ba45760405162461bcd60e51b815260206004820152601f60248201527f796f7520646f206e6f74206861766520656e6f7567682062616c6c616e6365006044820152606401610546565b600a546040516323b872dd60e01b8152336004820152306024820152604481018390526001600160a01b03909116906323b872dd906064016020604051808303815f875af1158015610bf8573d5f803e3d5ffd5b505050506040513d601f19601f82011682018060405250810190610c1c91906111e9565b508060025f828254610c2e919061122f565b90915550610c3d905081610f4b565b5f610c4f82610c4a610d3d565b610ef8565b600f546040516340c10f1960e01b8152336004820152602481018390529192506001600160a01b0316906340c10f19906044015f604051808303815f87803b158015610c99575f80fd5b505af11580156107ab573d5f803e3d5ffd5b5f3411610cb6575f80fd5b335f9081526008602052604081208054349290610cd490849061122f565b925050819055503460045f828254610cec919061122f565b9091555050565b6001600160a01b0381165f908152600960209081526040808320546008909252822054909182610d2583610b54610e6b565b610d2f919061121c565b9050610a528160015461104d565b600f54604080516318160ddd60e01b815290515f926001600160a01b0316916318160ddd9160048083019260209291908290030181865afa158015610d84573d5f803e3d5ffd5b505050506040513d601f19601f82011682018060405250810190610da891906111d2565b5f03610dbb5750670de0b6b3a764000090565b5f600354600254610dcc919061121c565b90505f60055460035483610de0919061122f565b610dea919061122f565b9050610e6481600f5f9054906101000a90046001600160a01b03166001600160a01b03166318160ddd6040518163ffffffff1660e01b8152600401602060405180830381865afa158015610e40573d5f803e3d5ffd5b505050506040513d601f19601f82011682018060405250810190610c4a91906111d2565b9250505090565b5f8080610e7885856110fe565b9150915081610e8b575f92505050610ef2565b5f80610eaa83610ea46002670de0b6b3a7640000611306565b90611145565b9150915081610ebf575f945050505050610ef2565b5f80610ed383670de0b6b3a764000061115e565b9092509050600182151514610eea57610eea611325565b955050505050505b92915050565b5f8080610f0d85670de0b6b3a76400006110fe565b9150915081610f20575f92505050610ef2565b5f80610f2c838761115e565b9150915081610f41575f945050505050610ef2565b9695505050505050565b600a5460405163095ea7b360e01b81527356ab717d882f7a8d4a3c2b191707322c5cc70db86004820152602481018390526001600160a01b039091169063095ea7b3906044016020604051808303815f875af1158015610fad573d5f803e3d5ffd5b505050506040513d601f19601f82011682018060405250810190610fd191906111e9565b50600a5460405163e8eda9df60e01b81526001600160a01b039091166004820152602481018290523060448201525f60648201527356ab717d882f7a8d4a3c2b191707322c5cc70db89063e8eda9df906084015f604051808303815f87803b15801561103b575f80fd5b505af1158015610a52573d5f803e3d5ffd5b5f8061105a846005610ef8565b90506110668184610e6b565b949350505050565b600a54604051631a4ca37b60e21b81526001600160a01b039091166004820152602481018290523360448201527356ab717d882f7a8d4a3c2b191707322c5cc70db8906369328dec906064016020604051808303815f875af11580156110d6573d5f803e3d5ffd5b505050506040513d601f19601f820116820180604052508101906110fa91906111d2565b5050565b5f80835f036111125750600190505f61113e565b83830283858281611125576111256112f2565b0414611137575f80925092505061113e565b6001925090505b9250929050565b5f8083830184811015611137575f80925092505061113e565b5f80825f0361117157505f90508061113e565b6001838581611182576111826112f2565b04915091509250929050565b5f6020828403121561119e575f80fd5b5035919050565b5f602082840312156111b5575f80fd5b81356001600160a01b03811681146111cb575f80fd5b9392505050565b5f602082840312156111e2575f80fd5b5051919050565b5f602082840312156111f9575f80fd5b815180151581146111cb575f80fd5b634e487b7160e01b5f52601160045260245ffd5b81810381811115610ef257610ef2611208565b80820180821115610ef257610ef2611208565b8082028115828204841417610ef257610ef2611208565b805169ffffffffffffffffffff81168114611272575f80fd5b919050565b5f805f805f60a0868803121561128b575f80fd5b61129486611259565b94506020860151935060408601519250606086015191506112b760808701611259565b90509295509295909350565b8082025f8212600160ff1b841416156112de576112de611208565b8181058314821517610ef257610ef2611208565b634e487b7160e01b5f52601260045260245ffd5b5f8261132057634e487b7160e01b5f52601260045260245ffd5b500490565b634e487b7160e01b5f52600160045260245ffdfea26469706673582212200c5105dfd65ec6093c170611b505e9438b6bf615c89c1fac8e3ec74b75ff14f164736f6c63430008180033608060405234801561000f575f80fd5b5060405180604001604052806004815260200163109bdb9960e21b8152506040518060400160405280600381526020016210939160ea1b81525081600390816100589190610105565b5060046100658282610105565b5050506101c4565b634e487b7160e01b5f52604160045260245ffd5b600181811c9082168061009557607f821691505b6020821081036100b357634e487b7160e01b5f52602260045260245ffd5b50919050565b601f82111561010057805f5260205f20601f840160051c810160208510156100de5750805b601f840160051c820191505b818110156100fd575f81556001016100ea565b50505b505050565b81516001600160401b0381111561011e5761011e61006d565b6101328161012c8454610081565b846100b9565b602080601f831160018114610165575f841561014e5750858301515b5f19600386901b1c1916600185901b1785556101bc565b5f85815260208120601f198616915b8281101561019357888601518255948401946001909101908401610174565b50858210156101b057878501515f19600388901b60f8161c191681555b505060018460011b0185555b505050505050565b6107b7806101d15f395ff3fe608060405234801561000f575f80fd5b50600436106100a6575f3560e01c806340c10f191161006e57806340c10f191461011f57806370a082311461013457806395d89b411461015c5780639dc29fac14610164578063a9059cbb14610177578063dd62ed3e1461018a575f80fd5b806306fdde03146100aa578063095ea7b3146100c857806318160ddd146100eb57806323b872dd146100fd578063313ce56714610110575b5f80fd5b6100b26101c2565b6040516100bf9190610611565b60405180910390f35b6100db6100d6366004610678565b610252565b60405190151581526020016100bf565b6002545b6040519081526020016100bf565b6100db61010b3660046106a0565b61026b565b604051601281526020016100bf565b61013261012d366004610678565b61028e565b005b6100ef6101423660046106d9565b6001600160a01b03165f9081526020819052604090205490565b6100b261029c565b610132610172366004610678565b6102ab565b6100db610185366004610678565b6102b5565b6100ef6101983660046106f9565b6001600160a01b039182165f90815260016020908152604080832093909416825291909152205490565b6060600380546101d19061072a565b80601f01602080910402602001604051908101604052809291908181526020018280546101fd9061072a565b80156102485780601f1061021f57610100808354040283529160200191610248565b820191905f5260205f20905b81548152906001019060200180831161022b57829003601f168201915b5050505050905090565b5f3361025f8185856102c2565b60019150505b92915050565b5f336102788582856102d4565b610283858585610354565b506001949350505050565b61029882826103b1565b5050565b6060600480546101d19061072a565b61029882826103e5565b5f3361025f818585610354565b6102cf8383836001610419565b505050565b6001600160a01b038381165f908152600160209081526040808320938616835292905220545f19811461034e578181101561034057604051637dc7a0d960e11b81526001600160a01b038416600482015260248101829052604481018390526064015b60405180910390fd5b61034e84848484035f610419565b50505050565b6001600160a01b03831661037d57604051634b637e8f60e11b81525f6004820152602401610337565b6001600160a01b0382166103a65760405163ec442f0560e01b81525f6004820152602401610337565b6102cf8383836104eb565b6001600160a01b0382166103da5760405163ec442f0560e01b81525f6004820152602401610337565b6102985f83836104eb565b6001600160a01b03821661040e57604051634b637e8f60e11b81525f6004820152602401610337565b610298825f836104eb565b6001600160a01b0384166104425760405163e602df0560e01b81525f6004820152602401610337565b6001600160a01b03831661046b57604051634a1406b160e11b81525f6004820152602401610337565b6001600160a01b038085165f908152600160209081526040808320938716835292905220829055801561034e57826001600160a01b0316846001600160a01b03167f8c5be1e5ebec7d5bd14f71427d1e84f3dd0314c0f7b2291e5b200ac8c7c3b925846040516104dd91815260200190565b60405180910390a350505050565b6001600160a01b038316610515578060025f82825461050a9190610762565b909155506105859050565b6001600160a01b0383165f90815260208190526040902054818110156105675760405163391434e360e21b81526001600160a01b03851660048201526024810182905260448101839052606401610337565b6001600160a01b0384165f9081526020819052604090209082900390555b6001600160a01b0382166105a1576002805482900390556105bf565b6001600160a01b0382165f9081526020819052604090208054820190555b816001600160a01b0316836001600160a01b03167fddf252ad1be2c89b69c2b068fc378daa952ba7f163c4a11628f55a4df523b3ef8360405161060491815260200190565b60405180910390a3505050565b5f602080835283518060208501525f5b8181101561063d57858101830151858201604001528201610621565b505f604082860101526040601f19601f8301168501019250505092915050565b80356001600160a01b0381168114610673575f80fd5b919050565b5f8060408385031215610689575f80fd5b6106928361065d565b946020939093013593505050565b5f805f606084860312156106b2575f80fd5b6106bb8461065d565b92506106c96020850161065d565b9150604084013590509250925092565b5f602082840312156106e9575f80fd5b6106f28261065d565b9392505050565b5f806040838503121561070a575f80fd5b6107138361065d565b91506107216020840161065d565b90509250929050565b600181811c9082168061073e57607f821691505b60208210810361075c57634e487b7160e01b5f52602260045260245ffd5b50919050565b8082018082111561026557634e487b7160e01b5f52601160045260245ffdfea26469706673582212201374e0b5dec53ad378f8a7279f64978e9b7fe6a6d71138e64b9f69ff6e44edd164736f6c63430008180033","linkReferences":{}},"methodIdentifiers":{"aDai()":"a34e8fa0","aWeth()":"5cd9ce3e","aave()":"819faf7b","addCollateral()":"9e816999","baseRate()":"1f68f20a","bnToken()":"b9eaa0fa","bond(uint256)":"9940686e","bondt()":"843e4fef","borrowDai(uint256)":"46af1cc5","borrowRate()":"c914b437","convert()":"91bbdcc7","dai()":"f4b9fa75","getExchangeRate()":"e6aa216c","getLatestPrice()":"8e15f473","harvest()":"4641257d","maxLTV()":"f384bd05","removeCollateral(uint256)":"3237c158","repay(uint256)":"371fd8e6","totalBorrowed()":"4c19386c","totalCollateral()":"4ac8eb5f","totalDeposit()":"f6153ccd","totalReserve()":"4c68df67","triggerLiquidation(address)":"b350df5d","unbond(uint256)":"27de9e32","uniswapRouter()":"735de9f7","weth()":"3fc8cef3","wethGateway()":"c5e10eef"},"id":60}