{"abi":[{"type":"constructor","inputs":[{"name":"tokenDai","type":"address","internalType":"address"}],"stateMutability":"nonpayable"},{"type":"receive","stateMutability":"payable"},{"type":"function","name":"_getLatestPrice","inputs":[],"outputs":[{"name":"","type":"int256","internalType":"int256"}],"stateMutability":"view"},{"type":"function","name":"addCollateral","inputs":[],"outputs":[],"stateMutability":"payable"},{"type":"function","name":"allowance","inputs":[{"name":"owner","type":"address","internalType":"address"},{"name":"spender","type":"address","internalType":"address"}],"outputs":[{"name":"","type":"uint256","internalType":"uint256"}],"stateMutability":"view"},{"type":"function","name":"approve","inputs":[{"name":"spender","type":"address","internalType":"address"},{"name":"value","type":"uint256","internalType":"uint256"}],"outputs":[{"name":"","type":"bool","internalType":"bool"}],"stateMutability":"nonpayable"},{"type":"function","name":"balanceOf","inputs":[{"name":"account","type":"address","internalType":"address"}],"outputs":[{"name":"","type":"uint256","internalType":"uint256"}],"stateMutability":"view"},{"type":"function","name":"baseRate","inputs":[],"outputs":[{"name":"","type":"uint256","internalType":"uint256"}],"stateMutability":"view"},{"type":"function","name":"bond","inputs":[{"name":"amount","type":"uint256","internalType":"uint256"}],"outputs":[],"stateMutability":"nonpayable"},{"type":"function","name":"borrowDai","inputs":[{"name":"amount","type":"uint256","internalType":"uint256"}],"outputs":[],"stateMutability":"nonpayable"},{"type":"function","name":"borrowRate","inputs":[],"outputs":[{"name":"","type":"uint256","internalType":"uint256"}],"stateMutability":"view"},{"type":"function","name":"convert","inputs":[],"outputs":[],"stateMutability":"nonpayable"},{"type":"function","name":"dai","inputs":[],"outputs":[{"name":"","type":"address","internalType":"contract IERC20"}],"stateMutability":"view"},{"type":"function","name":"decimals","inputs":[],"outputs":[{"name":"","type":"uint8","internalType":"uint8"}],"stateMutability":"view"},{"type":"function","name":"getExchangeRate","inputs":[],"outputs":[{"name":"","type":"uint256","internalType":"uint256"}],"stateMutability":"view"},{"type":"function","name":"harvest","inputs":[],"outputs":[],"stateMutability":"nonpayable"},{"type":"function","name":"maxLTV","inputs":[],"outputs":[{"name":"","type":"uint256","internalType":"uint256"}],"stateMutability":"view"},{"type":"function","name":"name","inputs":[],"outputs":[{"name":"","type":"string","internalType":"string"}],"stateMutability":"view"},{"type":"function","name":"removeCollateral","inputs":[{"name":"amount","type":"uint256","internalType":"uint256"}],"outputs":[],"stateMutability":"nonpayable"},{"type":"function","name":"repay","inputs":[{"name":"amount","type":"uint256","internalType":"uint256"}],"outputs":[],"stateMutability":"nonpayable"},{"type":"function","name":"symbol","inputs":[],"outputs":[{"name":"","type":"string","internalType":"string"}],"stateMutability":"view"},{"type":"function","name":"totalBorrowed","inputs":[],"outputs":[{"name":"","type":"uint256","internalType":"uint256"}],"stateMutability":"view"},{"type":"function","name":"totalCollateral","inputs":[],"outputs":[{"name":"","type":"uint256","internalType":"uint256"}],"stateMutability":"view"},{"type":"function","name":"totalDeposit","inputs":[],"outputs":[{"name":"","type":"uint256","internalType":"uint256"}],"stateMutability":"view"},{"type":"function","name":"totalReserve","inputs":[],"outputs":[{"name":"","type":"uint256","internalType":"uint256"}],"stateMutability":"view"},{"type":"function","name":"totalSupply","inputs":[],"outputs":[{"name":"","type":"uint256","internalType":"uint256"}],"stateMutability":"view"},{"type":"function","name":"transfer","inputs":[{"name":"to","type":"address","internalType":"address"},{"name":"value","type":"uint256","internalType":"uint256"}],"outputs":[{"name":"","type":"bool","internalType":"bool"}],"stateMutability":"nonpayable"},{"type":"function","name":"transferFrom","inputs":[{"name":"from","type":"address","internalType":"address"},{"name":"to","type":"address","internalType":"address"},{"name":"value","type":"uint256","internalType":"uint256"}],"outputs":[{"name":"","type":"bool","internalType":"bool"}],"stateMutability":"nonpayable"},{"type":"function","name":"triggerLiquidation","inputs":[{"name":"user","type":"address","internalType":"address"}],"outputs":[],"stateMutability":"nonpayable"},{"type":"function","name":"unbond","inputs":[{"name":"amount","type":"uint256","internalType":"uint256"}],"outputs":[],"stateMutability":"nonpayable"},{"type":"event","name":"Approval","inputs":[{"name":"owner","type":"address","indexed":true,"internalType":"address"},{"name":"spender","type":"address","indexed":true,"internalType":"address"},{"name":"value","type":"uint256","indexed":false,"internalType":"uint256"}],"anonymous":false},{"type":"event","name":"Transfer","inputs":[{"name":"from","type":"address","indexed":true,"internalType":"address"},{"name":"to","type":"address","indexed":true,"internalType":"address"},{"name":"value","type":"uint256","indexed":false,"internalType":"uint256"}],"anonymous":false},{"type":"error","name":"ERC20InsufficientAllowance","inputs":[{"name":"spender","type":"address","internalType":"address"},{"name":"allowance","type":"uint256","internalType":"uint256"},{"name":"needed","type":"uint256","internalType":"uint256"}]},{"type":"error","name":"ERC20InsufficientBalance","inputs":[{"name":"sender","type":"address","internalType":"address"},{"name":"balance","type":"uint256","internalType":"uint256"},{"name":"needed","type":"uint256","internalType":"uint256"}]},{"type":"error","name":"ERC20InvalidApprover","inputs":[{"name":"approver","type":"address","internalType":"address"}]},{"type":"error","name":"ERC20InvalidReceiver","inputs":[{"name":"receiver","type":"address","internalType":"address"}]},{"type":"error","name":"ERC20InvalidSender","inputs":[{"name":"sender","type":"address","internalType":"address"}]},{"type":"error","name":"ERC20InvalidSpender","inputs":[{"name":"spender","type":"address","internalType":"address"}]}],"bytecode":{"object":"0x6080604052600460065566470de4df820000600b55670429d069189e0000600c553480156200002c575f80fd5b5060405162001835380380620018358339810160408190526200004f91620000e1565b6040518060400160405280600a8152602001693137b732103a37b5b2b760b11b81525060405180604001604052806002815260200161189d60f21b81525081600390816200009e9190620001ae565b506004620000ad8282620001ae565b5050600f80546001600160a01b039093166001600160a01b031993841681179091556005805490931617909155506200027a565b5f60208284031215620000f2575f80fd5b81516001600160a01b038116811462000109575f80fd5b9392505050565b634e487b7160e01b5f52604160045260245ffd5b600181811c908216806200013957607f821691505b6020821081036200015857634e487b7160e01b5f52602260045260245ffd5b50919050565b601f821115620001a957805f5260205f20601f840160051c81016020851015620001855750805b601f840160051c820191505b81811015620001a6575f815560010162000191565b50505b505050565b81516001600160401b03811115620001ca57620001ca62000110565b620001e281620001db845462000124565b846200015e565b602080601f83116001811462000218575f8415620002005750858301515b5f19600386901b1c1916600185901b17855562000272565b5f85815260208120601f198616915b82811015620002485788860151825594840194600190910190840162000227565b50858210156200026657878501515f19600388901b60f8161c191681555b505060018460011b0185555b505050505050565b6115ad80620002885f395ff3fe6080604052600436106101b2575f3560e01c806370a08231116100e7578063c0e0982e11610087578063e6aa216c11610062578063e6aa216c14610465578063f384bd0514610479578063f4b9fa751461048e578063f6153ccd146104c5575f80fd5b8063c0e0982e146103f8578063c914b4371461040c578063dd62ed3e14610421575f80fd5b80639940686e116100c25780639940686e146103935780639e816999146103b2578063a9059cbb146103ba578063b350df5d146103d9575f80fd5b806370a082311461034b57806391bbdcc7146102e257806395d89b411461037f575f80fd5b80633237c1581161015257806346af1cc51161012d57806346af1cc5146102ed5780634ac8eb5f1461030c5780634c19386c146103215780634c68df6714610336575f80fd5b80633237c158146102a4578063371fd8e6146102c35780634641257d146102e2575f80fd5b80631f68f20a1161018d5780631f68f20a1461023457806323b872dd1461024957806327de9e3214610268578063313ce56714610289575f80fd5b806306fdde03146101bd578063095ea7b3146101e757806318160ddd14610216575f80fd5b366101b957005b5f80fd5b3480156101c8575f80fd5b506101d16104da565b6040516101de91906112ad565b60405180910390f35b3480156101f2575f80fd5b50610206610201366004611314565b61056a565b60405190151581526020016101de565b348015610221575f80fd5b506002545b6040519081526020016101de565b34801561023f575f80fd5b50610226600b5481565b348015610254575f80fd5b5061020661026336600461133c565b610583565b348015610273575f80fd5b50610287610282366004611375565b6105a6565b005b348015610294575f80fd5b50604051601281526020016101de565b3480156102af575f80fd5b506102876102be366004611375565b6106c5565b3480156102ce575f80fd5b506102876102dd366004611375565b610824565b348015610287575f80fd5b3480156102f8575f80fd5b50610287610307366004611375565b610939565b348015610317575f80fd5b5061022660095481565b34801561032c575f80fd5b5061022660085481565b348015610341575f80fd5b50610226600a5481565b348015610356575f80fd5b5061022661036536600461138c565b6001600160a01b03165f9081526020819052604090205490565b34801561038a575f80fd5b506101d1610abe565b34801561039e575f80fd5b506102876103ad366004611375565b610acd565b610287610c42565b3480156103c5575f80fd5b506102066103d4366004611314565b610c8a565b3480156103e4575f80fd5b506102876103f336600461138c565b610c97565b348015610403575f80fd5b50610226610cdf565b348015610417575f80fd5b50610226600c5481565b34801561042c575f80fd5b5061022661043b3660046113ac565b6001600160a01b039182165f90815260016020908152604080832093909416825291909152205490565b348015610470575f80fd5b50610226610d72565b348015610484575f80fd5b5061022660065481565b348015610499575f80fd5b50600f546104ad906001600160a01b031681565b6040516001600160a01b0390911681526020016101de565b3480156104d0575f80fd5b5061022660075481565b6060600380546104e9906113dd565b80601f0160208091040260200160405190810160405280929190818152602001828054610515906113dd565b80156105605780601f1061053757610100808354040283529160200191610560565b820191905f5260205f20905b81548152906001019060200180831161054357829003601f168201915b5050505050905090565b5f33610577818585610dd4565b60019150505b92915050565b5f33610590858285610de6565b61059b858585610e61565b506001949350505050565b5f81116105b1575f80fd5b335f908152602081905260409020548111156106145760405162461bcd60e51b815260206004820152601d60248201527f796f7520646f206e6f74206861766520656e6f75676820746f6b656e7300000060448201526064015b60405180910390fd5b600f546040516323b872dd60e01b8152306004820152336024820152604481018390526001600160a01b03909116906323b872dd906064016020604051808303815f875af1158015610668573d5f803e3d5ffd5b505050506040513d601f19601f8201168201806040525081019061068c9190611415565b505f61069f8261069a610d72565b610ebe565b90506106ab3382610f49565b8160075f8282546106bc9190611448565b90915550505050565b5f81116106d0575f80fd5b335f908152600d602052604090205461072b5760405162461bcd60e51b815260206004820152601f60248201527f796f7520646f206e6f74206861766520616e7920636f6c6c61746572616c7300604482015260640161060b565b335f908152600e6020908152604080832054600d90925282205490918261075483610b54610ebe565b61075e9190611448565b90505f61076d85610b54610ebe565b90508181106107b75760405162461bcd60e51b81526020600482015260166024820152750f2deea40c8de40dcdee840d0c2ecca40cadcdeeaced60531b604482015260640161060b565b335f908152600d6020526040812080548792906107d5908490611448565b925050819055508460095f8282546107ed9190611448565b9091555050604051339086156108fc029087905f818181858888f1935050505015801561081c573d5f803e3d5ffd5b505050505050565b335f908152600e602052604090205461087f5760405162461bcd60e51b815260206004820152601860248201527f796f7520646f206e6f74206861766520616e7920646570740000000000000000604482015260640161060b565b5f61088e600854600754610f7d565b90505f6108aa600b54600c546108a49190611448565b83610f7d565b90505f600b546108ba8484610ebe565b6108c4919061145b565b90505f6108d1828661146e565b90505f6108de8287611448565b905081600a5f8282546108f1919061145b565b9091555050335f908152600e602052604081208054839290610914908490611448565b925050819055508060085f82825461092c9190611448565b9091555050505050505050565b335f908152600d60205260409020546109945760405162461bcd60e51b815260206004820152601f60248201527f796f7520646f206e6f74206861766520616e7920636f6c6c61746572616c7300604482015260640161060b565b335f908152600e6020908152604080832054600d9092528220549091826109bd83610b54610ebe565b6109c79190611448565b90505f6109d682600654610fd0565b905084811015610a285760405162461bcd60e51b815260206004820152601960248201527f796f752063616e6e6f74207061737320746865206c696d697400000000000000604482015260640161060b565b600f546040516323b872dd60e01b8152306004820152336024820152604481018790526001600160a01b03909116906323b872dd906064016020604051808303815f875af1158015610a7c573d5f803e3d5ffd5b505050506040513d601f19601f82011682018060405250810190610aa09190611415565b508460085f828254610ab2919061145b565b90915550505050505050565b6060600480546104e9906113dd565b5f8111610ad8575f80fd5b600f546040516370a0823160e01b815233600482015282916001600160a01b0316906370a0823190602401602060405180830381865afa158015610b1e573d5f803e3d5ffd5b505050506040513d601f19601f82011682018060405250810190610b429190611485565b1015610b905760405162461bcd60e51b815260206004820152601f60248201527f796f7520646f206e6f74206861766520656e6f7567682062616c6c616e636500604482015260640161060b565b600f546040516323b872dd60e01b8152336004820152306024820152604481018390526001600160a01b03909116906323b872dd906064016020604051808303815f875af1158015610be4573d5f803e3d5ffd5b505050506040513d601f19601f82011682018060405250810190610c089190611415565b508060075f828254610c1a919061145b565b909155505f9050610c3282610c2d610d72565b610f7d565b9050610c3e3382610ff1565b5050565b5f3411610c4d575f80fd5b335f908152600d602052604081208054349290610c6b90849061145b565b925050819055503460095f828254610c83919061145b565b9091555050565b5f33610577818585610e61565b335f908152600e6020908152604080832054600d909252822054909182610cc083610b54610ebe565b610cca9190611448565b9050610cd881600654610fd0565b5050505050565b5f8060055f9054906101000a90046001600160a01b03166001600160a01b031663feaf968c6040518163ffffffff1660e01b815260040160a060405180830381865afa158015610d31573d5f803e3d5ffd5b505050506040513d601f19601f82011682018060405250810190610d5591906114b5565b505050915050806402540be400610d6c9190611501565b91505090565b5f610d7c60025490565b5f03610d8f5750670de0b6b3a764000090565b5f600854600754610da09190611448565b90505f600a5460085483610db4919061145b565b610dbe919061145b565b9050610dcd81610c2d60025490565b9250505090565b610de18383836001611025565b505050565b6001600160a01b038381165f908152600160209081526040808320938616835292905220545f198114610e5b5781811015610e4d57604051637dc7a0d960e11b81526001600160a01b0384166004820152602481018290526044810183905260640161060b565b610e5b84848484035f611025565b50505050565b6001600160a01b038316610e8a57604051634b637e8f60e11b81525f600482015260240161060b565b6001600160a01b038216610eb35760405163ec442f0560e01b81525f600482015260240161060b565b610de18383836110f7565b5f8080610ecb858561121d565b9150915081610ede575f9250505061057d565b5f80610efd83610ef76002670de0b6b3a7640000611544565b90611264565b9150915081610f12575f94505050505061057d565b5f80610f2683670de0b6b3a764000061127d565b9092509050600182151514610f3d57610f3d611563565b98975050505050505050565b6001600160a01b038216610f7257604051634b637e8f60e11b81525f600482015260240161060b565b610c3e825f836110f7565b5f8080610f9285670de0b6b3a764000061121d565b9150915081610fa5575f9250505061057d565b5f80610fb1838761127d565b9150915081610fc6575f94505050505061057d565b9695505050505050565b5f80610fdd846005610f7d565b9050610fe98184610ebe565b949350505050565b6001600160a01b03821661101a5760405163ec442f0560e01b81525f600482015260240161060b565b610c3e5f83836110f7565b6001600160a01b03841661104e5760405163e602df0560e01b81525f600482015260240161060b565b6001600160a01b03831661107757604051634a1406b160e11b81525f600482015260240161060b565b6001600160a01b038085165f9081526001602090815260408083209387168352929052208290558015610e5b57826001600160a01b0316846001600160a01b03167f8c5be1e5ebec7d5bd14f71427d1e84f3dd0314c0f7b2291e5b200ac8c7c3b925846040516110e991815260200190565b60405180910390a350505050565b6001600160a01b038316611121578060025f828254611116919061145b565b909155506111919050565b6001600160a01b0383165f90815260208190526040902054818110156111735760405163391434e360e21b81526001600160a01b0385166004820152602481018290526044810183905260640161060b565b6001600160a01b0384165f9081526020819052604090209082900390555b6001600160a01b0382166111ad576002805482900390556111cb565b6001600160a01b0382165f9081526020819052604090208054820190555b816001600160a01b0316836001600160a01b03167fddf252ad1be2c89b69c2b068fc378daa952ba7f163c4a11628f55a4df523b3ef8360405161121091815260200190565b60405180910390a3505050565b5f80835f036112315750600190505f61125d565b8383028385828161124457611244611530565b0414611256575f80925092505061125d565b6001925090505b9250929050565b5f8083830184811015611256575f80925092505061125d565b5f80825f0361129057505f90508061125d565b60018385816112a1576112a1611530565b04915091509250929050565b5f602080835283518060208501525f5b818110156112d9578581018301518582016040015282016112bd565b505f604082860101526040601f19601f8301168501019250505092915050565b80356001600160a01b038116811461130f575f80fd5b919050565b5f8060408385031215611325575f80fd5b61132e836112f9565b946020939093013593505050565b5f805f6060848603121561134e575f80fd5b611357846112f9565b9250611365602085016112f9565b9150604084013590509250925092565b5f60208284031215611385575f80fd5b5035919050565b5f6020828403121561139c575f80fd5b6113a5826112f9565b9392505050565b5f80604083850312156113bd575f80fd5b6113c6836112f9565b91506113d4602084016112f9565b90509250929050565b600181811c908216806113f157607f821691505b60208210810361140f57634e487b7160e01b5f52602260045260245ffd5b50919050565b5f60208284031215611425575f80fd5b815180151581146113a5575f80fd5b634e487b7160e01b5f52601160045260245ffd5b8181038181111561057d5761057d611434565b8082018082111561057d5761057d611434565b808202811582820484141761057d5761057d611434565b5f60208284031215611495575f80fd5b5051919050565b805169ffffffffffffffffffff8116811461130f575f80fd5b5f805f805f60a086880312156114c9575f80fd5b6114d28661149c565b94506020860151935060408601519250606086015191506114f56080870161149c565b90509295509295909350565b8082025f8212600160ff1b8414161561151c5761151c611434565b818105831482151761057d5761057d611434565b634e487b7160e01b5f52601260045260245ffd5b5f8261155e57634e487b7160e01b5f52601260045260245ffd5b500490565b634e487b7160e01b5f52600160045260245ffdfea26469706673582212205c6003b994c4fdde384deaf20edba9a555e2e1bbf0e559559b3f159adc6a623264736f6c63430008180033","linkReferences":{}},"methodIdentifiers":{"_getLatestPrice()":"c0e0982e","addCollateral()":"9e816999","allowance(address,address)":"dd62ed3e","approve(address,uint256)":"095ea7b3","balanceOf(address)":"70a08231","baseRate()":"1f68f20a","bond(uint256)":"9940686e","borrowDai(uint256)":"46af1cc5","borrowRate()":"c914b437","convert()":"91bbdcc7","dai()":"f4b9fa75","decimals()":"313ce567","getExchangeRate()":"e6aa216c","harvest()":"4641257d","maxLTV()":"f384bd05","name()":"06fdde03","removeCollateral(uint256)":"3237c158","repay(uint256)":"371fd8e6","symbol()":"95d89b41","totalBorrowed()":"4c19386c","totalCollateral()":"4ac8eb5f","totalDeposit()":"f6153ccd","totalReserve()":"4c68df67","totalSupply()":"18160ddd","transfer(address,uint256)":"a9059cbb","transferFrom(address,address,uint256)":"23b872dd","triggerLiquidation(address)":"b350df5d","unbond(uint256)":"27de9e32"},"id":56}