{"abi":[{"type":"constructor","inputs":[{"name":"tokenDai","type":"address","internalType":"address"}],"stateMutability":"nonpayable"},{"type":"receive","stateMutability":"payable"},{"type":"function","name":"aDai","inputs":[],"outputs":[{"name":"","type":"address","internalType":"contract IERC20"}],"stateMutability":"view"},{"type":"function","name":"aWeth","inputs":[],"outputs":[{"name":"","type":"address","internalType":"contract IERC20"}],"stateMutability":"view"},{"type":"function","name":"aave","inputs":[],"outputs":[{"name":"","type":"address","internalType":"contract ILendingPool"}],"stateMutability":"view"},{"type":"function","name":"addCollateral","inputs":[],"outputs":[],"stateMutability":"payable"},{"type":"function","name":"allowance","inputs":[{"name":"owner","type":"address","internalType":"address"},{"name":"spender","type":"address","internalType":"address"}],"outputs":[{"name":"","type":"uint256","internalType":"uint256"}],"stateMutability":"view"},{"type":"function","name":"approve","inputs":[{"name":"spender","type":"address","internalType":"address"},{"name":"value","type":"uint256","internalType":"uint256"}],"outputs":[{"name":"","type":"bool","internalType":"bool"}],"stateMutability":"nonpayable"},{"type":"function","name":"balanceOf","inputs":[{"name":"account","type":"address","internalType":"address"}],"outputs":[{"name":"","type":"uint256","internalType":"uint256"}],"stateMutability":"view"},{"type":"function","name":"baseRate","inputs":[],"outputs":[{"name":"","type":"uint256","internalType":"uint256"}],"stateMutability":"view"},{"type":"function","name":"bond","inputs":[{"name":"amount","type":"uint256","internalType":"uint256"}],"outputs":[],"stateMutability":"nonpayable"},{"type":"function","name":"bondt","inputs":[],"outputs":[{"name":"","type":"address","internalType":"contract IERC20"}],"stateMutability":"view"},{"type":"function","name":"borrowDai","inputs":[{"name":"amount","type":"uint256","internalType":"uint256"}],"outputs":[],"stateMutability":"nonpayable"},{"type":"function","name":"borrowRate","inputs":[],"outputs":[{"name":"","type":"uint256","internalType":"uint256"}],"stateMutability":"view"},{"type":"function","name":"convert","inputs":[],"outputs":[],"stateMutability":"nonpayable"},{"type":"function","name":"dai","inputs":[],"outputs":[{"name":"","type":"address","internalType":"contract IERC20"}],"stateMutability":"view"},{"type":"function","name":"decimals","inputs":[],"outputs":[{"name":"","type":"uint8","internalType":"uint8"}],"stateMutability":"view"},{"type":"function","name":"getExchangeRate","inputs":[],"outputs":[{"name":"","type":"uint256","internalType":"uint256"}],"stateMutability":"view"},{"type":"function","name":"getLatestPrice","inputs":[],"outputs":[{"name":"","type":"int256","internalType":"int256"}],"stateMutability":"view"},{"type":"function","name":"harvest","inputs":[],"outputs":[],"stateMutability":"nonpayable"},{"type":"function","name":"maxLTV","inputs":[],"outputs":[{"name":"","type":"uint256","internalType":"uint256"}],"stateMutability":"view"},{"type":"function","name":"name","inputs":[],"outputs":[{"name":"","type":"string","internalType":"string"}],"stateMutability":"view"},{"type":"function","name":"removeCollateral","inputs":[{"name":"amount","type":"uint256","internalType":"uint256"}],"outputs":[],"stateMutability":"nonpayable"},{"type":"function","name":"repay","inputs":[{"name":"amount","type":"uint256","internalType":"uint256"}],"outputs":[],"stateMutability":"nonpayable"},{"type":"function","name":"symbol","inputs":[],"outputs":[{"name":"","type":"string","internalType":"string"}],"stateMutability":"view"},{"type":"function","name":"totalBorrowed","inputs":[],"outputs":[{"name":"","type":"uint256","internalType":"uint256"}],"stateMutability":"view"},{"type":"function","name":"totalCollateral","inputs":[],"outputs":[{"name":"","type":"uint256","internalType":"uint256"}],"stateMutability":"view"},{"type":"function","name":"totalDeposit","inputs":[],"outputs":[{"name":"","type":"uint256","internalType":"uint256"}],"stateMutability":"view"},{"type":"function","name":"totalReserve","inputs":[],"outputs":[{"name":"","type":"uint256","internalType":"uint256"}],"stateMutability":"view"},{"type":"function","name":"totalSupply","inputs":[],"outputs":[{"name":"","type":"uint256","internalType":"uint256"}],"stateMutability":"view"},{"type":"function","name":"transfer","inputs":[{"name":"to","type":"address","internalType":"address"},{"name":"value","type":"uint256","internalType":"uint256"}],"outputs":[{"name":"","type":"bool","internalType":"bool"}],"stateMutability":"nonpayable"},{"type":"function","name":"transferFrom","inputs":[{"name":"from","type":"address","internalType":"address"},{"name":"to","type":"address","internalType":"address"},{"name":"value","type":"uint256","internalType":"uint256"}],"outputs":[{"name":"","type":"bool","internalType":"bool"}],"stateMutability":"nonpayable"},{"type":"function","name":"triggerLiquidation","inputs":[{"name":"user","type":"address","internalType":"address"}],"outputs":[],"stateMutability":"nonpayable"},{"type":"function","name":"unbond","inputs":[{"name":"amount","type":"uint256","internalType":"uint256"}],"outputs":[],"stateMutability":"nonpayable"},{"type":"function","name":"uniswapRouter","inputs":[],"outputs":[{"name":"","type":"address","internalType":"contract IUniswapRouter"}],"stateMutability":"view"},{"type":"function","name":"weth","inputs":[],"outputs":[{"name":"","type":"address","internalType":"contract IERC20"}],"stateMutability":"view"},{"type":"function","name":"wethGateway","inputs":[],"outputs":[{"name":"","type":"address","internalType":"contract IWETHGateway"}],"stateMutability":"view"},{"type":"event","name":"Approval","inputs":[{"name":"owner","type":"address","indexed":true,"internalType":"address"},{"name":"spender","type":"address","indexed":true,"internalType":"address"},{"name":"value","type":"uint256","indexed":false,"internalType":"uint256"}],"anonymous":false},{"type":"event","name":"Transfer","inputs":[{"name":"from","type":"address","indexed":true,"internalType":"address"},{"name":"to","type":"address","indexed":true,"internalType":"address"},{"name":"value","type":"uint256","indexed":false,"internalType":"uint256"}],"anonymous":false},{"type":"error","name":"ERC20InsufficientAllowance","inputs":[{"name":"spender","type":"address","internalType":"address"},{"name":"allowance","type":"uint256","internalType":"uint256"},{"name":"needed","type":"uint256","internalType":"uint256"}]},{"type":"error","name":"ERC20InsufficientBalance","inputs":[{"name":"sender","type":"address","internalType":"address"},{"name":"balance","type":"uint256","internalType":"uint256"},{"name":"needed","type":"uint256","internalType":"uint256"}]},{"type":"error","name":"ERC20InvalidApprover","inputs":[{"name":"approver","type":"address","internalType":"address"}]},{"type":"error","name":"ERC20InvalidReceiver","inputs":[{"name":"receiver","type":"address","internalType":"address"}]},{"type":"error","name":"ERC20InvalidSender","inputs":[{"name":"sender","type":"address","internalType":"address"}]},{"type":"error","name":"ERC20InvalidSpender","inputs":[{"name":"spender","type":"address","internalType":"address"}]}],"bytecode":{"object":"0x6080604052600460065566470de4df820000600b55670429d069189e0000600c55600f80546001600160a01b03199081167377fde93fee5fe272dc17d799cb61447431e6eba21790915560108054821673c8c0cf9436f4862a8f60ce680ca5a9f0f99b5ded179055601180548216732b101efbb4dff1fbb8f87f02c560fb8ac773afc517905560138054909116730e426e6e6b226d8bd566e417b90411dcf14df861179055348015620000b0575f80fd5b5060405162001b9238038062001b92833981016040819052620000d3916200015b565b6040518060400160405280600a8152602001693137b732103a37b5b2b760b11b81525060405180604001604052806002815260200161189d60f21b815250816003908162000122919062000228565b50600462000131828262000228565b5050600580546001600160a01b0319166001600160a01b03939093169290921790915550620002f4565b5f602082840312156200016c575f80fd5b81516001600160a01b038116811462000183575f80fd5b9392505050565b634e487b7160e01b5f52604160045260245ffd5b600181811c90821680620001b357607f821691505b602082108103620001d257634e487b7160e01b5f52602260045260245ffd5b50919050565b601f8211156200022357805f5260205f20601f840160051c81016020851015620001ff5750805b601f840160051c820191505b8181101562000220575f81556001016200020b565b50505b505050565b81516001600160401b038111156200024457620002446200018a565b6200025c816200025584546200019e565b84620001d8565b602080601f83116001811462000292575f84156200027a5750858301515b5f19600386901b1c1916600185901b178555620002ec565b5f85815260208120601f198616915b82811015620002c257888601518255948401946001909101908401620002a1565b5085821015620002e057878501515f19600388901b60f8161c191681555b505060018460011b0185555b505050505050565b61189080620003025f395ff3fe6080604052600436106101ff575f3560e01c8063735de9f711610113578063a9059cbb1161009d578063dd62ed3e1161006d578063dd62ed3e14610577578063e6aa216c146105bb578063f384bd05146105cf578063f4b9fa75146105e4578063f6153ccd14610603575f80fd5b8063a9059cbb146104fd578063b350df5d1461051c578063c5e10eef1461053b578063c914b43714610562575f80fd5b806391bbdcc7116100e357806391bbdcc71461036657806395d89b41146104a35780639940686e146104b75780639e816999146104d6578063a34e8fa0146104de575f80fd5b8063735de9f714610422578063819faf7b14610449578063843e4fef146104705780638e15f4731461048f575f80fd5b8063371fd8e6116101945780634ac8eb5f116101645780634ac8eb5f146103905780634c19386c146103a55780634c68df67146103ba5780635cd9ce3e146103cf57806370a08231146103ee575f80fd5b8063371fd8e6146103105780633fc8cef31461032f5780634641257d1461036657806346af1cc514610371575f80fd5b806323b872dd116101cf57806323b872dd1461029657806327de9e32146102b5578063313ce567146102d65780633237c158146102f1575f80fd5b806306fdde031461020a578063095ea7b31461023457806318160ddd146102635780631f68f20a14610281575f80fd5b3661020657005b5f80fd5b348015610215575f80fd5b5061021e610618565b60405161022b9190611590565b60405180910390f35b34801561023f575f80fd5b5061025361024e3660046115f7565b6106a8565b604051901515815260200161022b565b34801561026e575f80fd5b506002545b60405190815260200161022b565b34801561028c575f80fd5b50610273600b5481565b3480156102a1575f80fd5b506102536102b036600461161f565b6106c1565b3480156102c0575f80fd5b506102d46102cf366004611658565b6106e4565b005b3480156102e1575f80fd5b506040516012815260200161022b565b3480156102fc575f80fd5b506102d461030b366004611658565b610803565b34801561031b575f80fd5b506102d461032a366004611658565b610962565b34801561033a575f80fd5b5060105461034e906001600160a01b031681565b6040516001600160a01b03909116815260200161022b565b3480156102d4575f80fd5b34801561037c575f80fd5b506102d461038b366004611658565b610a79565b34801561039b575f80fd5b5061027360095481565b3480156103b0575f80fd5b5061027360085481565b3480156103c5575f80fd5b50610273600a5481565b3480156103da575f80fd5b5060135461034e906001600160a01b031681565b3480156103f9575f80fd5b5061027361040836600461166f565b6001600160a01b03165f9081526020819052604090205490565b34801561042d575f80fd5b5061034e7350443a7ce0f717f7ff5ddf6b13607269bfdc7e6581565b348015610454575f80fd5b5061034e7356ab717d882f7a8d4a3c2b191707322c5cc70db881565b34801561047b575f80fd5b5060125461034e906001600160a01b031681565b34801561049a575f80fd5b50610273610c08565b3480156104ae575f80fd5b5061021e610c9b565b3480156104c2575f80fd5b506102d46104d1366004611658565b610caa565b6102d4610e28565b3480156104e9575f80fd5b5060115461034e906001600160a01b031681565b348015610508575f80fd5b506102536105173660046115f7565b610e70565b348015610527575f80fd5b506102d461053636600461166f565b610e7d565b348015610546575f80fd5b5061034e732fa2e7a6deb7bb51b625336dbe1da23511914a8a81565b34801561056d575f80fd5b50610273600c5481565b348015610582575f80fd5b5061027361059136600461168f565b6001600160a01b039182165f90815260016020908152604080832093909416825291909152205490565b3480156105c6575f80fd5b50610273610ec7565b3480156105da575f80fd5b5061027360065481565b3480156105ef575f80fd5b50600f5461034e906001600160a01b031681565b34801561060e575f80fd5b5061027360075481565b606060038054610627906116c0565b80601f0160208091040260200160405190810160405280929190818152602001828054610653906116c0565b801561069e5780601f106106755761010080835404028352916020019161069e565b820191905f5260205f20905b81548152906001019060200180831161068157829003601f168201915b5050505050905090565b5f336106b5818585610f29565b60019150505b92915050565b5f336106ce858285610f3b565b6106d9858585610fb6565b506001949350505050565b5f81116106ef575f80fd5b335f908152602081905260409020548111156107525760405162461bcd60e51b815260206004820152601d60248201527f796f7520646f206e6f74206861766520656e6f75676820746f6b656e7300000060448201526064015b60405180910390fd5b600f546040516323b872dd60e01b8152306004820152336024820152604481018390526001600160a01b03909116906323b872dd906064016020604051808303815f875af11580156107a6573d5f803e3d5ffd5b505050506040513d601f19601f820116820180604052508101906107ca91906116f8565b505f6107dd826107d8610ec7565b611013565b90506107e9338261109e565b8160075f8282546107fa919061172b565b90915550505050565b5f811161080e575f80fd5b335f908152600d60205260409020546108695760405162461bcd60e51b815260206004820152601f60248201527f796f7520646f206e6f74206861766520616e7920636f6c6c61746572616c73006044820152606401610749565b335f908152600e6020908152604080832054600d90925282205490918261089283610b54611013565b61089c919061172b565b90505f6108ab85610b54611013565b90508181106108f55760405162461bcd60e51b81526020600482015260166024820152750f2deea40c8de40dcdee840d0c2ecca40cadcdeeaced60531b6044820152606401610749565b335f908152600d60205260408120805487929061091390849061172b565b925050819055508460095f82825461092b919061172b565b9091555050604051339086156108fc029087905f818181858888f1935050505015801561095a573d5f803e3d5ffd5b505050505050565b335f908152600e60205260409020546109bd5760405162461bcd60e51b815260206004820152601860248201527f796f7520646f206e6f74206861766520616e79206465707400000000000000006044820152606401610749565b5f6109cc6008546007546110d2565b90505f6109e8600b54600c546109e2919061172b565b836110d2565b90505f600b546109f88484611013565b610a02919061173e565b90505f610a0f8286611751565b90505f610a1c828761172b565b905081600a5f828254610a2f919061173e565b9091555050335f908152600e602052604081208054839290610a5290849061172b565b925050819055508060085f828254610a6a919061172b565b9091555061095a905086611125565b335f908152600d6020526040902054610ad45760405162461bcd60e51b815260206004820152601f60248201527f796f7520646f206e6f74206861766520616e7920636f6c6c61746572616c73006044820152606401610749565b335f908152600e6020908152604080832054600d909252822054909182610afd836107d8610c08565b610b07919061172b565b90505f610b1682600654611227565b905084811015610b685760405162461bcd60e51b815260206004820152601960248201527f796f752063616e6e6f74207061737320746865206c696d6974000000000000006044820152606401610749565b600f546040516323b872dd60e01b8152306004820152336024820152604481018790526001600160a01b03909116906323b872dd906064016020604051808303815f875af1158015610bbc573d5f803e3d5ffd5b505050506040513d601f19601f82011682018060405250810190610be091906116f8565b508460085f828254610bf2919061173e565b90915550610c01905085611248565b5050505050565b5f8060055f9054906101000a90046001600160a01b03166001600160a01b031663feaf968c6040518163ffffffff1660e01b815260040160a060405180830381865afa158015610c5a573d5f803e3d5ffd5b505050506040513d601f19601f82011682018060405250810190610c7e9190611781565b505050915050806402540be400610c9591906117cd565b91505090565b606060048054610627906116c0565b5f8111610cb5575f80fd5b600f546040516370a0823160e01b815233600482015282916001600160a01b0316906370a0823190602401602060405180830381865afa158015610cfb573d5f803e3d5ffd5b505050506040513d601f19601f82011682018060405250810190610d1f91906117fc565b1015610d6d5760405162461bcd60e51b815260206004820152601f60248201527f796f7520646f206e6f74206861766520656e6f7567682062616c6c616e6365006044820152606401610749565b600f546040516323b872dd60e01b8152336004820152306024820152604481018390526001600160a01b03909116906323b872dd906064016020604051808303815f875af1158015610dc1573d5f803e3d5ffd5b505050506040513d601f19601f82011682018060405250810190610de591906116f8565b508060075f828254610df7919061173e565b90915550610e06905081611125565b5f610e1882610e13610ec7565b6110d2565b9050610e2433826112d4565b5050565b5f3411610e33575f80fd5b335f908152600d602052604081208054349290610e5190849061173e565b925050819055503460095f828254610e69919061173e565b9091555050565b5f336106b5818585610fb6565b6001600160a01b0381165f908152600e6020908152604080832054600d909252822054909182610eaf83610b54611013565b610eb9919061172b565b9050610c0181600654611227565b5f610ed160025490565b5f03610ee45750670de0b6b3a764000090565b5f600854600754610ef5919061172b565b90505f600a5460085483610f09919061173e565b610f13919061173e565b9050610f2281610e1360025490565b9250505090565b610f368383836001611308565b505050565b6001600160a01b038381165f908152600160209081526040808320938616835292905220545f198114610fb05781811015610fa257604051637dc7a0d960e11b81526001600160a01b03841660048201526024810182905260448101839052606401610749565b610fb084848484035f611308565b50505050565b6001600160a01b038316610fdf57604051634b637e8f60e11b81525f6004820152602401610749565b6001600160a01b0382166110085760405163ec442f0560e01b81525f6004820152602401610749565b610f368383836113da565b5f80806110208585611500565b9150915081611033575f925050506106bb565b5f806110528361104c6002670de0b6b3a7640000611827565b90611547565b9150915081611067575f9450505050506106bb565b5f8061107b83670de0b6b3a7640000611560565b909250905060018215151461109257611092611846565b98975050505050505050565b6001600160a01b0382166110c757604051634b637e8f60e11b81525f6004820152602401610749565b610e24825f836113da565b5f80806110e785670de0b6b3a7640000611500565b91509150816110fa575f925050506106bb565b5f806111068387611560565b915091508161111b575f9450505050506106bb565b9695505050505050565b600f5460405163095ea7b360e01b81527356ab717d882f7a8d4a3c2b191707322c5cc70db86004820152602481018390526001600160a01b039091169063095ea7b3906044016020604051808303815f875af1158015611187573d5f803e3d5ffd5b505050506040513d601f19601f820116820180604052508101906111ab91906116f8565b50600f5460405163e8eda9df60e01b81526001600160a01b039091166004820152602481018290523060448201525f60648201527356ab717d882f7a8d4a3c2b191707322c5cc70db89063e8eda9df906084015f604051808303815f87803b158015611215575f80fd5b505af1158015610c01573d5f803e3d5ffd5b5f806112348460056110d2565b90506112408184611013565b949350505050565b600f54604051631a4ca37b60e21b81526001600160a01b039091166004820152602481018290523360448201527356ab717d882f7a8d4a3c2b191707322c5cc70db8906369328dec906064016020604051808303815f875af11580156112b0573d5f803e3d5ffd5b505050506040513d601f19601f82011682018060405250810190610e2491906117fc565b6001600160a01b0382166112fd5760405163ec442f0560e01b81525f6004820152602401610749565b610e245f83836113da565b6001600160a01b0384166113315760405163e602df0560e01b81525f6004820152602401610749565b6001600160a01b03831661135a57604051634a1406b160e11b81525f6004820152602401610749565b6001600160a01b038085165f9081526001602090815260408083209387168352929052208290558015610fb057826001600160a01b0316846001600160a01b03167f8c5be1e5ebec7d5bd14f71427d1e84f3dd0314c0f7b2291e5b200ac8c7c3b925846040516113cc91815260200190565b60405180910390a350505050565b6001600160a01b038316611404578060025f8282546113f9919061173e565b909155506114749050565b6001600160a01b0383165f90815260208190526040902054818110156114565760405163391434e360e21b81526001600160a01b03851660048201526024810182905260448101839052606401610749565b6001600160a01b0384165f9081526020819052604090209082900390555b6001600160a01b038216611490576002805482900390556114ae565b6001600160a01b0382165f9081526020819052604090208054820190555b816001600160a01b0316836001600160a01b03167fddf252ad1be2c89b69c2b068fc378daa952ba7f163c4a11628f55a4df523b3ef836040516114f391815260200190565b60405180910390a3505050565b5f80835f036115145750600190505f611540565b8383028385828161152757611527611813565b0414611539575f809250925050611540565b6001925090505b9250929050565b5f8083830184811015611539575f809250925050611540565b5f80825f0361157357505f905080611540565b600183858161158457611584611813565b04915091509250929050565b5f602080835283518060208501525f5b818110156115bc578581018301518582016040015282016115a0565b505f604082860101526040601f19601f8301168501019250505092915050565b80356001600160a01b03811681146115f2575f80fd5b919050565b5f8060408385031215611608575f80fd5b611611836115dc565b946020939093013593505050565b5f805f60608486031215611631575f80fd5b61163a846115dc565b9250611648602085016115dc565b9150604084013590509250925092565b5f60208284031215611668575f80fd5b5035919050565b5f6020828403121561167f575f80fd5b611688826115dc565b9392505050565b5f80604083850312156116a0575f80fd5b6116a9836115dc565b91506116b7602084016115dc565b90509250929050565b600181811c908216806116d457607f821691505b6020821081036116f257634e487b7160e01b5f52602260045260245ffd5b50919050565b5f60208284031215611708575f80fd5b81518015158114611688575f80fd5b634e487b7160e01b5f52601160045260245ffd5b818103818111156106bb576106bb611717565b808201808211156106bb576106bb611717565b80820281158282048414176106bb576106bb611717565b805169ffffffffffffffffffff811681146115f2575f80fd5b5f805f805f60a08688031215611795575f80fd5b61179e86611768565b94506020860151935060408601519250606086015191506117c160808701611768565b90509295509295909350565b8082025f8212600160ff1b841416156117e8576117e8611717565b81810583148215176106bb576106bb611717565b5f6020828403121561180c575f80fd5b5051919050565b634e487b7160e01b5f52601260045260245ffd5b5f8261184157634e487b7160e01b5f52601260045260245ffd5b500490565b634e487b7160e01b5f52600160045260245ffdfea2646970667358221220a074463885f0f1b3c21a199d6afa18cf3256a93ab006d01fbae3cf2605cf42d364736f6c63430008180033","linkReferences":{}},"methodIdentifiers":{"aDai()":"a34e8fa0","aWeth()":"5cd9ce3e","aave()":"819faf7b","addCollateral()":"9e816999","allowance(address,address)":"dd62ed3e","approve(address,uint256)":"095ea7b3","balanceOf(address)":"70a08231","baseRate()":"1f68f20a","bond(uint256)":"9940686e","bondt()":"843e4fef","borrowDai(uint256)":"46af1cc5","borrowRate()":"c914b437","convert()":"91bbdcc7","dai()":"f4b9fa75","decimals()":"313ce567","getExchangeRate()":"e6aa216c","getLatestPrice()":"8e15f473","harvest()":"4641257d","maxLTV()":"f384bd05","name()":"06fdde03","removeCollateral(uint256)":"3237c158","repay(uint256)":"371fd8e6","symbol()":"95d89b41","totalBorrowed()":"4c19386c","totalCollateral()":"4ac8eb5f","totalDeposit()":"f6153ccd","totalReserve()":"4c68df67","totalSupply()":"18160ddd","transfer(address,uint256)":"a9059cbb","transferFrom(address,address,uint256)":"23b872dd","triggerLiquidation(address)":"b350df5d","unbond(uint256)":"27de9e32","uniswapRouter()":"735de9f7","weth()":"3fc8cef3","wethGateway()":"c5e10eef"},"id":59}