{"abi":[{"type":"constructor","inputs":[{"name":"t0","type":"address","internalType":"address"},{"name":"t1","type":"address","internalType":"address"}],"stateMutability":"nonpayable"},{"type":"function","name":"addLiquidity","inputs":[{"name":"amount0","type":"uint256","internalType":"uint256"},{"name":"amount1","type":"uint256","internalType":"uint256"}],"outputs":[{"name":"shares","type":"uint256","internalType":"uint256"}],"stateMutability":"nonpayable"},{"type":"function","name":"balanceOf","inputs":[{"name":"","type":"address","internalType":"address"}],"outputs":[{"name":"","type":"uint256","internalType":"uint256"}],"stateMutability":"view"},{"type":"function","name":"removeLiquidity","inputs":[{"name":"shares","type":"uint256","internalType":"uint256"}],"outputs":[{"name":"amount0","type":"uint256","internalType":"uint256"},{"name":"amount1","type":"uint256","internalType":"uint256"}],"stateMutability":"nonpayable"},{"type":"function","name":"reserve0","inputs":[],"outputs":[{"name":"","type":"uint256","internalType":"uint256"}],"stateMutability":"view"},{"type":"function","name":"reserve1","inputs":[],"outputs":[{"name":"","type":"uint256","internalType":"uint256"}],"stateMutability":"view"},{"type":"function","name":"swap","inputs":[{"name":"addIn","type":"address","internalType":"address"},{"name":"amountIn","type":"uint256","internalType":"uint256"}],"outputs":[{"name":"amountOut","type":"uint256","internalType":"uint256"}],"stateMutability":"nonpayable"},{"type":"function","name":"token0","inputs":[],"outputs":[{"name":"","type":"address","internalType":"contract IERC20"}],"stateMutability":"view"},{"type":"function","name":"token1","inputs":[],"outputs":[{"name":"","type":"address","internalType":"contract IERC20"}],"stateMutability":"view"},{"type":"function","name":"totalSupply","inputs":[],"outputs":[{"name":"","type":"uint256","internalType":"uint256"}],"stateMutability":"view"}],"bytecode":{"object":"0x60c060405234801561000f575f80fd5b50604051610f96380380610f9683398101604081905261002e91610060565b6001600160a01b039182166080521660a052610091565b80516001600160a01b038116811461005b575f80fd5b919050565b5f8060408385031215610071575f80fd5b61007a83610045565b915061008860208401610045565b90509250929050565b60805160a051610e6e6101285f395f818161017201528181610242015281816104070152818161053a015281816107610152818161081901528181610913015281816109800152610b6d01525f81816099015281816101b701528181610378015281816104a5015281816106d9015281816107de015281816108d3015281816109340152818161095f0152610ae50152610e6e5ff3fe608060405234801561000f575f80fd5b5060043610610090575f3560e01c806370a082311161006357806370a08231146101005780639c8f9f231461011f5780639cd441da14610147578063d004f0f71461015a578063d21220a71461016d575f80fd5b80630dfe16811461009457806318160ddd146100d8578063443cb4bc146100ef5780635a76f25e146100f7575b5f80fd5b6100bb7f000000000000000000000000000000000000000000000000000000000000000081565b6040516001600160a01b0390911681526020015b60405180910390f35b6100e160025481565b6040519081526020016100cf565b6100e15f5481565b6100e160015481565b6100e161010e366004610d13565b60036020525f908152604090205481565b61013261012d366004610d2c565b610194565b604080519283526020830191909152016100cf565b6100e1610155366004610d43565b610481565b6100e1610168366004610d63565b6107db565b6100bb7f000000000000000000000000000000000000000000000000000000000000000081565b6040516370a0823160e01b81523060048201525f90819081906001600160a01b037f000000000000000000000000000000000000000000000000000000000000000016906370a0823190602401602060405180830381865afa1580156101fc573d5f803e3d5ffd5b505050506040513d601f19601f820116820180604052508101906102209190610d8b565b6040516370a0823160e01b81523060048201529091505f906001600160a01b037f000000000000000000000000000000000000000000000000000000000000000016906370a0823190602401602060405180830381865afa158015610287573d5f803e3d5ffd5b505050506040513d601f19601f820116820180604052508101906102ab9190610d8b565b6002549091506102bb8387610db6565b6102c59190610dcd565b6002549094506102d58287610db6565b6102df9190610dcd565b92505f841180156102ef57505f83115b6103395760405162461bcd60e51b81526020600482015260166024820152750616d6f756e7431206f7220616d6f756e7430203d20360541b60448201526064015b60405180910390fd5b6103433386610bee565b61034d8483610dec565b5f556103598382610dec565b60015560405163a9059cbb60e01b8152336004820152602481018590527f00000000000000000000000000000000000000000000000000000000000000006001600160a01b03169063a9059cbb906044016020604051808303815f875af11580156103c6573d5f803e3d5ffd5b505050506040513d601f19601f820116820180604052508101906103ea9190610dff565b5060405163a9059cbb60e01b8152336004820152602481018490527f00000000000000000000000000000000000000000000000000000000000000006001600160a01b03169063a9059cbb906044016020604051808303815f875af1158015610455573d5f803e3d5ffd5b505050506040513d601f19601f820116820180604052508101906104799190610dff565b505050915091565b6040516323b872dd60e01b8152336004820152306024820152604481018390525f907f00000000000000000000000000000000000000000000000000000000000000006001600160a01b0316906323b872dd906064016020604051808303815f875af11580156104f3573d5f803e3d5ffd5b505050506040513d601f19601f820116820180604052508101906105179190610dff565b506040516323b872dd60e01b8152336004820152306024820152604481018390527f00000000000000000000000000000000000000000000000000000000000000006001600160a01b0316906323b872dd906064016020604051808303815f875af1158015610588573d5f803e3d5ffd5b505050506040513d601f19601f820116820180604052508101906105ac9190610dff565b505f805411806105bd57505f600154115b1561061d57826001546105d09190610db6565b825f546105dd9190610db6565b1461061d5760405162461bcd60e51b815260206004820152601060248201526f78202f207920213d206478202f20647960801b6044820152606401610330565b6002545f0361063f576106386106338385610db6565b610c36565b905061067e565b61067b5f54600254856106529190610db6565b61065c9190610dcd565b60015460025461066c9086610db6565b6106769190610dcd565b610ca4565b90505b5f81116106ba5760405162461bcd60e51b815260206004820152600a6024820152690736861726573203d20360b41b6044820152606401610330565b6106c43382610cbe565b6040516370a0823160e01b81523060048201527f00000000000000000000000000000000000000000000000000000000000000006001600160a01b0316906370a0823190602401602060405180830381865afa158015610726573d5f803e3d5ffd5b505050506040513d601f19601f8201168201806040525081019061074a9190610d8b565b5f556040516370a0823160e01b81523060048201527f00000000000000000000000000000000000000000000000000000000000000006001600160a01b0316906370a0823190602401602060405180830381865afa1580156107ae573d5f803e3d5ffd5b505050506040513d601f19601f820116820180604052508101906107d29190610d8b565b60015592915050565b5f7f00000000000000000000000000000000000000000000000000000000000000006001600160a01b0316836001600160a01b0316148061084d57507f00000000000000000000000000000000000000000000000000000000000000006001600160a01b0316836001600160a01b0316145b61088e5760405162461bcd60e51b815260206004820152601260248201527120a6a69996b4b73b30b634b216ba37b5b2b760711b6044820152606401610330565b5f82116108d05760405162461bcd60e51b815260206004820152601060248201526f1053534ccb5e995c9bcb585b5bdd5b9d60821b6044820152606401610330565b5f7f00000000000000000000000000000000000000000000000000000000000000006001600160a01b0316846001600160a01b03161490505f805f808461095d577f00000000000000000000000000000000000000000000000000000000000000007f00000000000000000000000000000000000000000000000000000000000000006001545f546109a5565b7f00000000000000000000000000000000000000000000000000000000000000007f00000000000000000000000000000000000000000000000000000000000000005f546001545b6040516323b872dd60e01b8152336004820152306024820152604481018c9052939750919550935091506001600160a01b038516906323b872dd906064016020604051808303815f875af11580156109ff573d5f803e3d5ffd5b505050506040513d601f19601f82011682018060405250810190610a239190610dff565b505f6103e8610a34896103e5610db6565b610a3e9190610dcd565b9050610a4a8184610e25565b610a548284610db6565b610a5e9190610dcd565b60405163a9059cbb60e01b8152336004820152602481018290529097506001600160a01b0385169063a9059cbb906044016020604051808303815f875af1158015610aab573d5f803e3d5ffd5b505050506040513d601f19601f82011682018060405250810190610acf9190610dff565b506040516370a0823160e01b81523060048201527f00000000000000000000000000000000000000000000000000000000000000006001600160a01b0316906370a0823190602401602060405180830381865afa158015610b32573d5f803e3d5ffd5b505050506040513d601f19601f82011682018060405250810190610b569190610d8b565b5f556040516370a0823160e01b81523060048201527f00000000000000000000000000000000000000000000000000000000000000006001600160a01b0316906370a0823190602401602060405180830381865afa158015610bba573d5f803e3d5ffd5b505050506040513d601f19601f82011682018060405250810190610bde9190610d8b565b6001555094979650505050505050565b6001600160a01b0382165f9081526003602052604081208054839290610c15908490610dec565b925050819055508060025f828254610c2d9190610dec565b90915550505050565b5f6003821115610c955750805f610c4e600283610dcd565b610c59906001610e25565b90505b81811015610c8f57905080600281610c748186610dcd565b610c7e9190610e25565b610c889190610dcd565b9050610c5c565b50919050565b8115610c9f575060015b919050565b5f81831115610cb35781610cb5565b825b90505b92915050565b6001600160a01b0382165f9081526003602052604081208054839290610ce5908490610e25565b925050819055508060025f828254610c2d9190610e25565b80356001600160a01b0381168114610c9f575f80fd5b5f60208284031215610d23575f80fd5b610cb582610cfd565b5f60208284031215610d3c575f80fd5b5035919050565b5f8060408385031215610d54575f80fd5b50508035926020909101359150565b5f8060408385031215610d74575f80fd5b610d7d83610cfd565b946020939093013593505050565b5f60208284031215610d9b575f80fd5b5051919050565b634e487b7160e01b5f52601160045260245ffd5b8082028115828204841417610cb857610cb8610da2565b5f82610de757634e487b7160e01b5f52601260045260245ffd5b500490565b81810381811115610cb857610cb8610da2565b5f60208284031215610e0f575f80fd5b81518015158114610e1e575f80fd5b9392505050565b80820180821115610cb857610cb8610da256fea2646970667358221220001c908b9a15075d056c8c909b56eadf654a34b9ec028261a7328eaf9a36c46364736f6c63430008180033","linkReferences":{}},"methodIdentifiers":{"addLiquidity(uint256,uint256)":"9cd441da","balanceOf(address)":"70a08231","removeLiquidity(uint256)":"9c8f9f23","reserve0()":"443cb4bc","reserve1()":"5a76f25e","swap(address,uint256)":"d004f0f7","token0()":"0dfe1681","token1()":"d21220a7","totalSupply()":"18160ddd"},"id":43}