{"abi":[{"type":"function","name":"getBool","inputs":[],"outputs":[{"name":"","type":"bool","internalType":"bool"}],"stateMutability":"view"},{"type":"function","name":"getValue","inputs":[],"outputs":[{"name":"","type":"uint256","internalType":"uint256"}],"stateMutability":"view"},{"type":"function","name":"pubInt","inputs":[],"outputs":[{"name":"","type":"uint256","internalType":"uint256"}],"stateMutability":"view"},{"type":"function","name":"setInternal","inputs":[{"name":"v","type":"bool","internalType":"bool"}],"outputs":[],"stateMutability":"nonpayable"},{"type":"function","name":"setValue","inputs":[{"name":"newValue","type":"uint256","internalType":"uint256"}],"outputs":[],"stateMutability":"nonpayable"}],"bytecode":{"object":"0x60806040525f60019081556002805460ff19169055600355348015610022575f80fd5b50610127806100305f395ff3fe6080604052348015600e575f80fd5b5060043610604e575f3560e01c806312a7b9141460525780631e3b070014606d5780632096525514608257806355241077146088578063c61c10f3146099575b5f80fd5b60025460ff1660405190151581526020015b60405180910390f35b607560015481565b6040519081526020016064565b5f546075565b6097609336600460b7565b5f55565b005b609760a436600460cd565b6002805460ff1916911515919091179055565b5f6020828403121560c6575f80fd5b5035919050565b5f6020828403121560dc575f80fd5b8135801515811460ea575f80fd5b939250505056fea26469706673582212205fb3974be291c23e1bce253dbdee9f3d4b769cc142238e7c0ed475817b82bc2f64736f6c63430008180033","linkReferences":{}},"methodIdentifiers":{"getBool()":"12a7b914","getValue()":"20965255","pubInt()":"1e3b0700","setInternal(bool)":"c61c10f3","setValue(uint256)":"55241077"},"id":84}