{"abi":[{"type":"constructor","inputs":[],"stateMutability":"nonpayable"},{"type":"function","name":"addTwo","inputs":[{"name":"x","type":"uint256","internalType":"uint256"},{"name":"y","type":"uint256","internalType":"uint256"}],"outputs":[{"name":"","type":"uint256","internalType":"uint256"}],"stateMutability":"pure"}],"bytecode":{"object":"0x608060405234801561000f575f80fd5b5060d08061001c5f395ff3fe6080604052348015600e575f80fd5b50600436106026575f3560e01c80630f52d66e14602a575b5f80fd5b60396035366004605d565b604b565b60405190815260200160405180910390f35b5f60548284607c565b90505b92915050565b5f8060408385031215606d575f80fd5b50508035926020909101359150565b80820180821115605757634e487b7160e01b5f52601160045260245ffdfea26469706673582212208fd9daf361229efaab8ccd96973708f344d3ff3d36bf8493eef4688de216ab1e64736f6c63430008180033","linkReferences":{}},"methodIdentifiers":{"addTwo(uint256,uint256)":"0f52d66e"},"id":67}