{"abi":[{"type":"constructor","inputs":[],"stateMutability":"nonpayable"},{"type":"function","name":"changeOwmer","inputs":[{"name":"newOwner","type":"address","internalType":"address"}],"outputs":[],"stateMutability":"nonpayable"},{"type":"function","name":"getOwner","inputs":[],"outputs":[{"name":"","type":"address","internalType":"address"}],"stateMutability":"view"},{"type":"event","name":"OwnerSet","inputs":[{"name":"oldOwner","type":"address","indexed":true,"internalType":"address"},{"name":"newOwner","type":"address","indexed":true,"internalType":"address"}],"anonymous":false}],"bytecode":{"object":"0x608060405234801561000f575f80fd5b505f80546001600160a01b0319163390811782556040519091907f342827c97908e5e2f71151c08502a66d44b6f758e3ac2f1de95f02eb95f0a735908290a361017a8061005b5f395ff3fe608060405234801561000f575f80fd5b5060043610610034575f3560e01c8063893d20e81461003857806397ac753c14610056575b5f80fd5b5f54604080516001600160a01b039092168252519081900360200190f35b610069610064366004610117565b61006b565b005b5f546001600160a01b031633146100be5760405162461bcd60e51b815260206004820152601360248201527221b0b63632b91034b9903737ba1037bbb732b960691b604482015260640160405180910390fd5b5f80546040516001600160a01b03808516939216917f342827c97908e5e2f71151c08502a66d44b6f758e3ac2f1de95f02eb95f0a73591a35f80546001600160a01b0319166001600160a01b0392909216919091179055565b5f60208284031215610127575f80fd5b81356001600160a01b038116811461013d575f80fd5b939250505056fea2646970667358221220b9ace346dba318afef199852b42d298e63de0b45bb8160bbb85121068a11ca8064736f6c63430008180033","linkReferences":{}},"methodIdentifiers":{"changeOwmer(address)":"97ac753c","getOwner()":"893d20e8"},"id":32}