{"abi":[{"type":"constructor","inputs":[],"stateMutability":"nonpayable"},{"type":"function","name":"acceptOwnership","inputs":[],"outputs":[],"stateMutability":"nonpayable"},{"type":"function","name":"addAccess","inputs":[{"name":"_user","type":"address","internalType":"address"}],"outputs":[],"stateMutability":"nonpayable"},{"type":"function","name":"checkEnabled","inputs":[],"outputs":[{"name":"","type":"bool","internalType":"bool"}],"stateMutability":"view"},{"type":"function","name":"disableAccessCheck","inputs":[],"outputs":[],"stateMutability":"nonpayable"},{"type":"function","name":"enableAccessCheck","inputs":[],"outputs":[],"stateMutability":"nonpayable"},{"type":"function","name":"hasAccess","inputs":[{"name":"_user","type":"address","internalType":"address"},{"name":"","type":"bytes","internalType":"bytes"}],"outputs":[{"name":"","type":"bool","internalType":"bool"}],"stateMutability":"view"},{"type":"function","name":"owner","inputs":[],"outputs":[{"name":"","type":"address","internalType":"address"}],"stateMutability":"view"},{"type":"function","name":"removeAccess","inputs":[{"name":"_user","type":"address","internalType":"address"}],"outputs":[],"stateMutability":"nonpayable"},{"type":"function","name":"transferOwnership","inputs":[{"name":"to","type":"address","internalType":"address"}],"outputs":[],"stateMutability":"nonpayable"},{"type":"event","name":"AddedAccess","inputs":[{"name":"user","type":"address","indexed":false,"internalType":"address"}],"anonymous":false},{"type":"event","name":"CheckAccessDisabled","inputs":[],"anonymous":false},{"type":"event","name":"CheckAccessEnabled","inputs":[],"anonymous":false},{"type":"event","name":"OwnershipTransferRequested","inputs":[{"name":"from","type":"address","indexed":true,"internalType":"address"},{"name":"to","type":"address","indexed":true,"internalType":"address"}],"anonymous":false},{"type":"event","name":"OwnershipTransferred","inputs":[{"name":"from","type":"address","indexed":true,"internalType":"address"},{"name":"to","type":"address","indexed":true,"internalType":"address"}],"anonymous":false},{"type":"event","name":"RemovedAccess","inputs":[{"name":"user","type":"address","indexed":false,"internalType":"address"}],"anonymous":false}],"bytecode":{"object":"0x608060405234801561000f575f80fd5b5033805f816100655760405162461bcd60e51b815260206004820152601860248201527f43616e6e6f7420736574206f776e657220746f207a65726f000000000000000060448201526064015b60405180910390fd5b5f80546001600160a01b0319166001600160a01b038481169190911790915581161561009457610094816100af565b50506001805460ff60a01b1916600160a01b17905550610157565b336001600160a01b038216036101075760405162461bcd60e51b815260206004820152601760248201527f43616e6e6f74207472616e7366657220746f2073656c66000000000000000000604482015260640161005c565b600180546001600160a01b0319166001600160a01b038381169182179092555f8054604051929316917fed8889f560326eb138920d842192f0eb3dd22b4f139c87a2c57538e05bae12789190a350565b610609806101645f395ff3fe608060405234801561000f575f80fd5b5060043610610090575f3560e01c80638823da6c116100635780638823da6c146100d65780638da5cb5b146100e9578063a118f24914610103578063dc7f012414610116578063f2fde38b1461012a575f80fd5b80630a756983146100945780636b14daf81461009e57806379ba5097146100c65780638038e4a1146100ce575b5f80fd5b61009c61013d565b005b6100b16100ac3660046104fe565b61018f565b60405190151581526020015b60405180910390f35b61009c6101c6565b61009c610274565b61009c6100e43660046105ba565b6102ca565b5f546040516001600160a01b0390911681526020016100bd565b61009c6101113660046105ba565b61034a565b6001546100b190600160a01b900460ff1681565b61009c6101383660046105ba565b6103c4565b6101456103d5565b600154600160a01b900460ff161561018d576001805460ff60a01b191690556040517f3be8a977a014527b50ae38adda80b56911c267328965c98ddc385d248f539638905f90a15b565b6001600160a01b0382165f9081526002602052604081205460ff16806101bf5750600154600160a01b900460ff16155b9392505050565b6001546001600160a01b0316331461021e5760405162461bcd60e51b815260206004820152601660248201527526bab9ba10313290383937b837b9b2b21037bbb732b960511b60448201526064015b60405180910390fd5b5f8054336001600160a01b0319808316821784556001805490911690556040516001600160a01b0390921692909183917f8be0079c531659141344cd1fd0a4f28419497f9722a3daafe3b4186f6b6457e091a350565b61027c6103d5565b600154600160a01b900460ff1661018d576001805460ff60a01b1916600160a01b1790556040517faebf329500988c6488a0074e5a0a9ff304561fc5c6fc877aeb1d59c8282c3480905f90a1565b6102d26103d5565b6001600160a01b0381165f9081526002602052604090205460ff1615610347576001600160a01b0381165f81815260026020908152604091829020805460ff1916905590519182527f3d68a6fce901d20453d1a7aa06bf3950302a735948037deb182a8db66df2a0d191015b60405180910390a15b50565b6103526103d5565b6001600160a01b0381165f9081526002602052604090205460ff16610347576001600160a01b0381165f81815260026020908152604091829020805460ff1916600117905590519182527f87286ad1f399c8e82bf0c4ef4fcdc570ea2e1e92176e5c848b6413545b885db4910161033e565b6103cc6103d5565b61034781610427565b5f546001600160a01b0316331461018d5760405162461bcd60e51b815260206004820152601660248201527527b7363c9031b0b63630b1363290313c9037bbb732b960511b6044820152606401610215565b336001600160a01b0382160361047f5760405162461bcd60e51b815260206004820152601760248201527f43616e6e6f74207472616e7366657220746f2073656c660000000000000000006044820152606401610215565b600180546001600160a01b0319166001600160a01b038381169182179092555f8054604051929316917fed8889f560326eb138920d842192f0eb3dd22b4f139c87a2c57538e05bae12789190a350565b80356001600160a01b03811681146104e5575f80fd5b919050565b634e487b7160e01b5f52604160045260245ffd5b5f806040838503121561050f575f80fd5b610518836104cf565b9150602083013567ffffffffffffffff80821115610534575f80fd5b818501915085601f830112610547575f80fd5b813581811115610559576105596104ea565b604051601f8201601f19908116603f01168101908382118183101715610581576105816104ea565b81604052828152886020848701011115610599575f80fd5b826020860160208301375f6020848301015280955050505050509250929050565b5f602082840312156105ca575f80fd5b6101bf826104cf56fea264697066735822122066bb3aec2463b277f64df2175f6f2ff7907fa74e78ce1b7efc8ae7c55b3c064c64736f6c63430008180033","linkReferences":{}},"methodIdentifiers":{"acceptOwnership()":"79ba5097","addAccess(address)":"a118f249","checkEnabled()":"dc7f0124","disableAccessCheck()":"0a756983","enableAccessCheck()":"8038e4a1","hasAccess(address,bytes)":"6b14daf8","owner()":"8da5cb5b","removeAccess(address)":"8823da6c","transferOwnership(address)":"f2fde38b"},"id":8}