{"abi":[{"type":"constructor","inputs":[{"name":"addressToken","type":"address","internalType":"address"}],"stateMutability":"nonpayable"},{"type":"receive","stateMutability":"payable"},{"type":"function","name":"auctions","inputs":[{"name":"","type":"uint256","internalType":"uint256"}],"outputs":[{"name":"seller","type":"address","internalType":"address"},{"name":"tokenId","type":"uint256","internalType":"uint256"},{"name":"started","type":"bool","internalType":"bool"},{"name":"ended","type":"bool","internalType":"bool"},{"name":"endAt","type":"uint256","internalType":"uint256"},{"name":"highestBidder","type":"address","internalType":"address"},{"name":"highestBid","type":"uint256","internalType":"uint256"}],"stateMutability":"view"},{"type":"function","name":"bid","inputs":[{"name":"tokenid","type":"uint256","internalType":"uint256"}],"outputs":[],"stateMutability":"payable"},{"type":"function","name":"bids","inputs":[{"name":"","type":"uint256","internalType":"uint256"},{"name":"","type":"address","internalType":"address"}],"outputs":[{"name":"","type":"uint256","internalType":"uint256"}],"stateMutability":"view"},{"type":"function","name":"endAuction","inputs":[{"name":"tokenid","type":"uint256","internalType":"uint256"}],"outputs":[],"stateMutability":"nonpayable"},{"type":"function","name":"startAuction","inputs":[{"name":"tokenid","type":"uint256","internalType":"uint256"},{"name":"duration","type":"uint256","internalType":"uint256"}],"outputs":[],"stateMutability":"nonpayable"},{"type":"function","name":"token","inputs":[],"outputs":[{"name":"","type":"address","internalType":"contract IERC721"}],"stateMutability":"view"},{"type":"function","name":"withdraw","inputs":[{"name":"tokenid","type":"uint256","internalType":"uint256"}],"outputs":[],"stateMutability":"nonpayable"},{"type":"event","name":"Bid","inputs":[{"name":"tokenId","type":"uint256","indexed":true,"internalType":"uint256"},{"name":"bidder","type":"address","indexed":true,"internalType":"address"},{"name":"amount","type":"uint256","indexed":false,"internalType":"uint256"}],"anonymous":false},{"type":"event","name":"End","inputs":[{"name":"tokenId","type":"uint256","indexed":true,"internalType":"uint256"},{"name":"winner","type":"address","indexed":true,"internalType":"address"},{"name":"amount","type":"uint256","indexed":false,"internalType":"uint256"}],"anonymous":false},{"type":"event","name":"Start","inputs":[{"name":"tokenId","type":"uint256","indexed":true,"internalType":"uint256"},{"name":"endAt","type":"uint256","indexed":false,"internalType":"uint256"}],"anonymous":false},{"type":"event","name":"Withdraw","inputs":[{"name":"tokenId","type":"uint256","indexed":true,"internalType":"uint256"},{"name":"bidder","type":"address","indexed":true,"internalType":"address"},{"name":"amount","type":"uint256","indexed":false,"internalType":"uint256"}],"anonymous":false}],"bytecode":{"object":"0x608060405234801561000f575f80fd5b50604051610ee1380380610ee183398101604081905261002e91610053565b600280546001600160a01b0319166001600160a01b0392909216919091179055610080565b5f60208284031215610063575f80fd5b81516001600160a01b0381168114610079575f80fd5b9392505050565b610e548061008d5f395ff3fe608060405260043610610071575f3560e01c80634fee13fc1161004c5780634fee13fc146100f6578063571a26a014610115578063b9a2de3a146101c3578063fc0c546a146101e2575f80fd5b80632e1a7d4d1461007c5780633f1ffcec1461009d578063454a2ab3146100e3575f80fd5b3661007857005b5f80fd5b348015610087575f80fd5b5061009b610096366004610d4a565b610219565b005b3480156100a8575f80fd5b506100d06100b7366004610d75565b5f60208181529281526040808220909352908152205481565b6040519081526020015b60405180910390f35b61009b6100f1366004610d4a565b61037d565b348015610101575f80fd5b5061009b610110366004610da3565b61058a565b348015610120575f80fd5b5061017b61012f366004610d4a565b600160208190525f91825260409091208054918101546002820154600383015460048401546005909401546001600160a01b0395861695939460ff808516956101009095041693169087565b604080516001600160a01b0398891681526020810197909752941515948601949094529115156060850152608084015290921660a082015260c081019190915260e0016100da565b3480156101ce575f80fd5b5061009b6101dd366004610d4a565b610896565b3480156101ed575f80fd5b50600254610201906001600160a01b031681565b6040516001600160a01b0390911681526020016100da565b5f818152602081815260408083203384529091529020546102815760405162461bcd60e51b815260206004820152601860248201527f20796f7520646964206e6f7420706c616365206120626964000000000000000060448201526064015b60405180910390fd5b5f81815260016020526040902060040154336001600160a01b03909116036102eb5760405162461bcd60e51b815260206004820152601960248201527f796f7520617265207468652068696768657374426964646572000000000000006044820152606401610278565b5f81815260208181526040808320338085529252808320549051909283156108fc02918491818181858888f1935050505015801561032b573d5f803e3d5ffd5b505f8281526020818152604080832033808552908352818420939093555183815284917f9da6493a92039daf47d1f2d7a782299c5994c6323eb1e972f69c432089ec52bf910160405180910390a35050565b5f818152600160205260409020546001600160a01b03166103d95760405162461bcd60e51b8152602060048201526016602482015275185d58dd1a5bdb88191bd95cc81b9bdd08195e1a5cdd60521b6044820152606401610278565b5f81815260016020526040902060020154610100900460ff161561043f5760405162461bcd60e51b815260206004820152601960248201527f61756374696f6e2068617320616c726561647920656e646564000000000000006044820152606401610278565b34333110156104905760405162461bcd60e51b815260206004820152601b60248201527f796f7520646f206e6f742068617665207468697320616d6f756e7400000000006044820152606401610278565b5f81815260016020908152604080832060050154838352818420338552909252909120546104bf903490610dc3565b116104c8575f80fd5b5f81815260208181526040808320338452909152812080543492906104ee908490610dc3565b90915550505f818152602081815260408083203380855290835281842054858552600180855283862060058101929092556004820180546001600160a01b03199081168517909155600690920180549182018155865294849020909401805490941681179093555134815283917fdcd726e11f8b5e160f00290f0fe3a1abb547474e53a8e7a8f49a85e7b1ca319991015b60405180910390a350565b5f828152600160205260409020546001600160a01b0316156105e65760405162461bcd60e51b8152602060048201526015602482015274185d58dd1a5bdb88185b1c9958591e48195e1a5cdd605a1b6044820152606401610278565b5f81116106355760405162461bcd60e51b815260206004820181905260248201527f7468657265206973206e6f2074696d6520666f72207468652061756374696f6e6044820152606401610278565b6002546040516331a9108f60e11b81526004810184905233916001600160a01b031690636352211e90602401602060405180830381865afa15801561067c573d5f803e3d5ffd5b505050506040513d601f19601f820116820180604052508101906106a09190610de8565b6001600160a01b0316146106e95760405162461bcd60e51b815260206004820152601060248201526f39b2b73232b9103737ba1037bbb732b960811b6044820152606401610278565b6060604051806101000160405280336001600160a01b031681526020018481526020016001151581526020015f1515815260200183426107299190610dc3565b81525f602080830182905260408084018390526060938401869052878352600180835292819020855181546001600160a01b039182166001600160a01b03199182161783558785015195830195909555918601516002820180549688015115156101000261ff00199215159290921661ffff1990971696909617179094556080850151600385015560a08501516004850180549190921693169290921790915560c0830151600583015560e083015180516107ea9260068501920190610cd3565b50506002546040516323b872dd60e01b8152336004820152306024820152604481018690526001600160a01b0390911691506323b872dd906064015f604051808303815f87803b15801561083c575f80fd5b505af115801561084e573d5f803e3d5ffd5b50505050827f5a7d5f50ab70a39d193bf53f0fb995377776df93bb6fdcf1cd1868b7e0dd44ee83426108809190610dc3565b60405190815260200160405180910390a2505050565b5f8181526001602081905260409091206002015460ff161515146109065760405162461bcd60e51b815260206004820152602160248201527f746869732061756374696f6e20686173206e6f74206265656e207374617274656044820152601960fa1b6064820152608401610278565b5f818152600160205260409020600301544210156109665760405162461bcd60e51b815260206004820152601760248201527f74686520656e642074696d65206973206e6f74207965740000000000000000006044820152606401610278565b5f81815260016020526040902060028101805461ff0019169055600401546001600160a01b031615610c06576002545f82815260016020526040908190206004908101549151632142170760e11b815230918101919091526001600160a01b039182166024820152604481018490529116906342842e0e906064015f604051808303815f87803b1580156109f8575f80fd5b505af1158015610a0a573d5f803e3d5ffd5b5050505f82815260016020526040808220805460059091015491516001600160a01b03909116935081156108fc0292818181858888f19350505050158015610a54573d5f803e3d5ffd5b505f8181526020818152604080832060018352818420600401546001600160a01b0316845290915281208190555b5f82815260016020526040902060060154811015610bb0575f8281526020818152604080832060019092528220600601805483919085908110610ac757610ac7610e0a565b5f9182526020808320909101546001600160a01b031683528201929092526040019020541115610ba8575f828152600160205260409020600601805482908110610b1357610b13610e0a565b5f91825260208083209091015484835282825260408084206001909352832060060180546001600160a01b03909216936108fc939290919086908110610b5b57610b5b610e0a565b5f9182526020808320909101546001600160a01b03168352820192909252604090810182205490518115909302929091818181858888f19350505050158015610ba6573d5f803e3d5ffd5b505b600101610a82565b505f81815260016020908152604091829020600481015460059091015492519283526001600160a01b03169183917fad71bc980e1f9155e488acf543cc5276beae185d612505ea3eaff929e4fe37f0910161057f565b6002545f8281526001602052604090819020549051632142170760e11b81523060048201526001600160a01b039182166024820152604481018490529116906342842e0e906064015f604051808303815f87803b158015610c65575f80fd5b505af1158015610c77573d5f803e3d5ffd5b5050505f82815260016020908152604091829020600481015460059091015492519283526001600160a01b0316925083917fad71bc980e1f9155e488acf543cc5276beae185d612505ea3eaff929e4fe37f0910161057f565b50565b828054828255905f5260205f20908101928215610d26579160200282015b82811115610d2657825182546001600160a01b0319166001600160a01b03909116178255602090920191600190910190610cf1565b50610d32929150610d36565b5090565b5b80821115610d32575f8155600101610d37565b5f60208284031215610d5a575f80fd5b5035919050565b6001600160a01b0381168114610cd0575f80fd5b5f8060408385031215610d86575f80fd5b823591506020830135610d9881610d61565b809150509250929050565b5f8060408385031215610db4575f80fd5b50508035926020909101359150565b80820180821115610de257634e487b7160e01b5f52601160045260245ffd5b92915050565b5f60208284031215610df8575f80fd5b8151610e0381610d61565b9392505050565b634e487b7160e01b5f52603260045260245ffdfea26469706673582212203ff7da1ad39bccad379921390afaf7c840b7faa5033d7ee928c6fd3b045921eb64736f6c63430008180033","linkReferences":{}},"methodIdentifiers":{"auctions(uint256)":"571a26a0","bid(uint256)":"454a2ab3","bids(uint256,address)":"3f1ffcec","endAuction(uint256)":"b9a2de3a","startAuction(uint256,uint256)":"4fee13fc","token()":"fc0c546a","withdraw(uint256)":"2e1a7d4d"},"id":70}