{"abi":[{"type":"constructor","inputs":[{"name":"_tokenA","type":"address","internalType":"address"},{"name":"_tokenB","type":"address","internalType":"address"}],"stateMutability":"nonpayable"},{"type":"function","name":"balanceA","inputs":[],"outputs":[{"name":"","type":"uint256","internalType":"uint256"}],"stateMutability":"view"},{"type":"function","name":"balanceB","inputs":[],"outputs":[{"name":"","type":"uint256","internalType":"uint256"}],"stateMutability":"view"},{"type":"function","name":"balanceOf","inputs":[{"name":"","type":"address","internalType":"address"}],"outputs":[{"name":"","type":"uint256","internalType":"uint256"}],"stateMutability":"view"},{"type":"function","name":"tokenA","inputs":[],"outputs":[{"name":"","type":"address","internalType":"contract IERC20"}],"stateMutability":"view"},{"type":"function","name":"tokenB","inputs":[],"outputs":[{"name":"","type":"address","internalType":"contract IERC20"}],"stateMutability":"view"},{"type":"function","name":"total","inputs":[],"outputs":[{"name":"","type":"uint256","internalType":"uint256"}],"stateMutability":"view"},{"type":"function","name":"tradeAToB","inputs":[{"name":"amountA","type":"uint256","internalType":"uint256"}],"outputs":[{"name":"amountB","type":"uint256","internalType":"uint256"}],"stateMutability":"nonpayable"}],"bytecode":{"object":"0x60c060405234801561000f575f80fd5b506040516105c03803806105c083398101604081905261002e91610060565b6001600160a01b039182166080521660a052610091565b80516001600160a01b038116811461005b575f80fd5b919050565b5f8060408385031215610071575f80fd5b61007a83610045565b915061008860208401610045565b90509250929050565b60805160a0516104f46100cc5f395f818160fa015281816102d9015261036801525f8181608301528181610166015261020301526104f45ff3fe608060405234801561000f575f80fd5b506004361061007a575f3560e01c80633443941a116100585780633443941a146100e25780635f64b55b146100f557806370a082311461011c5780639c4eda5c1461013b575f80fd5b80630fc63d101461007e5780632ddbd13a146100c257806332733a08146100d9575b5f80fd5b6100a57f000000000000000000000000000000000000000000000000000000000000000081565b6040516001600160a01b0390911681526020015b60405180910390f35b6100cb60025481565b6040519081526020016100b9565b6100cb60015481565b6100cb6100f03660046103e1565b610143565b6100a57f000000000000000000000000000000000000000000000000000000000000000081565b6100cb61012a3660046103f8565b60036020525f908152604090205481565b6100cb5f5481565b5f80821161014f575f80fd5b6040516370a0823160e01b815233600482015282907f00000000000000000000000000000000000000000000000000000000000000006001600160a01b0316906370a0823190602401602060405180830381865afa1580156101b3573d5f803e3d5ffd5b505050506040513d601f19601f820116820180604052508101906101d79190610425565b10156101e1575f80fd5b6040516323b872dd60e01b8152336004820152306024820152604481018390527f00000000000000000000000000000000000000000000000000000000000000006001600160a01b0316906323b872dd906064016020604051808303815f875af1158015610251573d5f803e3d5ffd5b505050506040513d601f19601f82011682018060405250810190610275919061043c565b505f6103e8610286846103e561046f565b610290919061048c565b9050805f5461029f91906104ab565b816001546102ad919061046f565b6102b7919061048c565b6040516370a0823160e01b815230600482015290925082906001600160a01b037f000000000000000000000000000000000000000000000000000000000000000016906370a0823190602401602060405180830381865afa15801561031e573d5f803e3d5ffd5b505050506040513d601f19601f820116820180604052508101906103429190610425565b101561034c575f80fd5b60405163a9059cbb60e01b8152336004820152602481018390527f00000000000000000000000000000000000000000000000000000000000000006001600160a01b03169063a9059cbb906044016020604051808303815f875af11580156103b6573d5f803e3d5ffd5b505050506040513d601f19601f820116820180604052508101906103da919061043c565b5050919050565b5f602082840312156103f1575f80fd5b5035919050565b5f60208284031215610408575f80fd5b81356001600160a01b038116811461041e575f80fd5b9392505050565b5f60208284031215610435575f80fd5b5051919050565b5f6020828403121561044c575f80fd5b8151801515811461041e575f80fd5b634e487b7160e01b5f52601160045260245ffd5b80820281158282048414176104865761048661045b565b92915050565b5f826104a657634e487b7160e01b5f52601260045260245ffd5b500490565b808201808211156104865761048661045b56fea2646970667358221220674c90d580c174dc8206e730b4de71c2a105eaa9e911817e81a00f342a3f7c9164736f6c63430008180033","linkReferences":{}},"methodIdentifiers":{"balanceA()":"9c4eda5c","balanceB()":"32733a08","balanceOf(address)":"70a08231","tokenA()":"0fc63d10","tokenB()":"5f64b55b","total()":"2ddbd13a","tradeAToB(uint256)":"3443941a"},"id":1}