{"abi":[{"type":"function","name":"setText","inputs":[{"name":"_text","type":"string","internalType":"string"}],"outputs":[],"stateMutability":"nonpayable"},{"type":"function","name":"text","inputs":[],"outputs":[{"name":"","type":"string","internalType":"string"}],"stateMutability":"view"}],"bytecode":{"object":"0x60c0604052600b60809081526a1a195b1b1bc81ddbdc9b1960aa1b60a0525f9061002990826100d3565b50348015610035575f80fd5b50610192565b634e487b7160e01b5f52604160045260245ffd5b600181811c9082168061006357607f821691505b60208210810361008157634e487b7160e01b5f52602260045260245ffd5b50919050565b601f8211156100ce57805f5260205f20601f840160051c810160208510156100ac5750805b601f840160051c820191505b818110156100cb575f81556001016100b8565b50505b505050565b81516001600160401b038111156100ec576100ec61003b565b610100816100fa845461004f565b84610087565b602080601f831160018114610133575f841561011c5750858301515b5f19600386901b1c1916600185901b17855561018a565b5f85815260208120601f198616915b8281101561016157888601518255948401946001909101908401610142565b508582101561017e57878501515f19600388901b60f8161c191681555b505060018460011b0185555b505050505050565b61038a8061019f5f395ff3fe608060405234801561000f575f80fd5b5060043610610034575f3560e01c80631f1bd692146100385780635d3a1f9d14610056575b5f80fd5b61004061006b565b60405161004d9190610105565b60405180910390f35b610069610064366004610165565b6100f6565b005b5f805461007790610210565b80601f01602080910402602001604051908101604052809291908181526020018280546100a390610210565b80156100ee5780601f106100c5576101008083540402835291602001916100ee565b820191905f5260205f20905b8154815290600101906020018083116100d157829003601f168201915b505050505081565b5f6101018282610294565b5050565b5f602080835283518060208501525f5b8181101561013157858101830151858201604001528201610115565b505f604082860101526040601f19601f8301168501019250505092915050565b634e487b7160e01b5f52604160045260245ffd5b5f60208284031215610175575f80fd5b813567ffffffffffffffff8082111561018c575f80fd5b818401915084601f83011261019f575f80fd5b8135818111156101b1576101b1610151565b604051601f8201601f19908116603f011681019083821181831017156101d9576101d9610151565b816040528281528760208487010111156101f1575f80fd5b826020860160208301375f928101602001929092525095945050505050565b600181811c9082168061022457607f821691505b60208210810361024257634e487b7160e01b5f52602260045260245ffd5b50919050565b601f82111561028f57805f5260205f20601f840160051c8101602085101561026d5750805b601f840160051c820191505b8181101561028c575f8155600101610279565b50505b505050565b815167ffffffffffffffff8111156102ae576102ae610151565b6102c2816102bc8454610210565b84610248565b602080601f8311600181146102f5575f84156102de5750858301515b5f19600386901b1c1916600185901b17855561034c565b5f85815260208120601f198616915b8281101561032357888601518255948401946001909101908401610304565b508582101561034057878501515f19600388901b60f8161c191681555b505060018460011b0185555b50505050505056fea26469706673582212206cfbe27fe523159ac07cbe0d6a1e5931bf5a8b50c0143e97cd644cb25fcf498064736f6c63430008180033","linkReferences":{}},"methodIdentifiers":{"setText(string)":"5d3a1f9d","text()":"1f1bd692"},"id":72}