{"abi":[{"type":"constructor","inputs":[{"name":"st","type":"address","internalType":"address"},{"name":"rt","type":"address","internalType":"address"}],"stateMutability":"nonpayable"},{"type":"function","name":"accumulated","inputs":[],"outputs":[{"name":"","type":"uint256","internalType":"uint256"}],"stateMutability":"view"},{"type":"function","name":"balances","inputs":[{"name":"","type":"address","internalType":"address"}],"outputs":[{"name":"","type":"uint256","internalType":"uint256"}],"stateMutability":"view"},{"type":"function","name":"duration","inputs":[],"outputs":[{"name":"","type":"uint256","internalType":"uint256"}],"stateMutability":"view"},{"type":"function","name":"earned","inputs":[{"name":"guy","type":"address","internalType":"address"}],"outputs":[{"name":"","type":"uint256","internalType":"uint256"}],"stateMutability":"view"},{"type":"function","name":"finish","inputs":[],"outputs":[{"name":"","type":"uint256","internalType":"uint256"}],"stateMutability":"view"},{"type":"function","name":"getReward","inputs":[],"outputs":[],"stateMutability":"nonpayable"},{"type":"function","name":"lastTime","inputs":[],"outputs":[{"name":"","type":"uint256","internalType":"uint256"}],"stateMutability":"view"},{"type":"function","name":"owner","inputs":[],"outputs":[{"name":"","type":"address","internalType":"address"}],"stateMutability":"view"},{"type":"function","name":"paid","inputs":[{"name":"","type":"address","internalType":"address"}],"outputs":[{"name":"","type":"uint256","internalType":"uint256"}],"stateMutability":"view"},{"type":"function","name":"rate","inputs":[],"outputs":[{"name":"","type":"uint256","internalType":"uint256"}],"stateMutability":"view"},{"type":"function","name":"reward","inputs":[],"outputs":[{"name":"","type":"uint256","internalType":"uint256"}],"stateMutability":"view"},{"type":"function","name":"rewards","inputs":[{"name":"","type":"address","internalType":"address"}],"outputs":[{"name":"","type":"uint256","internalType":"uint256"}],"stateMutability":"view"},{"type":"function","name":"rewardsToken","inputs":[],"outputs":[{"name":"","type":"address","internalType":"contract IERC20"}],"stateMutability":"view"},{"type":"function","name":"setRewardsDuration","inputs":[{"name":"_duration","type":"uint256","internalType":"uint256"}],"outputs":[],"stateMutability":"nonpayable"},{"type":"function","name":"stake","inputs":[{"name":"amount","type":"uint256","internalType":"uint256"}],"outputs":[],"stateMutability":"nonpayable"},{"type":"function","name":"staked","inputs":[],"outputs":[{"name":"","type":"uint256","internalType":"uint256"}],"stateMutability":"view"},{"type":"function","name":"stakingToken","inputs":[],"outputs":[{"name":"","type":"address","internalType":"contract IERC20"}],"stateMutability":"view"},{"type":"function","name":"updateRate","inputs":[{"name":"amount","type":"uint256","internalType":"uint256"}],"outputs":[],"stateMutability":"nonpayable"},{"type":"function","name":"updated","inputs":[],"outputs":[{"name":"","type":"uint256","internalType":"uint256"}],"stateMutability":"view"},{"type":"function","name":"withdraw","inputs":[{"name":"amount","type":"uint256","internalType":"uint256"}],"outputs":[],"stateMutability":"nonpayable"}],"bytecode":{"object":"0x60c060405262093a806001555f6002555f60045534801561001e575f80fd5b50604051610c15380380610c1583398101604081905261003d91610080565b5f80546001600160a01b031916331790556001600160a01b039182166080521660a0526100b1565b80516001600160a01b038116811461007b575f80fd5b919050565b5f8060408385031215610091575f80fd5b61009a83610065565b91506100a860208401610065565b90509250929050565b60805160a051610b276100ee5f395f81816102960152818161054c015261069801525f81816101e70152818161042e01526108b50152610b275ff3fe608060405234801561000f575f80fd5b5060043610610126575f3560e01c806372f702f3116100a9578063a340cf791161006e578063a340cf791461024c578063a694fc3a1461026b578063cc1a378f1461027e578063d1af0c7d14610291578063d56b2889146102b8575f80fd5b806372f702f3146101e25780637a044323146102215780637b2aab03146102295780638da5cb5b1461023257806393e9a08414610244575f80fd5b806327e235e3116100ef57806327e235e31461018a5780632c4e722e146101a95780632e1a7d4d146101b25780633d18b912146101c757806369ea1771146101cf575f80fd5b80628cc2621461012a5780630700037d146101505780630b76619b1461016f5780630fb5a6b414610178578063228cb73314610181575b5f80fd5b61013d610138366004610a07565b6102c1565b6040519081526020015b60405180910390f35b61013d61015e366004610a07565b60086020525f908152604090205481565b61013d60065481565b61013d60015481565b61013d60055481565b61013d610198366004610a07565b60096020525f908152604090205481565b61013d60045481565b6101c56101c0366004610a34565b61033c565b005b6101c56104a6565b6101c56101dd366004610a34565b61057f565b6102097f000000000000000000000000000000000000000000000000000000000000000081565b6040516001600160a01b039091168152602001610147565b61013d610783565b61013d60035481565b5f54610209906001600160a01b031681565b61013d6107e7565b61013d61025a366004610a07565b60076020525f908152604090205481565b6101c5610279366004610a34565b6107fd565b6101c561028c366004610a34565b610967565b6102097f000000000000000000000000000000000000000000000000000000000000000081565b61013d60025481565b6001600160a01b0381165f908152600860209081526040808320546007909252822054670de0b6b3a7640000906102f6610783565b6103009190610a5f565b6001600160a01b0385165f908152600960205260409020546103229190610a72565b61032c9190610a89565b6103369190610aa8565b92915050565b33610345610783565b6005556103506107e7565b6003556001600160a01b038116156103965761036b816102c1565b6001600160a01b0382165f908152600860209081526040808320939093556005546007909152919020555b5f82116103d75760405162461bcd60e51b815260206004820152600a6024820152690616d6f756e74203d20360b41b60448201526064015b60405180910390fd5b335f90815260096020526040812080548492906103f5908490610a5f565b925050819055508160065f82825461040d9190610a5f565b909155505060405163a9059cbb60e01b8152336004820152602481018390527f00000000000000000000000000000000000000000000000000000000000000006001600160a01b03169063a9059cbb906044015b6020604051808303815f875af115801561047d573d5f803e3d5ffd5b505050506040513d601f19601f820116820180604052508101906104a19190610abb565b505050565b336104af610783565b6005556104ba6107e7565b6003556001600160a01b03811615610500576104d5816102c1565b6001600160a01b0382165f908152600860209081526040808320939093556005546007909152919020555b335f90815260086020526040902054801561057b57335f81815260086020526040808220919091555163a9059cbb60e01b81526004810191909152602481018290526001600160a01b037f0000000000000000000000000000000000000000000000000000000000000000169063a9059cbb90604401610461565b5050565b5f546001600160a01b031633146105c95760405162461bcd60e51b815260206004820152600e60248201526d1b9bdd08185d5d1a1bdc9a5e995960921b60448201526064016103ce565b5f6105d2610783565b6005556105dd6107e7565b6003556001600160a01b03811615610623576105f8816102c1565b6001600160a01b0382165f908152600860209081526040808320939093556005546007909152919020555b6002544210610641576001546106399083610a89565b600455610681565b5f426002546106509190610a5f565b90505f600454826106619190610a72565b6001549091506106718286610aa8565b61067b9190610a89565b60045550505b6040516370a0823160e01b81523060048201525f907f00000000000000000000000000000000000000000000000000000000000000006001600160a01b0316906370a0823190602401602060405180830381865afa1580156106e5573d5f803e3d5ffd5b505050506040513d601f19601f820116820180604052508101906107099190610ada565b9050600154816107199190610a89565b600454111561076a5760405162461bcd60e51b815260206004820152601860248201527f70726f76696465642072657761726420746f6f2068696768000000000000000060448201526064016103ce565b6001546107779042610aa8565b60025550504260035550565b5f6006545f03610794575060055490565b6006546003546107a26107e7565b6107ac9190610a5f565b6004546107b99190610a72565b6107cb90670de0b6b3a7640000610a72565b6107d59190610a89565b6005546107e29190610aa8565b905090565b5f60025442106107f8575060025490565b504290565b33610806610783565b6005556108116107e7565b6003556001600160a01b038116156108575761082c816102c1565b6001600160a01b0382165f908152600860209081526040808320939093556005546007909152919020555b5f82116108935760405162461bcd60e51b815260206004820152600a6024820152690616d6f756e74203d20360b41b60448201526064016103ce565b6040516323b872dd60e01b8152336004820152306024820152604481018390527f00000000000000000000000000000000000000000000000000000000000000006001600160a01b0316906323b872dd906064016020604051808303815f875af1158015610903573d5f803e3d5ffd5b505050506040513d601f19601f820116820180604052508101906109279190610abb565b50335f9081526009602052604081208054849290610946908490610aa8565b925050819055508160065f82825461095e9190610aa8565b90915550505050565b5f546001600160a01b031633146109b15760405162461bcd60e51b815260206004820152600e60248201526d1b9bdd08185d5d1a1bdc9a5e995960921b60448201526064016103ce565b4260025410610a025760405162461bcd60e51b815260206004820152601c60248201527f726577617264206475726174696f6e206e6f742066696e69736865640000000060448201526064016103ce565b600155565b5f60208284031215610a17575f80fd5b81356001600160a01b0381168114610a2d575f80fd5b9392505050565b5f60208284031215610a44575f80fd5b5035919050565b634e487b7160e01b5f52601160045260245ffd5b8181038181111561033657610336610a4b565b808202811582820484141761033657610336610a4b565b5f82610aa357634e487b7160e01b5f52601260045260245ffd5b500490565b8082018082111561033657610336610a4b565b5f60208284031215610acb575f80fd5b81518015158114610a2d575f80fd5b5f60208284031215610aea575f80fd5b505191905056fea264697066735822122017ebd037f23495732be4c89d30bce42bae7555fa1d7610d21814dc09f001786a64736f6c63430008180033","linkReferences":{}},"methodIdentifiers":{"accumulated()":"7a044323","balances(address)":"27e235e3","duration()":"0fb5a6b4","earned(address)":"008cc262","finish()":"d56b2889","getReward()":"3d18b912","lastTime()":"93e9a084","owner()":"8da5cb5b","paid(address)":"a340cf79","rate()":"2c4e722e","reward()":"228cb733","rewards(address)":"0700037d","rewardsToken()":"d1af0c7d","setRewardsDuration(uint256)":"cc1a378f","stake(uint256)":"a694fc3a","staked()":"0b76619b","stakingToken()":"72f702f3","updateRate(uint256)":"69ea1771","updated()":"7b2aab03","withdraw(uint256)":"2e1a7d4d"},"id":83}