{"abi":[{"type":"constructor","inputs":[],"stateMutability":"nonpayable"},{"type":"receive","stateMutability":"payable"},{"type":"function","name":"addWithdraws","inputs":[{"name":"withdrawer","type":"address","internalType":"address"}],"outputs":[],"stateMutability":"nonpayable"},{"type":"function","name":"changeLimit","inputs":[{"name":"newLimite","type":"uint256","internalType":"uint256"}],"outputs":[],"stateMutability":"nonpayable"},{"type":"function","name":"changeWithdraws","inputs":[{"name":"withdraweToChange","type":"address","internalType":"address"},{"name":"newWithdraw","type":"address","internalType":"address"}],"outputs":[],"stateMutability":"nonpayable"},{"type":"function","name":"deleteWithdraws","inputs":[{"name":"withdraweToDelete","type":"address","internalType":"address"}],"outputs":[],"stateMutability":"nonpayable"},{"type":"function","name":"getBalance","inputs":[],"outputs":[{"name":"","type":"uint256","internalType":"uint256"}],"stateMutability":"view"},{"type":"function","name":"limit","inputs":[],"outputs":[{"name":"","type":"uint256","internalType":"uint256"}],"stateMutability":"view"},{"type":"function","name":"owner","inputs":[],"outputs":[{"name":"","type":"address","internalType":"address"}],"stateMutability":"view"},{"type":"function","name":"withdraw","inputs":[{"name":"withdrawAmount","type":"uint256","internalType":"uint256"}],"outputs":[],"stateMutability":"nonpayable"},{"type":"function","name":"withdraws","inputs":[{"name":"","type":"address","internalType":"address"}],"outputs":[{"name":"","type":"bool","internalType":"bool"}],"stateMutability":"view"}],"bytecode":{"object":"0x608060405234801561000f575f80fd5b505f80546001600160a01b0319163390811782558152600160208190526040909120805460ff1916821790556003556004600255610576806100505f395ff3fe608060405260043610610087575f3560e01c80636a5c0803116100575780636a5c0803146101315780636d33b42b146101505780638bb2245e1461016f5780638da5cb5b1461018e578063a4d66daf146101c4575f80fd5b806312065fe0146100925780632e1a7d4d146100b357806348179ee5146100d45780635134196114610112575f80fd5b3661008e57005b5f80fd5b34801561009d575f80fd5b50475b6040519081526020015b60405180910390f35b3480156100be575f80fd5b506100d26100cd366004610426565b6101d9565b005b3480156100df575f80fd5b506101026100ee366004610458565b60016020525f908152604090205460ff1681565b60405190151581526020016100aa565b34801561011d575f80fd5b506100d261012c366004610478565b6102af565b34801561013c575f80fd5b506100d261014b366004610458565b610313565b34801561015b575f80fd5b506100d261016a366004610426565b600255565b34801561017a575f80fd5b506100d2610189366004610458565b6103c9565b348015610199575f80fd5b505f546101ac906001600160a01b031681565b6040516001600160a01b0390911681526020016100aa565b3480156101cf575f80fd5b506100a060025481565b335f9081526001602052604090205460ff166102315760405162461bcd60e51b815260206004820152601260248201527115d0531311550b5b9bdd0b585b1b1bddd95960721b60448201526064015b60405180910390fd5b804710156102815760405162461bcd60e51b815260206004820152601a60248201527f6e6f7420656e6f7567682065746820746f2077697468647261770000000000006044820152606401610228565b604051339082156108fc029083905f818181858888f193505050501580156102ab573d5f803e3d5ffd5b5050565b5f546001600160a01b031633146102d85760405162461bcd60e51b8152600401610228906104a9565b6001600160a01b039182165f908152600160208190526040808320805460ff1990811690915593909416825292902080549091169091179055565b5f546001600160a01b0316331461033c5760405162461bcd60e51b8152600401610228906104a9565b6002546003541061038f5760405162461bcd60e51b815260206004820152601860248201527f796f752776652070617373656420746865206c696d69742000000000000000006044820152606401610228565b60038054905f61039e83610513565b90915550506001600160a01b03165f908152600160208190526040909120805460ff19169091179055565b5f546001600160a01b031633146103f25760405162461bcd60e51b8152600401610228906104a9565b60038054905f6104018361052b565b90915550506001600160a01b03165f908152600160205260409020805460ff19169055565b5f60208284031215610436575f80fd5b5035919050565b80356001600160a01b0381168114610453575f80fd5b919050565b5f60208284031215610468575f80fd5b6104718261043d565b9392505050565b5f8060408385031215610489575f80fd5b6104928361043d565b91506104a06020840161043d565b90509250929050565b60208082526036908201527f746865206f776e657220697320746865206f6e6c79206f6e6520746861742063604082015275616e2063616c6c20746869732066756e6374696f6e2160501b606082015260800190565b634e487b7160e01b5f52601160045260245ffd5b5f60018201610524576105246104ff565b5060010190565b5f81610539576105396104ff565b505f19019056fea264697066735822122006fcd154a2bbef3752f3101625ee98fc1f943d259cecfac80a713e9c73898fa164736f6c63430008180033","linkReferences":{}},"methodIdentifiers":{"addWithdraws(address)":"6a5c0803","changeLimit(uint256)":"6d33b42b","changeWithdraws(address,address)":"51341961","deleteWithdraws(address)":"8bb2245e","getBalance()":"12065fe0","limit()":"a4d66daf","owner()":"8da5cb5b","withdraw(uint256)":"2e1a7d4d","withdraws(address)":"48179ee5"},"id":88}